{
  "_format": "hh-sol-artifact-1",
  "contractName": "MyToken",
  "sourceName": "contracts/MyToken.sol",
  "abi": [
    {
      "inputs": [
        {
          "internalType": "address",
          "name": "_nft",
          "type": "address"
        }
      ],
      "stateMutability": "nonpayable",
      "type": "constructor"
    },
    {
      "anonymous": false,
      "inputs": [
        {
          "indexed": true,
          "internalType": "address",
          "name": "owner",
          "type": "address"
        },
        {
          "indexed": true,
          "internalType": "address",
          "name": "spender",
          "type": "address"
        },
        {
          "indexed": false,
          "internalType": "uint256",
          "name": "value",
          "type": "uint256"
        }
      ],
      "name": "Approval",
      "type": "event"
    },
    {
      "anonymous": false,
      "inputs": [
        {
          "indexed": true,
          "internalType": "address",
          "name": "previousOwner",
          "type": "address"
        },
        {
          "indexed": true,
          "internalType": "address",
          "name": "newOwner",
          "type": "address"
        }
      ],
      "name": "OwnershipTransferred",
      "type": "event"
    },
    {
      "anonymous": false,
      "inputs": [
        {
          "indexed": true,
          "internalType": "address",
          "name": "from",
          "type": "address"
        },
        {
          "indexed": true,
          "internalType": "address",
          "name": "to",
          "type": "address"
        },
        {
          "indexed": false,
          "internalType": "uint256",
          "name": "value",
          "type": "uint256"
        }
      ],
      "name": "Transfer",
      "type": "event"
    },
    {
      "inputs": [],
      "name": "Emission_rate",
      "outputs": [
        {
          "internalType": "uint256",
          "name": "",
          "type": "uint256"
        }
      ],
      "stateMutability": "view",
      "type": "function"
    },
    {
      "inputs": [
        {
          "internalType": "address",
          "name": "owner",
          "type": "address"
        },
        {
          "internalType": "address",
          "name": "spender",
          "type": "address"
        }
      ],
      "name": "allowance",
      "outputs": [
        {
          "internalType": "uint256",
          "name": "",
          "type": "uint256"
        }
      ],
      "stateMutability": "view",
      "type": "function"
    },
    {
      "inputs": [
        {
          "internalType": "address",
          "name": "spender",
          "type": "address"
        },
        {
          "internalType": "uint256",
          "name": "amount",
          "type": "uint256"
        }
      ],
      "name": "approve",
      "outputs": [
        {
          "internalType": "bool",
          "name": "",
          "type": "bool"
        }
      ],
      "stateMutability": "nonpayable",
      "type": "function"
    },
    {
      "inputs": [
        {
          "internalType": "address",
          "name": "account",
          "type": "address"
        }
      ],
      "name": "balanceOf",
      "outputs": [
        {
          "internalType": "uint256",
          "name": "",
          "type": "uint256"
        }
      ],
      "stateMutability": "view",
      "type": "function"
    },
    {
      "inputs": [
        {
          "internalType": "uint256",
          "name": "tokenId",
          "type": "uint256"
        }
      ],
      "name": "calculateTokens",
      "outputs": [
        {
          "internalType": "uint256",
          "name": "",
          "type": "uint256"
        }
      ],
      "stateMutability": "view",
      "type": "function"
    },
    {
      "inputs": [],
      "name": "decimals",
      "outputs": [
        {
          "internalType": "uint8",
          "name": "",
          "type": "uint8"
        }
      ],
      "stateMutability": "view",
      "type": "function"
    },
    {
      "inputs": [
        {
          "internalType": "address",
          "name": "spender",
          "type": "address"
        },
        {
          "internalType": "uint256",
          "name": "subtractedValue",
          "type": "uint256"
        }
      ],
      "name": "decreaseAllowance",
      "outputs": [
        {
          "internalType": "bool",
          "name": "",
          "type": "bool"
        }
      ],
      "stateMutability": "nonpayable",
      "type": "function"
    },
    {
      "inputs": [
        {
          "internalType": "address",
          "name": "spender",
          "type": "address"
        },
        {
          "internalType": "uint256",
          "name": "addedValue",
          "type": "uint256"
        }
      ],
      "name": "increaseAllowance",
      "outputs": [
        {
          "internalType": "bool",
          "name": "",
          "type": "bool"
        }
      ],
      "stateMutability": "nonpayable",
      "type": "function"
    },
    {
      "inputs": [],
      "name": "name",
      "outputs": [
        {
          "internalType": "string",
          "name": "",
          "type": "string"
        }
      ],
      "stateMutability": "view",
      "type": "function"
    },
    {
      "inputs": [],
      "name": "nft",
      "outputs": [
        {
          "internalType": "contract IERC721",
          "name": "",
          "type": "address"
        }
      ],
      "stateMutability": "view",
      "type": "function"
    },
    {
      "inputs": [
        {
          "internalType": "address",
          "name": "",
          "type": "address"
        },
        {
          "internalType": "address",
          "name": "",
          "type": "address"
        },
        {
          "internalType": "uint256",
          "name": "",
          "type": "uint256"
        },
        {
          "internalType": "bytes",
          "name": "",
          "type": "bytes"
        }
      ],
      "name": "onERC721Received",
      "outputs": [
        {
          "internalType": "bytes4",
          "name": "",
          "type": "bytes4"
        }
      ],
      "stateMutability": "nonpayable",
      "type": "function"
    },
    {
      "inputs": [],
      "name": "owner",
      "outputs": [
        {
          "internalType": "address",
          "name": "",
          "type": "address"
        }
      ],
      "stateMutability": "view",
      "type": "function"
    },
    {
      "inputs": [],
      "name": "renounceOwnership",
      "outputs": [],
      "stateMutability": "nonpayable",
      "type": "function"
    },
    {
      "inputs": [
        {
          "internalType": "uint256",
          "name": "tokenId",
          "type": "uint256"
        }
      ],
      "name": "stake",
      "outputs": [],
      "stateMutability": "nonpayable",
      "type": "function"
    },
    {
      "inputs": [],
      "name": "symbol",
      "outputs": [
        {
          "internalType": "string",
          "name": "",
          "type": "string"
        }
      ],
      "stateMutability": "view",
      "type": "function"
    },
    {
      "inputs": [
        {
          "internalType": "uint256",
          "name": "",
          "type": "uint256"
        }
      ],
      "name": "tokenOwnerOf",
      "outputs": [
        {
          "internalType": "address",
          "name": "",
          "type": "address"
        }
      ],
      "stateMutability": "view",
      "type": "function"
    },
    {
      "inputs": [
        {
          "internalType": "uint256",
          "name": "",
          "type": "uint256"
        }
      ],
      "name": "tokenStakedAt",
      "outputs": [
        {
          "internalType": "uint256",
          "name": "",
          "type": "uint256"
        }
      ],
      "stateMutability": "view",
      "type": "function"
    },
    {
      "inputs": [],
      "name": "totalSupply",
      "outputs": [
        {
          "internalType": "uint256",
          "name": "",
          "type": "uint256"
        }
      ],
      "stateMutability": "view",
      "type": "function"
    },
    {
      "inputs": [
        {
          "internalType": "address",
          "name": "to",
          "type": "address"
        },
        {
          "internalType": "uint256",
          "name": "amount",
          "type": "uint256"
        }
      ],
      "name": "transfer",
      "outputs": [
        {
          "internalType": "bool",
          "name": "",
          "type": "bool"
        }
      ],
      "stateMutability": "nonpayable",
      "type": "function"
    },
    {
      "inputs": [
        {
          "internalType": "address",
          "name": "from",
          "type": "address"
        },
        {
          "internalType": "address",
          "name": "to",
          "type": "address"
        },
        {
          "internalType": "uint256",
          "name": "amount",
          "type": "uint256"
        }
      ],
      "name": "transferFrom",
      "outputs": [
        {
          "internalType": "bool",
          "name": "",
          "type": "bool"
        }
      ],
      "stateMutability": "nonpayable",
      "type": "function"
    },
    {
      "inputs": [
        {
          "internalType": "address",
          "name": "newOwner",
          "type": "address"
        }
      ],
      "name": "transferOwnership",
      "outputs": [],
      "stateMutability": "nonpayable",
      "type": "function"
    },
    {
      "inputs": [
        {
          "internalType": "uint256",
          "name": "tokenId",
          "type": "uint256"
        }
      ],
      "name": "unstake",
      "outputs": [],
      "stateMutability": "nonpayable",
      "type": "function"
    }
  ],
  "bytecode": "0x608060405262015180620000186200017060201b60201c565b600a620000269190620003e1565b603262000034919062000432565b620000409190620004ac565b6009553480156200005057600080fd5b50604051620029703803806200297083398181016040528101906200007691906200054e565b6040518060400160405280600781526020017f4d79546f6b656e000000000000000000000000000000000000000000000000008152506040518060400160405280600481526020017f4d4e4654000000000000000000000000000000000000000000000000000000008152508160039081620000f39190620007f0565b508060049081620001059190620007f0565b505050620001286200011c6200017960201b60201c565b6200018160201b60201c565b80600660006101000a81548173ffffffffffffffffffffffffffffffffffffffff021916908373ffffffffffffffffffffffffffffffffffffffff16021790555050620008d7565b60006012905090565b600033905090565b6000600560009054906101000a900473ffffffffffffffffffffffffffffffffffffffff16905081600560006101000a81548173ffffffffffffffffffffffffffffffffffffffff021916908373ffffffffffffffffffffffffffffffffffffffff1602179055508173ffffffffffffffffffffffffffffffffffffffff168173ffffffffffffffffffffffffffffffffffffffff167f8be0079c531659141344cd1fd0a4f28419497f9722a3daafe3b4186f6b6457e060405160405180910390a35050565b7f4e487b7100000000000000000000000000000000000000000000000000000000600052601160045260246000fd5b60008160011c9050919050565b6000808291508390505b6001851115620002d557808604811115620002ad57620002ac62000247565b5b6001851615620002bd5780820291505b8081029050620002cd8562000276565b94506200028d565b94509492505050565b600082620002f05760019050620003c3565b81620003005760009050620003c3565b816001811462000319576002811462000324576200035a565b6001915050620003c3565b60ff84111562000339576200033862000247565b5b8360020a91508482111562000353576200035262000247565b5b50620003c3565b5060208310610133831016604e8410600b8410161715620003945782820a9050838111156200038e576200038d62000247565b5b620003c3565b620003a3848484600162000283565b92509050818404811115620003bd57620003bc62000247565b5b81810290505b9392505050565b6000819050919050565b600060ff82169050919050565b6000620003ee82620003ca565b9150620003fb83620003d4565b92506200042a7fffffffffffffffffffffffffffffffffffffffffffffffffffffffffffffffff8484620002de565b905092915050565b60006200043f82620003ca565b91506200044c83620003ca565b92508282026200045c81620003ca565b9150828204841483151762000476576200047562000247565b5b5092915050565b7f4e487b7100000000000000000000000000000000000000000000000000000000600052601260045260246000fd5b6000620004b982620003ca565b9150620004c683620003ca565b925082620004d957620004d86200047d565b5b828204905092915050565b600080fd5b600073ffffffffffffffffffffffffffffffffffffffff82169050919050565b60006200051682620004e9565b9050919050565b620005288162000509565b81146200053457600080fd5b50565b60008151905062000548816200051d565b92915050565b600060208284031215620005675762000566620004e4565b5b6000620005778482850162000537565b91505092915050565b600081519050919050565b7f4e487b7100000000000000000000000000000000000000000000000000000000600052604160045260246000fd5b7f4e487b7100000000000000000000000000000000000000000000000000000000600052602260045260246000fd5b600060028204905060018216806200060257607f821691505b602082108103620006185762000617620005ba565b5b50919050565b60008190508160005260206000209050919050565b60006020601f8301049050919050565b600082821b905092915050565b600060088302620006827fffffffffffffffffffffffffffffffffffffffffffffffffffffffffffffffff8262000643565b6200068e868362000643565b95508019841693508086168417925050509392505050565b6000819050919050565b6000620006d1620006cb620006c584620003ca565b620006a6565b620003ca565b9050919050565b6000819050919050565b620006ed83620006b0565b62000705620006fc82620006d8565b84845462000650565b825550505050565b600090565b6200071c6200070d565b62000729818484620006e2565b505050565b5b8181101562000751576200074560008262000712565b6001810190506200072f565b5050565b601f821115620007a0576200076a816200061e565b620007758462000633565b8101602085101562000785578190505b6200079d620007948562000633565b8301826200072e565b50505b505050565b600082821c905092915050565b6000620007c560001984600802620007a5565b1980831691505092915050565b6000620007e08383620007b2565b9150826002028217905092915050565b620007fb8262000580565b67ffffffffffffffff8111156200081757620008166200058b565b5b620008238254620005e9565b6200083082828562000755565b600060209050601f83116001811462000868576000841562000853578287015190505b6200085f8582620007d2565b865550620008cf565b601f19841662000878866200061e565b60005b82811015620008a2578489015182556001820191506020850194506020810190506200087b565b86831015620008c25784890151620008be601f891682620007b2565b8355505b6001600288020188555050505b505050505050565b61208980620008e76000396000f3fe608060405234801561001057600080fd5b50600436106101425760003560e01c806370a08231116100b857806395d89b411161007c57806395d89b41146103a1578063a457c2d7146103bf578063a694fc3a146103ef578063a9059cbb1461040b578063dd62ed3e1461043b578063f2fde38b1461046b57610142565b806370a08231146102e9578063715018a61461031957806371aa60fd1461032357806389885a59146103535780638da5cb5b1461038357610142565b806324bf238c1161010a57806324bf238c146102135780632e17de7814610243578063313ce5671461025f578063395093511461027d5780633c545e11146102ad57806347ccca02146102cb57610142565b806306fdde0314610147578063095ea7b314610165578063150b7a021461019557806318160ddd146101c557806323b872dd146101e3575b600080fd5b61014f610487565b60405161015c91906113cf565b60405180910390f35b61017f600480360381019061017a9190611499565b610519565b60405161018c91906114f4565b60405180910390f35b6101af60048036038101906101aa9190611644565b61053c565b6040516101bc9190611702565b60405180910390f35b6101cd610550565b6040516101da919061172c565b60405180910390f35b6101fd60048036038101906101f89190611747565b61055a565b60405161020a91906114f4565b60405180910390f35b61022d6004803603810190610228919061179a565b610589565b60405161023a919061172c565b60405180910390f35b61025d6004803603810190610258919061179a565b6105a1565b005b610267610735565b60405161027491906117e3565b60405180910390f35b61029760048036038101906102929190611499565b61073e565b6040516102a491906114f4565b60405180910390f35b6102b5610775565b6040516102c2919061172c565b60405180910390f35b6102d361077b565b6040516102e0919061185d565b60405180910390f35b61030360048036038101906102fe9190611878565b6107a1565b604051610310919061172c565b60405180910390f35b6103216107e9565b005b61033d6004803603810190610338919061179a565b6107fd565b60405161034a919061172c565b60405180910390f35b61036d6004803603810190610368919061179a565b610837565b60405161037a91906118b4565b60405180910390f35b61038b61086a565b60405161039891906118b4565b60405180910390f35b6103a9610894565b6040516103b691906113cf565b60405180910390f35b6103d960048036038101906103d49190611499565b610926565b6040516103e691906114f4565b60405180910390f35b6104096004803603810190610404919061179a565b61099d565b005b61042560048036038101906104209190611499565b610a9b565b60405161043291906114f4565b60405180910390f35b610455600480360381019061045091906118cf565b610abe565b604051610462919061172c565b60405180910390f35b61048560048036038101906104809190611878565b610b45565b005b6060600380546104969061193e565b80601f01602080910402602001604051908101604052809291908181526020018280546104c29061193e565b801561050f5780601f106104e45761010080835404028352916020019161050f565b820191906000526020600020905b8154815290600101906020018083116104f257829003601f168201915b5050505050905090565b600080610524610bc8565b9050610531818585610bd0565b600191505092915050565b600063150b7a0260e01b9050949350505050565b6000600254905090565b600080610565610bc8565b9050610572858285610d99565b61057d858585610e25565b60019150509392505050565b60086020528060005260406000206000915090505481565b3373ffffffffffffffffffffffffffffffffffffffff166007600083815260200190815260200160002060009054906101000a900473ffffffffffffffffffffffffffffffffffffffff1673ffffffffffffffffffffffffffffffffffffffff1614610642576040517f08c379a0000000000000000000000000000000000000000000000000000000008152600401610639906119e1565b60405180910390fd5b6106543361064f836107fd565b61109b565b600660009054906101000a900473ffffffffffffffffffffffffffffffffffffffff1673ffffffffffffffffffffffffffffffffffffffff166323b872dd3033846040518463ffffffff1660e01b81526004016106b393929190611a01565b600060405180830381600087803b1580156106cd57600080fd5b505af11580156106e1573d6000803e3d6000fd5b505050506007600082815260200190815260200160002060006101000a81549073ffffffffffffffffffffffffffffffffffffffff0219169055600860008281526020019081526020016000206000905550565b60006012905090565b600080610749610bc8565b905061076a81858561075b8589610abe565b6107659190611a67565b610bd0565b600191505092915050565b60095481565b600660009054906101000a900473ffffffffffffffffffffffffffffffffffffffff1681565b60008060008373ffffffffffffffffffffffffffffffffffffffff1673ffffffffffffffffffffffffffffffffffffffff168152602001908152602001600020549050919050565b6107f16111f1565b6107fb600061126f565b565b60008060086000848152602001908152602001600020544261081f9190611a9b565b90506009548161082f9190611acf565b915050919050565b60076020528060005260406000206000915054906101000a900473ffffffffffffffffffffffffffffffffffffffff1681565b6000600560009054906101000a900473ffffffffffffffffffffffffffffffffffffffff16905090565b6060600480546108a39061193e565b80601f01602080910402602001604051908101604052809291908181526020018280546108cf9061193e565b801561091c5780601f106108f15761010080835404028352916020019161091c565b820191906000526020600020905b8154815290600101906020018083116108ff57829003601f168201915b5050505050905090565b600080610931610bc8565b9050600061093f8286610abe565b905083811015610984576040517f08c379a000000000000000000000000000000000000000000000000000000000815260040161097b90611b83565b60405180910390fd5b6109918286868403610bd0565b60019250505092915050565b600660009054906101000a900473ffffffffffffffffffffffffffffffffffffffff1673ffffffffffffffffffffffffffffffffffffffff166342842e0e3330846040518463ffffffff1660e01b81526004016109fc93929190611a01565b600060405180830381600087803b158015610a1657600080fd5b505af1158015610a2a573d6000803e3d6000fd5b50505050336007600083815260200190815260200160002060006101000a81548173ffffffffffffffffffffffffffffffffffffffff021916908373ffffffffffffffffffffffffffffffffffffffff16021790555042600860008381526020019081526020016000208190555050565b600080610aa6610bc8565b9050610ab3818585610e25565b600191505092915050565b6000600160008473ffffffffffffffffffffffffffffffffffffffff1673ffffffffffffffffffffffffffffffffffffffff16815260200190815260200160002060008373ffffffffffffffffffffffffffffffffffffffff1673ffffffffffffffffffffffffffffffffffffffff16815260200190815260200160002054905092915050565b610b4d6111f1565b600073ffffffffffffffffffffffffffffffffffffffff168173ffffffffffffffffffffffffffffffffffffffff1603610bbc576040517f08c379a0000000000000000000000000000000000000000000000000000000008152600401610bb390611c15565b60405180910390fd5b610bc58161126f565b50565b600033905090565b600073ffffffffffffffffffffffffffffffffffffffff168373ffffffffffffffffffffffffffffffffffffffff1603610c3f576040517f08c379a0000000000000000000000000000000000000000000000000000000008152600401610c3690611ca7565b60405180910390fd5b600073ffffffffffffffffffffffffffffffffffffffff168273ffffffffffffffffffffffffffffffffffffffff1603610cae576040517f08c379a0000000000000000000000000000000000000000000000000000000008152600401610ca590611d39565b60405180910390fd5b80600160008573ffffffffffffffffffffffffffffffffffffffff1673ffffffffffffffffffffffffffffffffffffffff16815260200190815260200160002060008473ffffffffffffffffffffffffffffffffffffffff1673ffffffffffffffffffffffffffffffffffffffff168152602001908152602001600020819055508173ffffffffffffffffffffffffffffffffffffffff168373ffffffffffffffffffffffffffffffffffffffff167f8c5be1e5ebec7d5bd14f71427d1e84f3dd0314c0f7b2291e5b200ac8c7c3b92583604051610d8c919061172c565b60405180910390a3505050565b6000610da58484610abe565b90507fffffffffffffffffffffffffffffffffffffffffffffffffffffffffffffffff8114610e1f5781811015610e11576040517f08c379a0000000000000000000000000000000000000000000000000000000008152600401610e0890611da5565b60405180910390fd5b610e1e8484848403610bd0565b5b50505050565b600073ffffffffffffffffffffffffffffffffffffffff168373ffffffffffffffffffffffffffffffffffffffff1603610e94576040517f08c379a0000000000000000000000000000000000000000000000000000000008152600401610e8b90611e37565b60405180910390fd5b600073ffffffffffffffffffffffffffffffffffffffff168273ffffffffffffffffffffffffffffffffffffffff1603610f03576040517f08c379a0000000000000000000000000000000000000000000000000000000008152600401610efa90611ec9565b60405180910390fd5b610f0e838383611335565b60008060008573ffffffffffffffffffffffffffffffffffffffff1673ffffffffffffffffffffffffffffffffffffffff16815260200190815260200160002054905081811015610f94576040517f08c379a0000000000000000000000000000000000000000000000000000000008152600401610f8b90611f5b565b60405180910390fd5b8181036000808673ffffffffffffffffffffffffffffffffffffffff1673ffffffffffffffffffffffffffffffffffffffff16815260200190815260200160002081905550816000808573ffffffffffffffffffffffffffffffffffffffff1673ffffffffffffffffffffffffffffffffffffffff168152602001908152602001600020600082825401925050819055508273ffffffffffffffffffffffffffffffffffffffff168473ffffffffffffffffffffffffffffffffffffffff167fddf252ad1be2c89b69c2b068fc378daa952ba7f163c4a11628f55a4df523b3ef84604051611082919061172c565b60405180910390a361109584848461133a565b50505050565b600073ffffffffffffffffffffffffffffffffffffffff168273ffffffffffffffffffffffffffffffffffffffff160361110a576040517f08c379a000000000000000000000000000000000000000000000000000000000815260040161110190611fc7565b60405180910390fd5b61111660008383611335565b80600260008282546111289190611a67565b92505081905550806000808473ffffffffffffffffffffffffffffffffffffffff1673ffffffffffffffffffffffffffffffffffffffff168152602001908152602001600020600082825401925050819055508173ffffffffffffffffffffffffffffffffffffffff16600073ffffffffffffffffffffffffffffffffffffffff167fddf252ad1be2c89b69c2b068fc378daa952ba7f163c4a11628f55a4df523b3ef836040516111d9919061172c565b60405180910390a36111ed6000838361133a565b5050565b6111f9610bc8565b73ffffffffffffffffffffffffffffffffffffffff1661121761086a565b73ffffffffffffffffffffffffffffffffffffffff161461126d576040517f08c379a000000000000000000000000000000000000000000000000000000000815260040161126490612033565b60405180910390fd5b565b6000600560009054906101000a900473ffffffffffffffffffffffffffffffffffffffff16905081600560006101000a81548173ffffffffffffffffffffffffffffffffffffffff021916908373ffffffffffffffffffffffffffffffffffffffff1602179055508173ffffffffffffffffffffffffffffffffffffffff168173ffffffffffffffffffffffffffffffffffffffff167f8be0079c531659141344cd1fd0a4f28419497f9722a3daafe3b4186f6b6457e060405160405180910390a35050565b505050565b505050565b600081519050919050565b600082825260208201905092915050565b60005b8381101561137957808201518184015260208101905061135e565b60008484015250505050565b6000601f19601f8301169050919050565b60006113a18261133f565b6113ab818561134a565b93506113bb81856020860161135b565b6113c481611385565b840191505092915050565b600060208201905081810360008301526113e98184611396565b905092915050565b6000604051905090565b600080fd5b600080fd5b600073ffffffffffffffffffffffffffffffffffffffff82169050919050565b600061143082611405565b9050919050565b61144081611425565b811461144b57600080fd5b50565b60008135905061145d81611437565b92915050565b6000819050919050565b61147681611463565b811461148157600080fd5b50565b6000813590506114938161146d565b92915050565b600080604083850312156114b0576114af6113fb565b5b60006114be8582860161144e565b92505060206114cf85828601611484565b9150509250929050565b60008115159050919050565b6114ee816114d9565b82525050565b600060208201905061150960008301846114e5565b92915050565b600080fd5b600080fd5b7f4e487b7100000000000000000000000000000000000000000000000000000000600052604160045260246000fd5b61155182611385565b810181811067ffffffffffffffff821117156115705761156f611519565b5b80604052505050565b60006115836113f1565b905061158f8282611548565b919050565b600067ffffffffffffffff8211156115af576115ae611519565b5b6115b882611385565b9050602081019050919050565b82818337600083830152505050565b60006115e76115e284611594565b611579565b90508281526020810184848401111561160357611602611514565b5b61160e8482856115c5565b509392505050565b600082601f83011261162b5761162a61150f565b5b813561163b8482602086016115d4565b91505092915050565b6000806000806080858703121561165e5761165d6113fb565b5b600061166c8782880161144e565b945050602061167d8782880161144e565b935050604061168e87828801611484565b925050606085013567ffffffffffffffff8111156116af576116ae611400565b5b6116bb87828801611616565b91505092959194509250565b60007fffffffff0000000000000000000000000000000000000000000000000000000082169050919050565b6116fc816116c7565b82525050565b600060208201905061171760008301846116f3565b92915050565b61172681611463565b82525050565b6000602082019050611741600083018461171d565b92915050565b6000806000606084860312156117605761175f6113fb565b5b600061176e8682870161144e565b935050602061177f8682870161144e565b925050604061179086828701611484565b9150509250925092565b6000602082840312156117b0576117af6113fb565b5b60006117be84828501611484565b91505092915050565b600060ff82169050919050565b6117dd816117c7565b82525050565b60006020820190506117f860008301846117d4565b92915050565b6000819050919050565b600061182361181e61181984611405565b6117fe565b611405565b9050919050565b600061183582611808565b9050919050565b60006118478261182a565b9050919050565b6118578161183c565b82525050565b6000602082019050611872600083018461184e565b92915050565b60006020828403121561188e5761188d6113fb565b5b600061189c8482850161144e565b91505092915050565b6118ae81611425565b82525050565b60006020820190506118c960008301846118a5565b92915050565b600080604083850312156118e6576118e56113fb565b5b60006118f48582860161144e565b92505060206119058582860161144e565b9150509250929050565b7f4e487b7100000000000000000000000000000000000000000000000000000000600052602260045260246000fd5b6000600282049050600182168061195657607f821691505b6020821081036119695761196861190f565b5b50919050565b7f43616e277420756e7374616b652074686973204e46542e20596f75206172652060008201527f6e6f7420746865206f776e65722e000000000000000000000000000000000000602082015250565b60006119cb602e8361134a565b91506119d68261196f565b604082019050919050565b600060208201905081810360008301526119fa816119be565b9050919050565b6000606082019050611a1660008301866118a5565b611a2360208301856118a5565b611a30604083018461171d565b949350505050565b7f4e487b7100000000000000000000000000000000000000000000000000000000600052601160045260246000fd5b6000611a7282611463565b9150611a7d83611463565b9250828201905080821115611a9557611a94611a38565b5b92915050565b6000611aa682611463565b9150611ab183611463565b9250828203905081811115611ac957611ac8611a38565b5b92915050565b6000611ada82611463565b9150611ae583611463565b9250828202611af381611463565b91508282048414831517611b0a57611b09611a38565b5b5092915050565b7f45524332303a2064656372656173656420616c6c6f77616e63652062656c6f7760008201527f207a65726f000000000000000000000000000000000000000000000000000000602082015250565b6000611b6d60258361134a565b9150611b7882611b11565b604082019050919050565b60006020820190508181036000830152611b9c81611b60565b9050919050565b7f4f776e61626c653a206e6577206f776e657220697320746865207a65726f206160008201527f6464726573730000000000000000000000000000000000000000000000000000602082015250565b6000611bff60268361134a565b9150611c0a82611ba3565b604082019050919050565b60006020820190508181036000830152611c2e81611bf2565b9050919050565b7f45524332303a20617070726f76652066726f6d20746865207a65726f2061646460008201527f7265737300000000000000000000000000000000000000000000000000000000602082015250565b6000611c9160248361134a565b9150611c9c82611c35565b604082019050919050565b60006020820190508181036000830152611cc081611c84565b9050919050565b7f45524332303a20617070726f766520746f20746865207a65726f20616464726560008201527f7373000000000000000000000000000000000000000000000000000000000000602082015250565b6000611d2360228361134a565b9150611d2e82611cc7565b604082019050919050565b60006020820190508181036000830152611d5281611d16565b9050919050565b7f45524332303a20696e73756666696369656e7420616c6c6f77616e6365000000600082015250565b6000611d8f601d8361134a565b9150611d9a82611d59565b602082019050919050565b60006020820190508181036000830152611dbe81611d82565b9050919050565b7f45524332303a207472616e736665722066726f6d20746865207a65726f20616460008201527f6472657373000000000000000000000000000000000000000000000000000000602082015250565b6000611e2160258361134a565b9150611e2c82611dc5565b604082019050919050565b60006020820190508181036000830152611e5081611e14565b9050919050565b7f45524332303a207472616e7366657220746f20746865207a65726f206164647260008201527f6573730000000000000000000000000000000000000000000000000000000000602082015250565b6000611eb360238361134a565b9150611ebe82611e57565b604082019050919050565b60006020820190508181036000830152611ee281611ea6565b9050919050565b7f45524332303a207472616e7366657220616d6f756e742065786365656473206260008201527f616c616e63650000000000000000000000000000000000000000000000000000602082015250565b6000611f4560268361134a565b9150611f5082611ee9565b604082019050919050565b60006020820190508181036000830152611f7481611f38565b9050919050565b7f45524332303a206d696e7420746f20746865207a65726f206164647265737300600082015250565b6000611fb1601f8361134a565b9150611fbc82611f7b565b602082019050919050565b60006020820190508181036000830152611fe081611fa4565b9050919050565b7f4f776e61626c653a2063616c6c6572206973206e6f7420746865206f776e6572600082015250565b600061201d60208361134a565b915061202882611fe7565b602082019050919050565b6000602082019050818103600083015261204c81612010565b905091905056fea26469706673582212201425dca80c085591cc4e415f69e23ba64d8c8cb4711c83c54fc9b75b81fdf96664736f6c63430008130033",
  "linkReferences": {},
  "deployedLinkReferences": {}
}