{"contracts/Exchange.sol":{"Exchange":{"abi":[{"inputs":[{"internalType":"address","name":"_tokenAddress","type":"address"}],"stateMutability":"nonpayable","type":"constructor"},{"anonymous":false,"inputs":[{"indexed":true,"internalType":"address","name":"owner","type":"address"},{"indexed":true,"internalType":"address","name":"spender","type":"address"},{"indexed":false,"internalType":"uint256","name":"value","type":"uint256"}],"name":"Approval","type":"event"},{"anonymous":false,"inputs":[{"indexed":true,"internalType":"address","name":"from","type":"address"},{"indexed":true,"internalType":"address","name":"to","type":"address"},{"indexed":false,"internalType":"uint256","name":"value","type":"uint256"}],"name":"Transfer","type":"event"},{"inputs":[{"internalType":"uint256","name":"_amount","type":"uint256"}],"name":"addLiquidity","outputs":[{"internalType":"uint256","name":"","type":"uint256"}],"stateMutability":"payable","type":"function"},{"inputs":[{"internalType":"address","name":"owner","type":"address"},{"internalType":"address","name":"spender","type":"address"}],"name":"allowance","outputs":[{"internalType":"uint256","name":"","type":"uint256"}],"stateMutability":"view","type":"function"},{"inputs":[{"internalType":"address","name":"spender","type":"address"},{"internalType":"uint256","name":"amount","type":"uint256"}],"name":"approve","outputs":[{"internalType":"bool","name":"","type":"bool"}],"stateMutability":"nonpayable","type":"function"},{"inputs":[{"internalType":"address","name":"account","type":"address"}],"name":"balanceOf","outputs":[{"internalType":"uint256","name":"","type":"uint256"}],"stateMutability":"view","type":"function"},{"inputs":[],"name":"decimals","outputs":[{"internalType":"uint8","name":"","type":"uint8"}],"stateMutability":"view","type":"function"},{"inputs":[{"internalType":"address","name":"spender","type":"address"},{"internalType":"uint256","name":"subtractedValue","type":"uint256"}],"name":"decreaseAllowance","outputs":[{"internalType":"bool","name":"","type":"bool"}],"stateMutability":"nonpayable","type":"function"},{"inputs":[],"name":"getReserve","outputs":[{"internalType":"uint256","name":"","type":"uint256"}],"stateMutability":"view","type":"function"},{"inputs":[{"internalType":"address","name":"spender","type":"address"},{"internalType":"uint256","name":"addedValue","type":"uint256"}],"name":"increaseAllowance","outputs":[{"internalType":"bool","name":"","type":"bool"}],"stateMutability":"nonpayable","type":"function"},{"inputs":[],"name":"name","outputs":[{"internalType":"string","name":"","type":"string"}],"stateMutability":"view","type":"function"},{"inputs":[{"internalType":"uint256","name":"_amount","type":"uint256"}],"name":"removeLiquidity","outputs":[{"internalType":"uint256","name":"","type":"uint256"},{"internalType":"uint256","name":"","type":"uint256"}],"stateMutability":"nonpayable","type":"function"},{"inputs":[],"name":"symbol","outputs":[{"internalType":"string","name":"","type":"string"}],"stateMutability":"view","type":"function"},{"inputs":[],"name":"tokenAddress","outputs":[{"internalType":"address","name":"","type":"address"}],"stateMutability":"view","type":"function"},{"inputs":[],"name":"totalSupply","outputs":[{"internalType":"uint256","name":"","type":"uint256"}],"stateMutability":"view","type":"function"},{"inputs":[{"internalType":"address","name":"to","type":"address"},{"internalType":"uint256","name":"amount","type":"uint256"}],"name":"transfer","outputs":[{"internalType":"bool","name":"","type":"bool"}],"stateMutability":"nonpayable","type":"function"},{"inputs":[{"internalType":"address","name":"from","type":"address"},{"internalType":"address","name":"to","type":"address"},{"internalType":"uint256","name":"amount","type":"uint256"}],"name":"transferFrom","outputs":[{"internalType":"bool","name":"","type":"bool"}],"stateMutability":"nonpayable","type":"function"}],"evm":{"bytecode":{"linkReferences":{},"object":"60806040523480156200001157600080fd5b5060405162002632380380620026328339818101604052810190620000379190620001ed565b6040518060400160405280601681526020017f4f6e6520436f6d6d756e697479204c5020546f6b656e000000000000000000008152506040518060400160405280600481526020017f4f434c50000000000000000000000000000000000000000000000000000000008152508160039081620000b4919062000499565b508060049081620000c6919062000499565b505050600073ffffffffffffffffffffffffffffffffffffffff168173ffffffffffffffffffffffffffffffffffffffff16036200013b576040517f08c379a00000000000000000000000000000000000000000000000000000000081526004016200013290620005e1565b60405180910390fd5b80600560006101000a81548173ffffffffffffffffffffffffffffffffffffffff021916908373ffffffffffffffffffffffffffffffffffffffff1602179055505062000603565b600080fd5b600073ffffffffffffffffffffffffffffffffffffffff82169050919050565b6000620001b58262000188565b9050919050565b620001c781620001a8565b8114620001d357600080fd5b50565b600081519050620001e781620001bc565b92915050565b60006020828403121562000206576200020562000183565b5b60006200021684828501620001d6565b91505092915050565b600081519050919050565b7f4e487b7100000000000000000000000000000000000000000000000000000000600052604160045260246000fd5b7f4e487b7100000000000000000000000000000000000000000000000000000000600052602260045260246000fd5b60006002820490506001821680620002a157607f821691505b602082108103620002b757620002b662000259565b5b50919050565b60008190508160005260206000209050919050565b60006020601f8301049050919050565b600082821b905092915050565b600060088302620003217fffffffffffffffffffffffffffffffffffffffffffffffffffffffffffffffff82620002e2565b6200032d8683620002e2565b95508019841693508086168417925050509392505050565b6000819050919050565b6000819050919050565b60006200037a620003746200036e8462000345565b6200034f565b62000345565b9050919050565b6000819050919050565b620003968362000359565b620003ae620003a58262000381565b848454620002ef565b825550505050565b600090565b620003c5620003b6565b620003d28184846200038b565b505050565b5b81811015620003fa57620003ee600082620003bb565b600181019050620003d8565b5050565b601f82111562000449576200041381620002bd565b6200041e84620002d2565b810160208510156200042e578190505b620004466200043d85620002d2565b830182620003d7565b50505b505050565b600082821c905092915050565b60006200046e600019846008026200044e565b1980831691505092915050565b60006200048983836200045b565b9150826002028217905092915050565b620004a4826200021f565b67ffffffffffffffff811115620004c057620004bf6200022a565b5b620004cc825462000288565b620004d9828285620003fe565b600060209050601f831160018114620005115760008415620004fc578287015190505b6200050885826200047b565b86555062000578565b601f1984166200052186620002bd565b60005b828110156200054b5784890151825560018201915060208501945060208101905062000524565b868310156200056b578489015162000567601f8916826200045b565b8355505b6001600288020188555050505b505050505050565b600082825260208201905092915050565b7f43616e6e6f742062652061646472657373207a65726f2e000000000000000000600082015250565b6000620005c960178362000580565b9150620005d68262000591565b602082019050919050565b60006020820190508181036000830152620005fc81620005ba565b9050919050565b61201f80620006136000396000f3fe6080604052600436106100e85760003560e01c806359bf5d391161008a5780639d76ea58116100595780639d76ea5814610326578063a457c2d714610351578063a9059cbb1461038e578063dd62ed3e146103cb576100e8565b806359bf5d391461025557806370a082311461028057806395d89b41146102bd5780639c8f9f23146102e8576100e8565b806323b872dd116100c657806323b872dd14610180578063313ce567146101bd57806339509351146101e857806351c6590a14610225576100e8565b806306fdde03146100ed578063095ea7b31461011857806318160ddd14610155575b600080fd5b3480156100f957600080fd5b50610102610408565b60405161010f919061141d565b60405180910390f35b34801561012457600080fd5b5061013f600480360381019061013a91906114d8565b61049a565b60405161014c9190611533565b60405180910390f35b34801561016157600080fd5b5061016a6104bd565b604051610177919061155d565b60405180910390f35b34801561018c57600080fd5b506101a760048036038101906101a29190611578565b6104c7565b6040516101b49190611533565b60405180910390f35b3480156101c957600080fd5b506101d26104f6565b6040516101df91906115e7565b60405180910390f35b3480156101f457600080fd5b5061020f600480360381019061020a91906114d8565b6104ff565b60405161021c9190611533565b60405180910390f35b61023f600480360381019061023a9190611602565b610536565b60405161024c919061155d565b60405180910390f35b34801561026157600080fd5b5061026a610734565b604051610277919061155d565b60405180910390f35b34801561028c57600080fd5b506102a760048036038101906102a2919061162f565b6107d7565b6040516102b4919061155d565b60405180910390f35b3480156102c957600080fd5b506102d261081f565b6040516102df919061141d565b60405180910390f35b3480156102f457600080fd5b5061030f600480360381019061030a9190611602565b6108b1565b60405161031d92919061165c565b60405180910390f35b34801561033257600080fd5b5061033b610a46565b6040516103489190611694565b60405180910390f35b34801561035d57600080fd5b50610378600480360381019061037391906114d8565b610a6c565b6040516103859190611533565b60405180910390f35b34801561039a57600080fd5b506103b560048036038101906103b091906114d8565b610ae3565b6040516103c29190611533565b60405180910390f35b3480156103d757600080fd5b506103f260048036038101906103ed91906116af565b610b06565b6040516103ff919061155d565b60405180910390f35b6060600380546104179061171e565b80601f01602080910402602001604051908101604052809291908181526020018280546104439061171e565b80156104905780601f1061046557610100808354040283529160200191610490565b820191906000526020600020905b81548152906001019060200180831161047357829003601f168201915b5050505050905090565b6000806104a5610b8d565b90506104b2818585610b95565b600191505092915050565b6000600254905090565b6000806104d2610b8d565b90506104df858285610d5e565b6104ea858585610dea565b60019150509392505050565b60006012905090565b60008061050a610b8d565b905061052b81858561051c8589610b06565b610526919061177e565b610b95565b600191505092915050565b60008060004790506000610548610734565b90506000600560009054906101000a900473ffffffffffffffffffffffffffffffffffffffff1690506000820361060c578073ffffffffffffffffffffffffffffffffffffffff166323b872dd3330896040518463ffffffff1660e01b81526004016105b6939291906117b2565b6020604051808303816000875af11580156105d5573d6000803e3d6000fd5b505050506040513d601f19601f820116820180604052508101906105f99190611815565b508293506106073385611060565b610728565b6000348461061a9190611842565b9050600081843461062b9190611876565b61063591906118e7565b90508088101561067a576040517f08c379a00000000000000000000000000000000000000000000000000000000081526004016106719061198a565b60405180910390fd5b8273ffffffffffffffffffffffffffffffffffffffff166323b872dd3330846040518463ffffffff1660e01b81526004016106b7939291906117b2565b6020604051808303816000875af11580156106d6573d6000803e3d6000fd5b505050506040513d601f19601f820116820180604052508101906106fa9190611815565b5081346107056104bd565b61070f9190611876565b61071991906118e7565b95506107253387611060565b50505b83945050505050919050565b6000600560009054906101000a900473ffffffffffffffffffffffffffffffffffffffff1673ffffffffffffffffffffffffffffffffffffffff166370a08231306040518263ffffffff1660e01b81526004016107919190611694565b602060405180830381865afa1580156107ae573d6000803e3d6000fd5b505050506040513d601f19601f820116820180604052508101906107d291906119bf565b905090565b60008060008373ffffffffffffffffffffffffffffffffffffffff1673ffffffffffffffffffffffffffffffffffffffff168152602001908152602001600020549050919050565b60606004805461082e9061171e565b80601f016020809104026020016040519081016040528092919081815260200182805461085a9061171e565b80156108a75780601f1061087c576101008083540402835291602001916108a7565b820191906000526020600020905b81548152906001019060200180831161088a57829003601f168201915b5050505050905090565b600080600083116108f7576040517f08c379a00000000000000000000000000000000000000000000000000000000081526004016108ee90611a38565b60405180910390fd5b600047905060006109066104bd565b905060008186846109179190611876565b61092191906118e7565b90506000828761092f610734565b6109399190611876565b61094391906118e7565b905061094f33886111b6565b3373ffffffffffffffffffffffffffffffffffffffff166108fc839081150290604051600060405180830381858888f19350505050158015610995573d6000803e3d6000fd5b50600560009054906101000a900473ffffffffffffffffffffffffffffffffffffffff1673ffffffffffffffffffffffffffffffffffffffff1663a9059cbb33836040518363ffffffff1660e01b81526004016109f3929190611a58565b6020604051808303816000875af1158015610a12573d6000803e3d6000fd5b505050506040513d601f19601f82011682018060405250810190610a369190611815565b5081819550955050505050915091565b600560009054906101000a900473ffffffffffffffffffffffffffffffffffffffff1681565b600080610a77610b8d565b90506000610a858286610b06565b905083811015610aca576040517f08c379a0000000000000000000000000000000000000000000000000000000008152600401610ac190611af3565b60405180910390fd5b610ad78286868403610b95565b60019250505092915050565b600080610aee610b8d565b9050610afb818585610dea565b600191505092915050565b6000600160008473ffffffffffffffffffffffffffffffffffffffff1673ffffffffffffffffffffffffffffffffffffffff16815260200190815260200160002060008373ffffffffffffffffffffffffffffffffffffffff1673ffffffffffffffffffffffffffffffffffffffff16815260200190815260200160002054905092915050565b600033905090565b600073ffffffffffffffffffffffffffffffffffffffff168373ffffffffffffffffffffffffffffffffffffffff1603610c04576040517f08c379a0000000000000000000000000000000000000000000000000000000008152600401610bfb90611b85565b60405180910390fd5b600073ffffffffffffffffffffffffffffffffffffffff168273ffffffffffffffffffffffffffffffffffffffff1603610c73576040517f08c379a0000000000000000000000000000000000000000000000000000000008152600401610c6a90611c17565b60405180910390fd5b80600160008573ffffffffffffffffffffffffffffffffffffffff1673ffffffffffffffffffffffffffffffffffffffff16815260200190815260200160002060008473ffffffffffffffffffffffffffffffffffffffff1673ffffffffffffffffffffffffffffffffffffffff168152602001908152602001600020819055508173ffffffffffffffffffffffffffffffffffffffff168373ffffffffffffffffffffffffffffffffffffffff167f8c5be1e5ebec7d5bd14f71427d1e84f3dd0314c0f7b2291e5b200ac8c7c3b92583604051610d51919061155d565b60405180910390a3505050565b6000610d6a8484610b06565b90507fffffffffffffffffffffffffffffffffffffffffffffffffffffffffffffffff8114610de45781811015610dd6576040517f08c379a0000000000000000000000000000000000000000000000000000000008152600401610dcd90611c83565b60405180910390fd5b610de38484848403610b95565b5b50505050565b600073ffffffffffffffffffffffffffffffffffffffff168373ffffffffffffffffffffffffffffffffffffffff1603610e59576040517f08c379a0000000000000000000000000000000000000000000000000000000008152600401610e5090611d15565b60405180910390fd5b600073ffffffffffffffffffffffffffffffffffffffff168273ffffffffffffffffffffffffffffffffffffffff1603610ec8576040517f08c379a0000000000000000000000000000000000000000000000000000000008152600401610ebf90611da7565b60405180910390fd5b610ed3838383611383565b60008060008573ffffffffffffffffffffffffffffffffffffffff1673ffffffffffffffffffffffffffffffffffffffff16815260200190815260200160002054905081811015610f59576040517f08c379a0000000000000000000000000000000000000000000000000000000008152600401610f5090611e39565b60405180910390fd5b8181036000808673ffffffffffffffffffffffffffffffffffffffff1673ffffffffffffffffffffffffffffffffffffffff16815260200190815260200160002081905550816000808573ffffffffffffffffffffffffffffffffffffffff1673ffffffffffffffffffffffffffffffffffffffff168152602001908152602001600020600082825401925050819055508273ffffffffffffffffffffffffffffffffffffffff168473ffffffffffffffffffffffffffffffffffffffff167fddf252ad1be2c89b69c2b068fc378daa952ba7f163c4a11628f55a4df523b3ef84604051611047919061155d565b60405180910390a361105a848484611388565b50505050565b600073ffffffffffffffffffffffffffffffffffffffff168273ffffffffffffffffffffffffffffffffffffffff16036110cf576040517f08c379a00000000000000000000000000000000000000000000000000000000081526004016110c690611ea5565b60405180910390fd5b6110db60008383611383565b80600260008282546110ed919061177e565b92505081905550806000808473ffffffffffffffffffffffffffffffffffffffff1673ffffffffffffffffffffffffffffffffffffffff168152602001908152602001600020600082825401925050819055508173ffffffffffffffffffffffffffffffffffffffff16600073ffffffffffffffffffffffffffffffffffffffff167fddf252ad1be2c89b69c2b068fc378daa952ba7f163c4a11628f55a4df523b3ef8360405161119e919061155d565b60405180910390a36111b260008383611388565b5050565b600073ffffffffffffffffffffffffffffffffffffffff168273ffffffffffffffffffffffffffffffffffffffff1603611225576040517f08c379a000000000000000000000000000000000000000000000000000000000815260040161121c90611f37565b60405180910390fd5b61123182600083611383565b60008060008473ffffffffffffffffffffffffffffffffffffffff1673ffffffffffffffffffffffffffffffffffffffff168152602001908152602001600020549050818110156112b7576040517f08c379a00000000000000000000000000000000000000000000000000000000081526004016112ae90611fc9565b60405180910390fd5b8181036000808573ffffffffffffffffffffffffffffffffffffffff1673ffffffffffffffffffffffffffffffffffffffff1681526020019081526020016000208190555081600260008282540392505081905550600073ffffffffffffffffffffffffffffffffffffffff168373ffffffffffffffffffffffffffffffffffffffff167fddf252ad1be2c89b69c2b068fc378daa952ba7f163c4a11628f55a4df523b3ef8460405161136a919061155d565b60405180910390a361137e83600084611388565b505050565b505050565b505050565b600081519050919050565b600082825260208201905092915050565b60005b838110156113c75780820151818401526020810190506113ac565b60008484015250505050565b6000601f19601f8301169050919050565b60006113ef8261138d565b6113f98185611398565b93506114098185602086016113a9565b611412816113d3565b840191505092915050565b6000602082019050818103600083015261143781846113e4565b905092915050565b600080fd5b600073ffffffffffffffffffffffffffffffffffffffff82169050919050565b600061146f82611444565b9050919050565b61147f81611464565b811461148a57600080fd5b50565b60008135905061149c81611476565b92915050565b6000819050919050565b6114b5816114a2565b81146114c057600080fd5b50565b6000813590506114d2816114ac565b92915050565b600080604083850312156114ef576114ee61143f565b5b60006114fd8582860161148d565b925050602061150e858286016114c3565b9150509250929050565b60008115159050919050565b61152d81611518565b82525050565b60006020820190506115486000830184611524565b92915050565b611557816114a2565b82525050565b6000602082019050611572600083018461154e565b92915050565b6000806000606084860312156115915761159061143f565b5b600061159f8682870161148d565b93505060206115b08682870161148d565b92505060406115c1868287016114c3565b9150509250925092565b600060ff82169050919050565b6115e1816115cb565b82525050565b60006020820190506115fc60008301846115d8565b92915050565b6000602082840312156116185761161761143f565b5b6000611626848285016114c3565b91505092915050565b6000602082840312156116455761164461143f565b5b60006116538482850161148d565b91505092915050565b6000604082019050611671600083018561154e565b61167e602083018461154e565b9392505050565b61168e81611464565b82525050565b60006020820190506116a96000830184611685565b92915050565b600080604083850312156116c6576116c561143f565b5b60006116d48582860161148d565b92505060206116e58582860161148d565b9150509250929050565b7f4e487b7100000000000000000000000000000000000000000000000000000000600052602260045260246000fd5b6000600282049050600182168061173657607f821691505b602082108103611749576117486116ef565b5b50919050565b7f4e487b7100000000000000000000000000000000000000000000000000000000600052601160045260246000fd5b6000611789826114a2565b9150611794836114a2565b92508282019050808211156117ac576117ab61174f565b5b92915050565b60006060820190506117c76000830186611685565b6117d46020830185611685565b6117e1604083018461154e565b949350505050565b6117f281611518565b81146117fd57600080fd5b50565b60008151905061180f816117e9565b92915050565b60006020828403121561182b5761182a61143f565b5b600061183984828501611800565b91505092915050565b600061184d826114a2565b9150611858836114a2565b92508282039050818111156118705761186f61174f565b5b92915050565b6000611881826114a2565b915061188c836114a2565b925082820261189a816114a2565b915082820484148315176118b1576118b061174f565b5b5092915050565b7f4e487b7100000000000000000000000000000000000000000000000000000000600052601260045260246000fd5b60006118f2826114a2565b91506118fd836114a2565b92508261190d5761190c6118b8565b5b828204905092915050565b7f416d6f756e74206f6620746f6b656e73206973206c657373207468616e20746860008201527f65206d696e696d756d2072657175697265642e00000000000000000000000000602082015250565b6000611974603383611398565b915061197f82611918565b604082019050919050565b600060208201905081810360008301526119a381611967565b9050919050565b6000815190506119b9816114ac565b92915050565b6000602082840312156119d5576119d461143f565b5b60006119e3848285016119aa565b91505092915050565b7f416d6f756e74206d75737420626520677265617465207468616e207a65726f2e600082015250565b6000611a22602083611398565b9150611a2d826119ec565b602082019050919050565b60006020820190508181036000830152611a5181611a15565b9050919050565b6000604082019050611a6d6000830185611685565b611a7a602083018461154e565b9392505050565b7f45524332303a2064656372656173656420616c6c6f77616e63652062656c6f7760008201527f207a65726f000000000000000000000000000000000000000000000000000000602082015250565b6000611add602583611398565b9150611ae882611a81565b604082019050919050565b60006020820190508181036000830152611b0c81611ad0565b9050919050565b7f45524332303a20617070726f76652066726f6d20746865207a65726f2061646460008201527f7265737300000000000000000000000000000000000000000000000000000000602082015250565b6000611b6f602483611398565b9150611b7a82611b13565b604082019050919050565b60006020820190508181036000830152611b9e81611b62565b9050919050565b7f45524332303a20617070726f766520746f20746865207a65726f20616464726560008201527f7373000000000000000000000000000000000000000000000000000000000000602082015250565b6000611c01602283611398565b9150611c0c82611ba5565b604082019050919050565b60006020820190508181036000830152611c3081611bf4565b9050919050565b7f45524332303a20696e73756666696369656e7420616c6c6f77616e6365000000600082015250565b6000611c6d601d83611398565b9150611c7882611c37565b602082019050919050565b60006020820190508181036000830152611c9c81611c60565b9050919050565b7f45524332303a207472616e736665722066726f6d20746865207a65726f20616460008201527f6472657373000000000000000000000000000000000000000000000000000000602082015250565b6000611cff602583611398565b9150611d0a82611ca3565b604082019050919050565b60006020820190508181036000830152611d2e81611cf2565b9050919050565b7f45524332303a207472616e7366657220746f20746865207a65726f206164647260008201527f6573730000000000000000000000000000000000000000000000000000000000602082015250565b6000611d91602383611398565b9150611d9c82611d35565b604082019050919050565b60006020820190508181036000830152611dc081611d84565b9050919050565b7f45524332303a207472616e7366657220616d6f756e742065786365656473206260008201527f616c616e63650000000000000000000000000000000000000000000000000000602082015250565b6000611e23602683611398565b9150611e2e82611dc7565b604082019050919050565b60006020820190508181036000830152611e5281611e16565b9050919050565b7f45524332303a206d696e7420746f20746865207a65726f206164647265737300600082015250565b6000611e8f601f83611398565b9150611e9a82611e59565b602082019050919050565b60006020820190508181036000830152611ebe81611e82565b9050919050565b7f45524332303a206275726e2066726f6d20746865207a65726f2061646472657360008201527f7300000000000000000000000000000000000000000000000000000000000000602082015250565b6000611f21602183611398565b9150611f2c82611ec5565b604082019050919050565b60006020820190508181036000830152611f5081611f14565b9050919050565b7f45524332303a206275726e20616d6f756e7420657863656564732062616c616e60008201527f6365000000000000000000000000000000000000000000000000000000000000602082015250565b6000611fb3602283611398565b9150611fbe82611f57565b604082019050919050565b60006020820190508181036000830152611fe281611fa6565b905091905056fea26469706673582212203b0d7b14c3f3ef1cb7092b68ae79203ad0574adaa418375633fb6a6d6f61ab6c64736f6c63430008120033","opcodes":"PUSH1 0x80 PUSH1 0x40 MSTORE CALLVALUE DUP1 ISZERO PUSH3 0x11 JUMPI PUSH1 0x0 DUP1 REVERT JUMPDEST POP PUSH1 0x40 MLOAD PUSH3 0x2632 CODESIZE SUB DUP1 PUSH3 0x2632 DUP4 CODECOPY DUP2 DUP2 ADD PUSH1 0x40 MSTORE DUP2 ADD SWAP1 PUSH3 0x37 SWAP2 SWAP1 PUSH3 0x1ED JUMP JUMPDEST PUSH1 0x40 MLOAD DUP1 PUSH1 0x40 ADD PUSH1 0x40 MSTORE DUP1 PUSH1 0x16 DUP2 MSTORE PUSH1 0x20 ADD PUSH32 0x4F6E6520436F6D6D756E697479204C5020546F6B656E00000000000000000000 DUP2 MSTORE POP PUSH1 0x40 MLOAD DUP1 PUSH1 0x40 ADD PUSH1 0x40 MSTORE DUP1 PUSH1 0x4 DUP2 MSTORE PUSH1 0x20 ADD PUSH32 0x4F434C5000000000000000000000000000000000000000000000000000000000 DUP2 MSTORE POP DUP2 PUSH1 0x3 SWAP1 DUP2 PUSH3 0xB4 SWAP2 SWAP1 PUSH3 0x499 JUMP JUMPDEST POP DUP1 PUSH1 0x4 SWAP1 DUP2 PUSH3 0xC6 SWAP2 SWAP1 PUSH3 0x499 JUMP JUMPDEST POP POP POP PUSH1 0x0 PUSH20 0xFFFFFFFFFFFFFFFFFFFFFFFFFFFFFFFFFFFFFFFF AND DUP2 PUSH20 0xFFFFFFFFFFFFFFFFFFFFFFFFFFFFFFFFFFFFFFFF AND SUB PUSH3 0x13B JUMPI PUSH1 0x40 MLOAD PUSH32 0x8C379A000000000000000000000000000000000000000000000000000000000 DUP2 MSTORE PUSH1 0x4 ADD PUSH3 0x132 SWAP1 PUSH3 0x5E1 JUMP JUMPDEST PUSH1 0x40 MLOAD DUP1 SWAP2 SUB SWAP1 REVERT JUMPDEST DUP1 PUSH1 0x5 PUSH1 0x0 PUSH2 0x100 EXP DUP2 SLOAD DUP2 PUSH20 0xFFFFFFFFFFFFFFFFFFFFFFFFFFFFFFFFFFFFFFFF MUL NOT AND SWAP1 DUP4 PUSH20 0xFFFFFFFFFFFFFFFFFFFFFFFFFFFFFFFFFFFFFFFF AND MUL OR SWAP1 SSTORE POP POP PUSH3 0x603 JUMP JUMPDEST PUSH1 0x0 DUP1 REVERT JUMPDEST PUSH1 0x0 PUSH20 0xFFFFFFFFFFFFFFFFFFFFFFFFFFFFFFFFFFFFFFFF DUP3 AND SWAP1 POP SWAP2 SWAP1 POP JUMP JUMPDEST PUSH1 0x0 PUSH3 0x1B5 DUP3 PUSH3 0x188 JUMP JUMPDEST SWAP1 POP SWAP2 SWAP1 POP JUMP JUMPDEST PUSH3 0x1C7 DUP2 PUSH3 0x1A8 JUMP JUMPDEST DUP2 EQ PUSH3 0x1D3 JUMPI PUSH1 0x0 DUP1 REVERT JUMPDEST POP JUMP JUMPDEST PUSH1 0x0 DUP2 MLOAD SWAP1 POP PUSH3 0x1E7 DUP2 PUSH3 0x1BC JUMP JUMPDEST SWAP3 SWAP2 POP POP JUMP JUMPDEST PUSH1 0x0 PUSH1 0x20 DUP3 DUP5 SUB SLT ISZERO PUSH3 0x206 JUMPI PUSH3 0x205 PUSH3 0x183 JUMP JUMPDEST JUMPDEST PUSH1 0x0 PUSH3 0x216 DUP5 DUP3 DUP6 ADD PUSH3 0x1D6 JUMP JUMPDEST SWAP2 POP POP SWAP3 SWAP2 POP POP JUMP JUMPDEST PUSH1 0x0 DUP2 MLOAD SWAP1 POP SWAP2 SWAP1 POP JUMP JUMPDEST PUSH32 0x4E487B7100000000000000000000000000000000000000000000000000000000 PUSH1 0x0 MSTORE PUSH1 0x41 PUSH1 0x4 MSTORE PUSH1 0x24 PUSH1 0x0 REVERT JUMPDEST PUSH32 0x4E487B7100000000000000000000000000000000000000000000000000000000 PUSH1 0x0 MSTORE PUSH1 0x22 PUSH1 0x4 MSTORE PUSH1 0x24 PUSH1 0x0 REVERT JUMPDEST PUSH1 0x0 PUSH1 0x2 DUP3 DIV SWAP1 POP PUSH1 0x1 DUP3 AND DUP1 PUSH3 0x2A1 JUMPI PUSH1 0x7F DUP3 AND SWAP2 POP JUMPDEST PUSH1 0x20 DUP3 LT DUP2 SUB PUSH3 0x2B7 JUMPI PUSH3 0x2B6 PUSH3 0x259 JUMP JUMPDEST JUMPDEST POP SWAP2 SWAP1 POP JUMP JUMPDEST PUSH1 0x0 DUP2 SWAP1 POP DUP2 PUSH1 0x0 MSTORE PUSH1 0x20 PUSH1 0x0 KECCAK256 SWAP1 POP SWAP2 SWAP1 POP JUMP JUMPDEST PUSH1 0x0 PUSH1 0x20 PUSH1 0x1F DUP4 ADD DIV SWAP1 POP SWAP2 SWAP1 POP JUMP JUMPDEST PUSH1 0x0 DUP3 DUP3 SHL SWAP1 POP SWAP3 SWAP2 POP POP JUMP JUMPDEST PUSH1 0x0 PUSH1 0x8 DUP4 MUL PUSH3 0x321 PUSH32 0xFFFFFFFFFFFFFFFFFFFFFFFFFFFFFFFFFFFFFFFFFFFFFFFFFFFFFFFFFFFFFFFF DUP3 PUSH3 0x2E2 JUMP JUMPDEST PUSH3 0x32D DUP7 DUP4 PUSH3 0x2E2 JUMP JUMPDEST SWAP6 POP DUP1 NOT DUP5 AND SWAP4 POP DUP1 DUP7 AND DUP5 OR SWAP3 POP POP POP SWAP4 SWAP3 POP POP POP JUMP JUMPDEST PUSH1 0x0 DUP2 SWAP1 POP SWAP2 SWAP1 POP JUMP JUMPDEST PUSH1 0x0 DUP2 SWAP1 POP SWAP2 SWAP1 POP JUMP JUMPDEST PUSH1 0x0 PUSH3 0x37A PUSH3 0x374 PUSH3 0x36E DUP5 PUSH3 0x345 JUMP JUMPDEST PUSH3 0x34F JUMP JUMPDEST PUSH3 0x345 JUMP JUMPDEST SWAP1 POP SWAP2 SWAP1 POP JUMP JUMPDEST PUSH1 0x0 DUP2 SWAP1 POP SWAP2 SWAP1 POP JUMP JUMPDEST PUSH3 0x396 DUP4 PUSH3 0x359 JUMP JUMPDEST PUSH3 0x3AE PUSH3 0x3A5 DUP3 PUSH3 0x381 JUMP JUMPDEST DUP5 DUP5 SLOAD PUSH3 0x2EF JUMP JUMPDEST DUP3 SSTORE POP POP POP POP JUMP JUMPDEST PUSH1 0x0 SWAP1 JUMP JUMPDEST PUSH3 0x3C5 PUSH3 0x3B6 JUMP JUMPDEST PUSH3 0x3D2 DUP2 DUP5 DUP5 PUSH3 0x38B JUMP JUMPDEST POP POP POP JUMP JUMPDEST JUMPDEST DUP2 DUP2 LT ISZERO PUSH3 0x3FA JUMPI PUSH3 0x3EE PUSH1 0x0 DUP3 PUSH3 0x3BB JUMP JUMPDEST PUSH1 0x1 DUP2 ADD SWAP1 POP PUSH3 0x3D8 JUMP JUMPDEST POP POP JUMP JUMPDEST PUSH1 0x1F DUP3 GT ISZERO PUSH3 0x449 JUMPI PUSH3 0x413 DUP2 PUSH3 0x2BD JUMP JUMPDEST PUSH3 0x41E DUP5 PUSH3 0x2D2 JUMP JUMPDEST DUP2 ADD PUSH1 0x20 DUP6 LT ISZERO PUSH3 0x42E JUMPI DUP2 SWAP1 POP JUMPDEST PUSH3 0x446 PUSH3 0x43D DUP6 PUSH3 0x2D2 JUMP JUMPDEST DUP4 ADD DUP3 PUSH3 0x3D7 JUMP JUMPDEST POP POP JUMPDEST POP POP POP JUMP JUMPDEST PUSH1 0x0 DUP3 DUP3 SHR SWAP1 POP SWAP3 SWAP2 POP POP JUMP JUMPDEST PUSH1 0x0 PUSH3 0x46E PUSH1 0x0 NOT DUP5 PUSH1 0x8 MUL PUSH3 0x44E JUMP JUMPDEST NOT DUP1 DUP4 AND SWAP2 POP POP SWAP3 SWAP2 POP POP JUMP JUMPDEST PUSH1 0x0 PUSH3 0x489 DUP4 DUP4 PUSH3 0x45B JUMP JUMPDEST SWAP2 POP DUP3 PUSH1 0x2 MUL DUP3 OR SWAP1 POP SWAP3 SWAP2 POP POP JUMP JUMPDEST PUSH3 0x4A4 DUP3 PUSH3 0x21F JUMP JUMPDEST PUSH8 0xFFFFFFFFFFFFFFFF DUP2 GT ISZERO PUSH3 0x4C0 JUMPI PUSH3 0x4BF PUSH3 0x22A JUMP JUMPDEST JUMPDEST PUSH3 0x4CC DUP3 SLOAD PUSH3 0x288 JUMP JUMPDEST PUSH3 0x4D9 DUP3 DUP3 DUP6 PUSH3 0x3FE JUMP JUMPDEST PUSH1 0x0 PUSH1 0x20 SWAP1 POP PUSH1 0x1F DUP4 GT PUSH1 0x1 DUP2 EQ PUSH3 0x511 JUMPI PUSH1 0x0 DUP5 ISZERO PUSH3 0x4FC JUMPI DUP3 DUP8 ADD MLOAD SWAP1 POP JUMPDEST PUSH3 0x508 DUP6 DUP3 PUSH3 0x47B JUMP JUMPDEST DUP7 SSTORE POP PUSH3 0x578 JUMP JUMPDEST PUSH1 0x1F NOT DUP5 AND PUSH3 0x521 DUP7 PUSH3 0x2BD JUMP JUMPDEST PUSH1 0x0 JUMPDEST DUP3 DUP2 LT ISZERO PUSH3 0x54B JUMPI DUP5 DUP10 ADD MLOAD DUP3 SSTORE PUSH1 0x1 DUP3 ADD SWAP2 POP PUSH1 0x20 DUP6 ADD SWAP5 POP PUSH1 0x20 DUP2 ADD SWAP1 POP PUSH3 0x524 JUMP JUMPDEST DUP7 DUP4 LT ISZERO PUSH3 0x56B JUMPI DUP5 DUP10 ADD MLOAD PUSH3 0x567 PUSH1 0x1F DUP10 AND DUP3 PUSH3 0x45B JUMP JUMPDEST DUP4 SSTORE POP JUMPDEST PUSH1 0x1 PUSH1 0x2 DUP9 MUL ADD DUP9 SSTORE POP POP POP JUMPDEST POP POP POP POP POP POP JUMP JUMPDEST PUSH1 0x0 DUP3 DUP3 MSTORE PUSH1 0x20 DUP3 ADD SWAP1 POP SWAP3 SWAP2 POP POP JUMP JUMPDEST PUSH32 0x43616E6E6F742062652061646472657373207A65726F2E000000000000000000 PUSH1 0x0 DUP3 ADD MSTORE POP JUMP JUMPDEST PUSH1 0x0 PUSH3 0x5C9 PUSH1 0x17 DUP4 PUSH3 0x580 JUMP JUMPDEST SWAP2 POP PUSH3 0x5D6 DUP3 PUSH3 0x591 JUMP JUMPDEST PUSH1 0x20 DUP3 ADD SWAP1 POP SWAP2 SWAP1 POP JUMP JUMPDEST PUSH1 0x0 PUSH1 0x20 DUP3 ADD SWAP1 POP DUP2 DUP2 SUB PUSH1 0x0 DUP4 ADD MSTORE PUSH3 0x5FC DUP2 PUSH3 0x5BA JUMP JUMPDEST SWAP1 POP SWAP2 SWAP1 POP JUMP JUMPDEST PUSH2 0x201F DUP1 PUSH3 0x613 PUSH1 0x0 CODECOPY PUSH1 0x0 RETURN INVALID PUSH1 0x80 PUSH1 0x40 MSTORE PUSH1 0x4 CALLDATASIZE LT PUSH2 0xE8 JUMPI PUSH1 0x0 CALLDATALOAD PUSH1 0xE0 SHR DUP1 PUSH4 0x59BF5D39 GT PUSH2 0x8A JUMPI DUP1 PUSH4 0x9D76EA58 GT PUSH2 0x59 JUMPI DUP1 PUSH4 0x9D76EA58 EQ PUSH2 0x326 JUMPI DUP1 PUSH4 0xA457C2D7 EQ PUSH2 0x351 JUMPI DUP1 PUSH4 0xA9059CBB EQ PUSH2 0x38E JUMPI DUP1 PUSH4 0xDD62ED3E EQ PUSH2 0x3CB JUMPI PUSH2 0xE8 JUMP JUMPDEST DUP1 PUSH4 0x59BF5D39 EQ PUSH2 0x255 JUMPI DUP1 PUSH4 0x70A08231 EQ PUSH2 0x280 JUMPI DUP1 PUSH4 0x95D89B41 EQ PUSH2 0x2BD JUMPI DUP1 PUSH4 0x9C8F9F23 EQ PUSH2 0x2E8 JUMPI PUSH2 0xE8 JUMP JUMPDEST DUP1 PUSH4 0x23B872DD GT PUSH2 0xC6 JUMPI DUP1 PUSH4 0x23B872DD EQ PUSH2 0x180 JUMPI DUP1 PUSH4 0x313CE567 EQ PUSH2 0x1BD JUMPI DUP1 PUSH4 0x39509351 EQ PUSH2 0x1E8 JUMPI DUP1 PUSH4 0x51C6590A EQ PUSH2 0x225 JUMPI PUSH2 0xE8 JUMP JUMPDEST DUP1 PUSH4 0x6FDDE03 EQ PUSH2 0xED JUMPI DUP1 PUSH4 0x95EA7B3 EQ PUSH2 0x118 JUMPI DUP1 PUSH4 0x18160DDD EQ PUSH2 0x155 JUMPI JUMPDEST PUSH1 0x0 DUP1 REVERT JUMPDEST CALLVALUE DUP1 ISZERO PUSH2 0xF9 JUMPI PUSH1 0x0 DUP1 REVERT JUMPDEST POP PUSH2 0x102 PUSH2 0x408 JUMP JUMPDEST PUSH1 0x40 MLOAD PUSH2 0x10F SWAP2 SWAP1 PUSH2 0x141D JUMP JUMPDEST PUSH1 0x40 MLOAD DUP1 SWAP2 SUB SWAP1 RETURN JUMPDEST CALLVALUE DUP1 ISZERO PUSH2 0x124 JUMPI PUSH1 0x0 DUP1 REVERT JUMPDEST POP PUSH2 0x13F PUSH1 0x4 DUP1 CALLDATASIZE SUB DUP2 ADD SWAP1 PUSH2 0x13A SWAP2 SWAP1 PUSH2 0x14D8 JUMP JUMPDEST PUSH2 0x49A JUMP JUMPDEST PUSH1 0x40 MLOAD PUSH2 0x14C SWAP2 SWAP1 PUSH2 0x1533 JUMP JUMPDEST PUSH1 0x40 MLOAD DUP1 SWAP2 SUB SWAP1 RETURN JUMPDEST CALLVALUE DUP1 ISZERO PUSH2 0x161 JUMPI PUSH1 0x0 DUP1 REVERT JUMPDEST POP PUSH2 0x16A PUSH2 0x4BD JUMP JUMPDEST PUSH1 0x40 MLOAD PUSH2 0x177 SWAP2 SWAP1 PUSH2 0x155D JUMP JUMPDEST PUSH1 0x40 MLOAD DUP1 SWAP2 SUB SWAP1 RETURN JUMPDEST CALLVALUE DUP1 ISZERO PUSH2 0x18C JUMPI PUSH1 0x0 DUP1 REVERT JUMPDEST POP PUSH2 0x1A7 PUSH1 0x4 DUP1 CALLDATASIZE SUB DUP2 ADD SWAP1 PUSH2 0x1A2 SWAP2 SWAP1 PUSH2 0x1578 JUMP JUMPDEST PUSH2 0x4C7 JUMP JUMPDEST PUSH1 0x40 MLOAD PUSH2 0x1B4 SWAP2 SWAP1 PUSH2 0x1533 JUMP JUMPDEST PUSH1 0x40 MLOAD DUP1 SWAP2 SUB SWAP1 RETURN JUMPDEST CALLVALUE DUP1 ISZERO PUSH2 0x1C9 JUMPI PUSH1 0x0 DUP1 REVERT JUMPDEST POP PUSH2 0x1D2 PUSH2 0x4F6 JUMP JUMPDEST PUSH1 0x40 MLOAD PUSH2 0x1DF SWAP2 SWAP1 PUSH2 0x15E7 JUMP JUMPDEST PUSH1 0x40 MLOAD DUP1 SWAP2 SUB SWAP1 RETURN JUMPDEST CALLVALUE DUP1 ISZERO PUSH2 0x1F4 JUMPI PUSH1 0x0 DUP1 REVERT JUMPDEST POP PUSH2 0x20F PUSH1 0x4 DUP1 CALLDATASIZE SUB DUP2 ADD SWAP1 PUSH2 0x20A SWAP2 SWAP1 PUSH2 0x14D8 JUMP JUMPDEST PUSH2 0x4FF JUMP JUMPDEST PUSH1 0x40 MLOAD PUSH2 0x21C SWAP2 SWAP1 PUSH2 0x1533 JUMP JUMPDEST PUSH1 0x40 MLOAD DUP1 SWAP2 SUB SWAP1 RETURN JUMPDEST PUSH2 0x23F PUSH1 0x4 DUP1 CALLDATASIZE SUB DUP2 ADD SWAP1 PUSH2 0x23A SWAP2 SWAP1 PUSH2 0x1602 JUMP JUMPDEST PUSH2 0x536 JUMP JUMPDEST PUSH1 0x40 MLOAD PUSH2 0x24C SWAP2 SWAP1 PUSH2 0x155D JUMP JUMPDEST PUSH1 0x40 MLOAD DUP1 SWAP2 SUB SWAP1 RETURN JUMPDEST CALLVALUE DUP1 ISZERO PUSH2 0x261 JUMPI PUSH1 0x0 DUP1 REVERT JUMPDEST POP PUSH2 0x26A PUSH2 0x734 JUMP JUMPDEST PUSH1 0x40 MLOAD PUSH2 0x277 SWAP2 SWAP1 PUSH2 0x155D JUMP JUMPDEST PUSH1 0x40 MLOAD DUP1 SWAP2 SUB SWAP1 RETURN JUMPDEST CALLVALUE DUP1 ISZERO PUSH2 0x28C JUMPI PUSH1 0x0 DUP1 REVERT JUMPDEST POP PUSH2 0x2A7 PUSH1 0x4 DUP1 CALLDATASIZE SUB DUP2 ADD SWAP1 PUSH2 0x2A2 SWAP2 SWAP1 PUSH2 0x162F JUMP JUMPDEST PUSH2 0x7D7 JUMP JUMPDEST PUSH1 0x40 MLOAD PUSH2 0x2B4 SWAP2 SWAP1 PUSH2 0x155D JUMP JUMPDEST PUSH1 0x40 MLOAD DUP1 SWAP2 SUB SWAP1 RETURN JUMPDEST CALLVALUE DUP1 ISZERO PUSH2 0x2C9 JUMPI PUSH1 0x0 DUP1 REVERT JUMPDEST POP PUSH2 0x2D2 PUSH2 0x81F JUMP JUMPDEST PUSH1 0x40 MLOAD PUSH2 0x2DF SWAP2 SWAP1 PUSH2 0x141D JUMP JUMPDEST PUSH1 0x40 MLOAD DUP1 SWAP2 SUB SWAP1 RETURN JUMPDEST CALLVALUE DUP1 ISZERO PUSH2 0x2F4 JUMPI PUSH1 0x0 DUP1 REVERT JUMPDEST POP PUSH2 0x30F PUSH1 0x4 DUP1 CALLDATASIZE SUB DUP2 ADD SWAP1 PUSH2 0x30A SWAP2 SWAP1 PUSH2 0x1602 JUMP JUMPDEST PUSH2 0x8B1 JUMP JUMPDEST PUSH1 0x40 MLOAD PUSH2 0x31D SWAP3 SWAP2 SWAP1 PUSH2 0x165C JUMP JUMPDEST PUSH1 0x40 MLOAD DUP1 SWAP2 SUB SWAP1 RETURN JUMPDEST CALLVALUE DUP1 ISZERO PUSH2 0x332 JUMPI PUSH1 0x0 DUP1 REVERT JUMPDEST POP PUSH2 0x33B PUSH2 0xA46 JUMP JUMPDEST PUSH1 0x40 MLOAD PUSH2 0x348 SWAP2 SWAP1 PUSH2 0x1694 JUMP JUMPDEST PUSH1 0x40 MLOAD DUP1 SWAP2 SUB SWAP1 RETURN JUMPDEST CALLVALUE DUP1 ISZERO PUSH2 0x35D JUMPI PUSH1 0x0 DUP1 REVERT JUMPDEST POP PUSH2 0x378 PUSH1 0x4 DUP1 CALLDATASIZE SUB DUP2 ADD SWAP1 PUSH2 0x373 SWAP2 SWAP1 PUSH2 0x14D8 JUMP JUMPDEST PUSH2 0xA6C JUMP JUMPDEST PUSH1 0x40 MLOAD PUSH2 0x385 SWAP2 SWAP1 PUSH2 0x1533 JUMP JUMPDEST PUSH1 0x40 MLOAD DUP1 SWAP2 SUB SWAP1 RETURN JUMPDEST CALLVALUE DUP1 ISZERO PUSH2 0x39A JUMPI PUSH1 0x0 DUP1 REVERT JUMPDEST POP PUSH2 0x3B5 PUSH1 0x4 DUP1 CALLDATASIZE SUB DUP2 ADD SWAP1 PUSH2 0x3B0 SWAP2 SWAP1 PUSH2 0x14D8 JUMP JUMPDEST PUSH2 0xAE3 JUMP JUMPDEST PUSH1 0x40 MLOAD PUSH2 0x3C2 SWAP2 SWAP1 PUSH2 0x1533 JUMP JUMPDEST PUSH1 0x40 MLOAD DUP1 SWAP2 SUB SWAP1 RETURN JUMPDEST CALLVALUE DUP1 ISZERO PUSH2 0x3D7 JUMPI PUSH1 0x0 DUP1 REVERT JUMPDEST POP PUSH2 0x3F2 PUSH1 0x4 DUP1 CALLDATASIZE SUB DUP2 ADD SWAP1 PUSH2 0x3ED SWAP2 SWAP1 PUSH2 0x16AF JUMP JUMPDEST PUSH2 0xB06 JUMP JUMPDEST PUSH1 0x40 MLOAD PUSH2 0x3FF SWAP2 SWAP1 PUSH2 0x155D JUMP JUMPDEST PUSH1 0x40 MLOAD DUP1 SWAP2 SUB SWAP1 RETURN JUMPDEST PUSH1 0x60 PUSH1 0x3 DUP1 SLOAD PUSH2 0x417 SWAP1 PUSH2 0x171E JUMP JUMPDEST DUP1 PUSH1 0x1F ADD PUSH1 0x20 DUP1 SWAP2 DIV MUL PUSH1 0x20 ADD PUSH1 0x40 MLOAD SWAP1 DUP2 ADD PUSH1 0x40 MSTORE DUP1 SWAP3 SWAP2 SWAP1 DUP2 DUP2 MSTORE PUSH1 0x20 ADD DUP3 DUP1 SLOAD PUSH2 0x443 SWAP1 PUSH2 0x171E JUMP JUMPDEST DUP1 ISZERO PUSH2 0x490 JUMPI DUP1 PUSH1 0x1F LT PUSH2 0x465 JUMPI PUSH2 0x100 DUP1 DUP4 SLOAD DIV MUL DUP4 MSTORE SWAP2 PUSH1 0x20 ADD SWAP2 PUSH2 0x490 JUMP JUMPDEST DUP3 ADD SWAP2 SWAP1 PUSH1 0x0 MSTORE PUSH1 0x20 PUSH1 0x0 KECCAK256 SWAP1 JUMPDEST DUP2 SLOAD DUP2 MSTORE SWAP1 PUSH1 0x1 ADD SWAP1 PUSH1 0x20 ADD DUP1 DUP4 GT PUSH2 0x473 JUMPI DUP3 SWAP1 SUB PUSH1 0x1F AND DUP3 ADD SWAP2 JUMPDEST POP POP POP POP POP SWAP1 POP SWAP1 JUMP JUMPDEST PUSH1 0x0 DUP1 PUSH2 0x4A5 PUSH2 0xB8D JUMP JUMPDEST SWAP1 POP PUSH2 0x4B2 DUP2 DUP6 DUP6 PUSH2 0xB95 JUMP JUMPDEST PUSH1 0x1 SWAP2 POP POP SWAP3 SWAP2 POP POP JUMP JUMPDEST PUSH1 0x0 PUSH1 0x2 SLOAD SWAP1 POP SWAP1 JUMP JUMPDEST PUSH1 0x0 DUP1 PUSH2 0x4D2 PUSH2 0xB8D JUMP JUMPDEST SWAP1 POP PUSH2 0x4DF DUP6 DUP3 DUP6 PUSH2 0xD5E JUMP JUMPDEST PUSH2 0x4EA DUP6 DUP6 DUP6 PUSH2 0xDEA JUMP JUMPDEST PUSH1 0x1 SWAP2 POP POP SWAP4 SWAP3 POP POP POP JUMP JUMPDEST PUSH1 0x0 PUSH1 0x12 SWAP1 POP SWAP1 JUMP JUMPDEST PUSH1 0x0 DUP1 PUSH2 0x50A PUSH2 0xB8D JUMP JUMPDEST SWAP1 POP PUSH2 0x52B DUP2 DUP6 DUP6 PUSH2 0x51C DUP6 DUP10 PUSH2 0xB06 JUMP JUMPDEST PUSH2 0x526 SWAP2 SWAP1 PUSH2 0x177E JUMP JUMPDEST PUSH2 0xB95 JUMP JUMPDEST PUSH1 0x1 SWAP2 POP POP SWAP3 SWAP2 POP POP JUMP JUMPDEST PUSH1 0x0 DUP1 PUSH1 0x0 SELFBALANCE SWAP1 POP PUSH1 0x0 PUSH2 0x548 PUSH2 0x734 JUMP JUMPDEST SWAP1 POP PUSH1 0x0 PUSH1 0x5 PUSH1 0x0 SWAP1 SLOAD SWAP1 PUSH2 0x100 EXP SWAP1 DIV PUSH20 0xFFFFFFFFFFFFFFFFFFFFFFFFFFFFFFFFFFFFFFFF AND SWAP1 POP PUSH1 0x0 DUP3 SUB PUSH2 0x60C JUMPI DUP1 PUSH20 0xFFFFFFFFFFFFFFFFFFFFFFFFFFFFFFFFFFFFFFFF AND PUSH4 0x23B872DD CALLER ADDRESS DUP10 PUSH1 0x40 MLOAD DUP5 PUSH4 0xFFFFFFFF AND PUSH1 0xE0 SHL DUP2 MSTORE PUSH1 0x4 ADD PUSH2 0x5B6 SWAP4 SWAP3 SWAP2 SWAP1 PUSH2 0x17B2 JUMP JUMPDEST PUSH1 0x20 PUSH1 0x40 MLOAD DUP1 DUP4 SUB DUP2 PUSH1 0x0 DUP8 GAS CALL ISZERO DUP1 ISZERO PUSH2 0x5D5 JUMPI RETURNDATASIZE PUSH1 0x0 DUP1 RETURNDATACOPY RETURNDATASIZE PUSH1 0x0 REVERT JUMPDEST POP POP POP POP PUSH1 0x40 MLOAD RETURNDATASIZE PUSH1 0x1F NOT PUSH1 0x1F DUP3 ADD AND DUP3 ADD DUP1 PUSH1 0x40 MSTORE POP DUP2 ADD SWAP1 PUSH2 0x5F9 SWAP2 SWAP1 PUSH2 0x1815 JUMP JUMPDEST POP DUP3 SWAP4 POP PUSH2 0x607 CALLER DUP6 PUSH2 0x1060 JUMP JUMPDEST PUSH2 0x728 JUMP JUMPDEST PUSH1 0x0 CALLVALUE DUP5 PUSH2 0x61A SWAP2 SWAP1 PUSH2 0x1842 JUMP JUMPDEST SWAP1 POP PUSH1 0x0 DUP2 DUP5 CALLVALUE PUSH2 0x62B SWAP2 SWAP1 PUSH2 0x1876 JUMP JUMPDEST PUSH2 0x635 SWAP2 SWAP1 PUSH2 0x18E7 JUMP JUMPDEST SWAP1 POP DUP1 DUP9 LT ISZERO PUSH2 0x67A JUMPI PUSH1 0x40 MLOAD PUSH32 0x8C379A000000000000000000000000000000000000000000000000000000000 DUP2 MSTORE PUSH1 0x4 ADD PUSH2 0x671 SWAP1 PUSH2 0x198A JUMP JUMPDEST PUSH1 0x40 MLOAD DUP1 SWAP2 SUB SWAP1 REVERT JUMPDEST DUP3 PUSH20 0xFFFFFFFFFFFFFFFFFFFFFFFFFFFFFFFFFFFFFFFF AND PUSH4 0x23B872DD CALLER ADDRESS DUP5 PUSH1 0x40 MLOAD DUP5 PUSH4 0xFFFFFFFF AND PUSH1 0xE0 SHL DUP2 MSTORE PUSH1 0x4 ADD PUSH2 0x6B7 SWAP4 SWAP3 SWAP2 SWAP1 PUSH2 0x17B2 JUMP JUMPDEST PUSH1 0x20 PUSH1 0x40 MLOAD DUP1 DUP4 SUB DUP2 PUSH1 0x0 DUP8 GAS CALL ISZERO DUP1 ISZERO PUSH2 0x6D6 JUMPI RETURNDATASIZE PUSH1 0x0 DUP1 RETURNDATACOPY RETURNDATASIZE PUSH1 0x0 REVERT JUMPDEST POP POP POP POP PUSH1 0x40 MLOAD RETURNDATASIZE PUSH1 0x1F NOT PUSH1 0x1F DUP3 ADD AND DUP3 ADD DUP1 PUSH1 0x40 MSTORE POP DUP2 ADD SWAP1 PUSH2 0x6FA SWAP2 SWAP1 PUSH2 0x1815 JUMP JUMPDEST POP DUP2 CALLVALUE PUSH2 0x705 PUSH2 0x4BD JUMP JUMPDEST PUSH2 0x70F SWAP2 SWAP1 PUSH2 0x1876 JUMP JUMPDEST PUSH2 0x719 SWAP2 SWAP1 PUSH2 0x18E7 JUMP JUMPDEST SWAP6 POP PUSH2 0x725 CALLER DUP8 PUSH2 0x1060 JUMP JUMPDEST POP POP JUMPDEST DUP4 SWAP5 POP POP POP POP POP SWAP2 SWAP1 POP JUMP JUMPDEST PUSH1 0x0 PUSH1 0x5 PUSH1 0x0 SWAP1 SLOAD SWAP1 PUSH2 0x100 EXP SWAP1 DIV PUSH20 0xFFFFFFFFFFFFFFFFFFFFFFFFFFFFFFFFFFFFFFFF AND PUSH20 0xFFFFFFFFFFFFFFFFFFFFFFFFFFFFFFFFFFFFFFFF AND PUSH4 0x70A08231 ADDRESS PUSH1 0x40 MLOAD DUP3 PUSH4 0xFFFFFFFF AND PUSH1 0xE0 SHL DUP2 MSTORE PUSH1 0x4 ADD PUSH2 0x791 SWAP2 SWAP1 PUSH2 0x1694 JUMP JUMPDEST PUSH1 0x20 PUSH1 0x40 MLOAD DUP1 DUP4 SUB DUP2 DUP7 GAS STATICCALL ISZERO DUP1 ISZERO PUSH2 0x7AE JUMPI RETURNDATASIZE PUSH1 0x0 DUP1 RETURNDATACOPY RETURNDATASIZE PUSH1 0x0 REVERT JUMPDEST POP POP POP POP PUSH1 0x40 MLOAD RETURNDATASIZE PUSH1 0x1F NOT PUSH1 0x1F DUP3 ADD AND DUP3 ADD DUP1 PUSH1 0x40 MSTORE POP DUP2 ADD SWAP1 PUSH2 0x7D2 SWAP2 SWAP1 PUSH2 0x19BF JUMP JUMPDEST SWAP1 POP SWAP1 JUMP JUMPDEST PUSH1 0x0 DUP1 PUSH1 0x0 DUP4 PUSH20 0xFFFFFFFFFFFFFFFFFFFFFFFFFFFFFFFFFFFFFFFF AND PUSH20 0xFFFFFFFFFFFFFFFFFFFFFFFFFFFFFFFFFFFFFFFF AND DUP2 MSTORE PUSH1 0x20 ADD SWAP1 DUP2 MSTORE PUSH1 0x20 ADD PUSH1 0x0 KECCAK256 SLOAD SWAP1 POP SWAP2 SWAP1 POP JUMP JUMPDEST PUSH1 0x60 PUSH1 0x4 DUP1 SLOAD PUSH2 0x82E SWAP1 PUSH2 0x171E JUMP JUMPDEST DUP1 PUSH1 0x1F ADD PUSH1 0x20 DUP1 SWAP2 DIV MUL PUSH1 0x20 ADD PUSH1 0x40 MLOAD SWAP1 DUP2 ADD PUSH1 0x40 MSTORE DUP1 SWAP3 SWAP2 SWAP1 DUP2 DUP2 MSTORE PUSH1 0x20 ADD DUP3 DUP1 SLOAD PUSH2 0x85A SWAP1 PUSH2 0x171E JUMP JUMPDEST DUP1 ISZERO PUSH2 0x8A7 JUMPI DUP1 PUSH1 0x1F LT PUSH2 0x87C JUMPI PUSH2 0x100 DUP1 DUP4 SLOAD DIV MUL DUP4 MSTORE SWAP2 PUSH1 0x20 ADD SWAP2 PUSH2 0x8A7 JUMP JUMPDEST DUP3 ADD SWAP2 SWAP1 PUSH1 0x0 MSTORE PUSH1 0x20 PUSH1 0x0 KECCAK256 SWAP1 JUMPDEST DUP2 SLOAD DUP2 MSTORE SWAP1 PUSH1 0x1 ADD SWAP1 PUSH1 0x20 ADD DUP1 DUP4 GT PUSH2 0x88A JUMPI DUP3 SWAP1 SUB PUSH1 0x1F AND DUP3 ADD SWAP2 JUMPDEST POP POP POP POP POP SWAP1 POP SWAP1 JUMP JUMPDEST PUSH1 0x0 DUP1 PUSH1 0x0 DUP4 GT PUSH2 0x8F7 JUMPI PUSH1 0x40 MLOAD PUSH32 0x8C379A000000000000000000000000000000000000000000000000000000000 DUP2 MSTORE PUSH1 0x4 ADD PUSH2 0x8EE SWAP1 PUSH2 0x1A38 JUMP JUMPDEST PUSH1 0x40 MLOAD DUP1 SWAP2 SUB SWAP1 REVERT JUMPDEST PUSH1 0x0 SELFBALANCE SWAP1 POP PUSH1 0x0 PUSH2 0x906 PUSH2 0x4BD JUMP JUMPDEST SWAP1 POP PUSH1 0x0 DUP2 DUP7 DUP5 PUSH2 0x917 SWAP2 SWAP1 PUSH2 0x1876 JUMP JUMPDEST PUSH2 0x921 SWAP2 SWAP1 PUSH2 0x18E7 JUMP JUMPDEST SWAP1 POP PUSH1 0x0 DUP3 DUP8 PUSH2 0x92F PUSH2 0x734 JUMP JUMPDEST PUSH2 0x939 SWAP2 SWAP1 PUSH2 0x1876 JUMP JUMPDEST PUSH2 0x943 SWAP2 SWAP1 PUSH2 0x18E7 JUMP JUMPDEST SWAP1 POP PUSH2 0x94F CALLER DUP9 PUSH2 0x11B6 JUMP JUMPDEST CALLER PUSH20 0xFFFFFFFFFFFFFFFFFFFFFFFFFFFFFFFFFFFFFFFF AND PUSH2 0x8FC DUP4 SWAP1 DUP2 ISZERO MUL SWAP1 PUSH1 0x40 MLOAD PUSH1 0x0 PUSH1 0x40 MLOAD DUP1 DUP4 SUB DUP2 DUP6 DUP9 DUP9 CALL SWAP4 POP POP POP POP ISZERO DUP1 ISZERO PUSH2 0x995 JUMPI RETURNDATASIZE PUSH1 0x0 DUP1 RETURNDATACOPY RETURNDATASIZE PUSH1 0x0 REVERT JUMPDEST POP PUSH1 0x5 PUSH1 0x0 SWAP1 SLOAD SWAP1 PUSH2 0x100 EXP SWAP1 DIV PUSH20 0xFFFFFFFFFFFFFFFFFFFFFFFFFFFFFFFFFFFFFFFF AND PUSH20 0xFFFFFFFFFFFFFFFFFFFFFFFFFFFFFFFFFFFFFFFF AND PUSH4 0xA9059CBB CALLER DUP4 PUSH1 0x40 MLOAD DUP4 PUSH4 0xFFFFFFFF AND PUSH1 0xE0 SHL DUP2 MSTORE PUSH1 0x4 ADD PUSH2 0x9F3 SWAP3 SWAP2 SWAP1 PUSH2 0x1A58 JUMP JUMPDEST PUSH1 0x20 PUSH1 0x40 MLOAD DUP1 DUP4 SUB DUP2 PUSH1 0x0 DUP8 GAS CALL ISZERO DUP1 ISZERO PUSH2 0xA12 JUMPI RETURNDATASIZE PUSH1 0x0 DUP1 RETURNDATACOPY RETURNDATASIZE PUSH1 0x0 REVERT JUMPDEST POP POP POP POP PUSH1 0x40 MLOAD RETURNDATASIZE PUSH1 0x1F NOT PUSH1 0x1F DUP3 ADD AND DUP3 ADD DUP1 PUSH1 0x40 MSTORE POP DUP2 ADD SWAP1 PUSH2 0xA36 SWAP2 SWAP1 PUSH2 0x1815 JUMP JUMPDEST POP DUP2 DUP2 SWAP6 POP SWAP6 POP POP POP POP POP SWAP2 POP SWAP2 JUMP JUMPDEST PUSH1 0x5 PUSH1 0x0 SWAP1 SLOAD SWAP1 PUSH2 0x100 EXP SWAP1 DIV PUSH20 0xFFFFFFFFFFFFFFFFFFFFFFFFFFFFFFFFFFFFFFFF AND DUP2 JUMP JUMPDEST PUSH1 0x0 DUP1 PUSH2 0xA77 PUSH2 0xB8D JUMP JUMPDEST SWAP1 POP PUSH1 0x0 PUSH2 0xA85 DUP3 DUP7 PUSH2 0xB06 JUMP JUMPDEST SWAP1 POP DUP4 DUP2 LT ISZERO PUSH2 0xACA JUMPI PUSH1 0x40 MLOAD PUSH32 0x8C379A000000000000000000000000000000000000000000000000000000000 DUP2 MSTORE PUSH1 0x4 ADD PUSH2 0xAC1 SWAP1 PUSH2 0x1AF3 JUMP JUMPDEST PUSH1 0x40 MLOAD DUP1 SWAP2 SUB SWAP1 REVERT JUMPDEST PUSH2 0xAD7 DUP3 DUP7 DUP7 DUP5 SUB PUSH2 0xB95 JUMP JUMPDEST PUSH1 0x1 SWAP3 POP POP POP SWAP3 SWAP2 POP POP JUMP JUMPDEST PUSH1 0x0 DUP1 PUSH2 0xAEE PUSH2 0xB8D JUMP JUMPDEST SWAP1 POP PUSH2 0xAFB DUP2 DUP6 DUP6 PUSH2 0xDEA JUMP JUMPDEST PUSH1 0x1 SWAP2 POP POP SWAP3 SWAP2 POP POP JUMP JUMPDEST PUSH1 0x0 PUSH1 0x1 PUSH1 0x0 DUP5 PUSH20 0xFFFFFFFFFFFFFFFFFFFFFFFFFFFFFFFFFFFFFFFF AND PUSH20 0xFFFFFFFFFFFFFFFFFFFFFFFFFFFFFFFFFFFFFFFF AND DUP2 MSTORE PUSH1 0x20 ADD SWAP1 DUP2 MSTORE PUSH1 0x20 ADD PUSH1 0x0 KECCAK256 PUSH1 0x0 DUP4 PUSH20 0xFFFFFFFFFFFFFFFFFFFFFFFFFFFFFFFFFFFFFFFF AND PUSH20 0xFFFFFFFFFFFFFFFFFFFFFFFFFFFFFFFFFFFFFFFF AND DUP2 MSTORE PUSH1 0x20 ADD SWAP1 DUP2 MSTORE PUSH1 0x20 ADD PUSH1 0x0 KECCAK256 SLOAD SWAP1 POP SWAP3 SWAP2 POP POP JUMP JUMPDEST PUSH1 0x0 CALLER SWAP1 POP SWAP1 JUMP JUMPDEST PUSH1 0x0 PUSH20 0xFFFFFFFFFFFFFFFFFFFFFFFFFFFFFFFFFFFFFFFF AND DUP4 PUSH20 0xFFFFFFFFFFFFFFFFFFFFFFFFFFFFFFFFFFFFFFFF AND SUB PUSH2 0xC04 JUMPI PUSH1 0x40 MLOAD PUSH32 0x8C379A000000000000000000000000000000000000000000000000000000000 DUP2 MSTORE PUSH1 0x4 ADD PUSH2 0xBFB SWAP1 PUSH2 0x1B85 JUMP JUMPDEST PUSH1 0x40 MLOAD DUP1 SWAP2 SUB SWAP1 REVERT JUMPDEST PUSH1 0x0 PUSH20 0xFFFFFFFFFFFFFFFFFFFFFFFFFFFFFFFFFFFFFFFF AND DUP3 PUSH20 0xFFFFFFFFFFFFFFFFFFFFFFFFFFFFFFFFFFFFFFFF AND SUB PUSH2 0xC73 JUMPI PUSH1 0x40 MLOAD PUSH32 0x8C379A000000000000000000000000000000000000000000000000000000000 DUP2 MSTORE PUSH1 0x4 ADD PUSH2 0xC6A SWAP1 PUSH2 0x1C17 JUMP JUMPDEST PUSH1 0x40 MLOAD DUP1 SWAP2 SUB SWAP1 REVERT JUMPDEST DUP1 PUSH1 0x1 PUSH1 0x0 DUP6 PUSH20 0xFFFFFFFFFFFFFFFFFFFFFFFFFFFFFFFFFFFFFFFF AND PUSH20 0xFFFFFFFFFFFFFFFFFFFFFFFFFFFFFFFFFFFFFFFF AND DUP2 MSTORE PUSH1 0x20 ADD SWAP1 DUP2 MSTORE PUSH1 0x20 ADD PUSH1 0x0 KECCAK256 PUSH1 0x0 DUP5 PUSH20 0xFFFFFFFFFFFFFFFFFFFFFFFFFFFFFFFFFFFFFFFF AND PUSH20 0xFFFFFFFFFFFFFFFFFFFFFFFFFFFFFFFFFFFFFFFF AND DUP2 MSTORE PUSH1 0x20 ADD SWAP1 DUP2 MSTORE PUSH1 0x20 ADD PUSH1 0x0 KECCAK256 DUP2 SWAP1 SSTORE POP DUP2 PUSH20 0xFFFFFFFFFFFFFFFFFFFFFFFFFFFFFFFFFFFFFFFF AND DUP4 PUSH20 0xFFFFFFFFFFFFFFFFFFFFFFFFFFFFFFFFFFFFFFFF AND PUSH32 0x8C5BE1E5EBEC7D5BD14F71427D1E84F3DD0314C0F7B2291E5B200AC8C7C3B925 DUP4 PUSH1 0x40 MLOAD PUSH2 0xD51 SWAP2 SWAP1 PUSH2 0x155D JUMP JUMPDEST PUSH1 0x40 MLOAD DUP1 SWAP2 SUB SWAP1 LOG3 POP POP POP JUMP JUMPDEST PUSH1 0x0 PUSH2 0xD6A DUP5 DUP5 PUSH2 0xB06 JUMP JUMPDEST SWAP1 POP PUSH32 0xFFFFFFFFFFFFFFFFFFFFFFFFFFFFFFFFFFFFFFFFFFFFFFFFFFFFFFFFFFFFFFFF DUP2 EQ PUSH2 0xDE4 JUMPI DUP2 DUP2 LT ISZERO PUSH2 0xDD6 JUMPI PUSH1 0x40 MLOAD PUSH32 0x8C379A000000000000000000000000000000000000000000000000000000000 DUP2 MSTORE PUSH1 0x4 ADD PUSH2 0xDCD SWAP1 PUSH2 0x1C83 JUMP JUMPDEST PUSH1 0x40 MLOAD DUP1 SWAP2 SUB SWAP1 REVERT JUMPDEST PUSH2 0xDE3 DUP5 DUP5 DUP5 DUP5 SUB PUSH2 0xB95 JUMP JUMPDEST JUMPDEST POP POP POP POP JUMP JUMPDEST PUSH1 0x0 PUSH20 0xFFFFFFFFFFFFFFFFFFFFFFFFFFFFFFFFFFFFFFFF AND DUP4 PUSH20 0xFFFFFFFFFFFFFFFFFFFFFFFFFFFFFFFFFFFFFFFF AND SUB PUSH2 0xE59 JUMPI PUSH1 0x40 MLOAD PUSH32 0x8C379A000000000000000000000000000000000000000000000000000000000 DUP2 MSTORE PUSH1 0x4 ADD PUSH2 0xE50 SWAP1 PUSH2 0x1D15 JUMP JUMPDEST PUSH1 0x40 MLOAD DUP1 SWAP2 SUB SWAP1 REVERT JUMPDEST PUSH1 0x0 PUSH20 0xFFFFFFFFFFFFFFFFFFFFFFFFFFFFFFFFFFFFFFFF AND DUP3 PUSH20 0xFFFFFFFFFFFFFFFFFFFFFFFFFFFFFFFFFFFFFFFF AND SUB PUSH2 0xEC8 JUMPI PUSH1 0x40 MLOAD PUSH32 0x8C379A000000000000000000000000000000000000000000000000000000000 DUP2 MSTORE PUSH1 0x4 ADD PUSH2 0xEBF SWAP1 PUSH2 0x1DA7 JUMP JUMPDEST PUSH1 0x40 MLOAD DUP1 SWAP2 SUB SWAP1 REVERT JUMPDEST PUSH2 0xED3 DUP4 DUP4 DUP4 PUSH2 0x1383 JUMP JUMPDEST PUSH1 0x0 DUP1 PUSH1 0x0 DUP6 PUSH20 0xFFFFFFFFFFFFFFFFFFFFFFFFFFFFFFFFFFFFFFFF AND PUSH20 0xFFFFFFFFFFFFFFFFFFFFFFFFFFFFFFFFFFFFFFFF AND DUP2 MSTORE PUSH1 0x20 ADD SWAP1 DUP2 MSTORE PUSH1 0x20 ADD PUSH1 0x0 KECCAK256 SLOAD SWAP1 POP DUP2 DUP2 LT ISZERO PUSH2 0xF59 JUMPI PUSH1 0x40 MLOAD PUSH32 0x8C379A000000000000000000000000000000000000000000000000000000000 DUP2 MSTORE PUSH1 0x4 ADD PUSH2 0xF50 SWAP1 PUSH2 0x1E39 JUMP JUMPDEST PUSH1 0x40 MLOAD DUP1 SWAP2 SUB SWAP1 REVERT JUMPDEST DUP2 DUP2 SUB PUSH1 0x0 DUP1 DUP7 PUSH20 0xFFFFFFFFFFFFFFFFFFFFFFFFFFFFFFFFFFFFFFFF AND PUSH20 0xFFFFFFFFFFFFFFFFFFFFFFFFFFFFFFFFFFFFFFFF AND DUP2 MSTORE PUSH1 0x20 ADD SWAP1 DUP2 MSTORE PUSH1 0x20 ADD PUSH1 0x0 KECCAK256 DUP2 SWAP1 SSTORE POP DUP2 PUSH1 0x0 DUP1 DUP6 PUSH20 0xFFFFFFFFFFFFFFFFFFFFFFFFFFFFFFFFFFFFFFFF AND PUSH20 0xFFFFFFFFFFFFFFFFFFFFFFFFFFFFFFFFFFFFFFFF AND DUP2 MSTORE PUSH1 0x20 ADD SWAP1 DUP2 MSTORE PUSH1 0x20 ADD PUSH1 0x0 KECCAK256 PUSH1 0x0 DUP3 DUP3 SLOAD ADD SWAP3 POP POP DUP2 SWAP1 SSTORE POP DUP3 PUSH20 0xFFFFFFFFFFFFFFFFFFFFFFFFFFFFFFFFFFFFFFFF AND DUP5 PUSH20 0xFFFFFFFFFFFFFFFFFFFFFFFFFFFFFFFFFFFFFFFF AND PUSH32 0xDDF252AD1BE2C89B69C2B068FC378DAA952BA7F163C4A11628F55A4DF523B3EF DUP5 PUSH1 0x40 MLOAD PUSH2 0x1047 SWAP2 SWAP1 PUSH2 0x155D JUMP JUMPDEST PUSH1 0x40 MLOAD DUP1 SWAP2 SUB SWAP1 LOG3 PUSH2 0x105A DUP5 DUP5 DUP5 PUSH2 0x1388 JUMP JUMPDEST POP POP POP POP JUMP JUMPDEST PUSH1 0x0 PUSH20 0xFFFFFFFFFFFFFFFFFFFFFFFFFFFFFFFFFFFFFFFF AND DUP3 PUSH20 0xFFFFFFFFFFFFFFFFFFFFFFFFFFFFFFFFFFFFFFFF AND SUB PUSH2 0x10CF JUMPI PUSH1 0x40 MLOAD PUSH32 0x8C379A000000000000000000000000000000000000000000000000000000000 DUP2 MSTORE PUSH1 0x4 ADD PUSH2 0x10C6 SWAP1 PUSH2 0x1EA5 JUMP JUMPDEST PUSH1 0x40 MLOAD DUP1 SWAP2 SUB SWAP1 REVERT JUMPDEST PUSH2 0x10DB PUSH1 0x0 DUP4 DUP4 PUSH2 0x1383 JUMP JUMPDEST DUP1 PUSH1 0x2 PUSH1 0x0 DUP3 DUP3 SLOAD PUSH2 0x10ED SWAP2 SWAP1 PUSH2 0x177E JUMP JUMPDEST SWAP3 POP POP DUP2 SWAP1 SSTORE POP DUP1 PUSH1 0x0 DUP1 DUP5 PUSH20 0xFFFFFFFFFFFFFFFFFFFFFFFFFFFFFFFFFFFFFFFF AND PUSH20 0xFFFFFFFFFFFFFFFFFFFFFFFFFFFFFFFFFFFFFFFF AND DUP2 MSTORE PUSH1 0x20 ADD SWAP1 DUP2 MSTORE PUSH1 0x20 ADD PUSH1 0x0 KECCAK256 PUSH1 0x0 DUP3 DUP3 SLOAD ADD SWAP3 POP POP DUP2 SWAP1 SSTORE POP DUP2 PUSH20 0xFFFFFFFFFFFFFFFFFFFFFFFFFFFFFFFFFFFFFFFF AND PUSH1 0x0 PUSH20 0xFFFFFFFFFFFFFFFFFFFFFFFFFFFFFFFFFFFFFFFF AND PUSH32 0xDDF252AD1BE2C89B69C2B068FC378DAA952BA7F163C4A11628F55A4DF523B3EF DUP4 PUSH1 0x40 MLOAD PUSH2 0x119E SWAP2 SWAP1 PUSH2 0x155D JUMP JUMPDEST PUSH1 0x40 MLOAD DUP1 SWAP2 SUB SWAP1 LOG3 PUSH2 0x11B2 PUSH1 0x0 DUP4 DUP4 PUSH2 0x1388 JUMP JUMPDEST POP POP JUMP JUMPDEST PUSH1 0x0 PUSH20 0xFFFFFFFFFFFFFFFFFFFFFFFFFFFFFFFFFFFFFFFF AND DUP3 PUSH20 0xFFFFFFFFFFFFFFFFFFFFFFFFFFFFFFFFFFFFFFFF AND SUB PUSH2 0x1225 JUMPI PUSH1 0x40 MLOAD PUSH32 0x8C379A000000000000000000000000000000000000000000000000000000000 DUP2 MSTORE PUSH1 0x4 ADD PUSH2 0x121C SWAP1 PUSH2 0x1F37 JUMP JUMPDEST PUSH1 0x40 MLOAD DUP1 SWAP2 SUB SWAP1 REVERT JUMPDEST PUSH2 0x1231 DUP3 PUSH1 0x0 DUP4 PUSH2 0x1383 JUMP JUMPDEST PUSH1 0x0 DUP1 PUSH1 0x0 DUP5 PUSH20 0xFFFFFFFFFFFFFFFFFFFFFFFFFFFFFFFFFFFFFFFF AND PUSH20 0xFFFFFFFFFFFFFFFFFFFFFFFFFFFFFFFFFFFFFFFF AND DUP2 MSTORE PUSH1 0x20 ADD SWAP1 DUP2 MSTORE PUSH1 0x20 ADD PUSH1 0x0 KECCAK256 SLOAD SWAP1 POP DUP2 DUP2 LT ISZERO PUSH2 0x12B7 JUMPI PUSH1 0x40 MLOAD PUSH32 0x8C379A000000000000000000000000000000000000000000000000000000000 DUP2 MSTORE PUSH1 0x4 ADD PUSH2 0x12AE SWAP1 PUSH2 0x1FC9 JUMP JUMPDEST PUSH1 0x40 MLOAD DUP1 SWAP2 SUB SWAP1 REVERT JUMPDEST DUP2 DUP2 SUB PUSH1 0x0 DUP1 DUP6 PUSH20 0xFFFFFFFFFFFFFFFFFFFFFFFFFFFFFFFFFFFFFFFF AND PUSH20 0xFFFFFFFFFFFFFFFFFFFFFFFFFFFFFFFFFFFFFFFF AND DUP2 MSTORE PUSH1 0x20 ADD SWAP1 DUP2 MSTORE PUSH1 0x20 ADD PUSH1 0x0 KECCAK256 DUP2 SWAP1 SSTORE POP DUP2 PUSH1 0x2 PUSH1 0x0 DUP3 DUP3 SLOAD SUB SWAP3 POP POP DUP2 SWAP1 SSTORE POP PUSH1 0x0 PUSH20 0xFFFFFFFFFFFFFFFFFFFFFFFFFFFFFFFFFFFFFFFF AND DUP4 PUSH20 0xFFFFFFFFFFFFFFFFFFFFFFFFFFFFFFFFFFFFFFFF AND PUSH32 0xDDF252AD1BE2C89B69C2B068FC378DAA952BA7F163C4A11628F55A4DF523B3EF DUP5 PUSH1 0x40 MLOAD PUSH2 0x136A SWAP2 SWAP1 PUSH2 0x155D JUMP JUMPDEST PUSH1 0x40 MLOAD DUP1 SWAP2 SUB SWAP1 LOG3 PUSH2 0x137E DUP4 PUSH1 0x0 DUP5 PUSH2 0x1388 JUMP JUMPDEST POP POP POP JUMP JUMPDEST POP POP POP JUMP JUMPDEST POP POP POP JUMP JUMPDEST PUSH1 0x0 DUP2 MLOAD SWAP1 POP SWAP2 SWAP1 POP JUMP JUMPDEST PUSH1 0x0 DUP3 DUP3 MSTORE PUSH1 0x20 DUP3 ADD SWAP1 POP SWAP3 SWAP2 POP POP JUMP JUMPDEST PUSH1 0x0 JUMPDEST DUP4 DUP2 LT ISZERO PUSH2 0x13C7 JUMPI DUP1 DUP3 ADD MLOAD DUP2 DUP5 ADD MSTORE PUSH1 0x20 DUP2 ADD SWAP1 POP PUSH2 0x13AC JUMP JUMPDEST PUSH1 0x0 DUP5 DUP5 ADD MSTORE POP POP POP POP JUMP JUMPDEST PUSH1 0x0 PUSH1 0x1F NOT PUSH1 0x1F DUP4 ADD AND SWAP1 POP SWAP2 SWAP1 POP JUMP JUMPDEST PUSH1 0x0 PUSH2 0x13EF DUP3 PUSH2 0x138D JUMP JUMPDEST PUSH2 0x13F9 DUP2 DUP6 PUSH2 0x1398 JUMP JUMPDEST SWAP4 POP PUSH2 0x1409 DUP2 DUP6 PUSH1 0x20 DUP7 ADD PUSH2 0x13A9 JUMP JUMPDEST PUSH2 0x1412 DUP2 PUSH2 0x13D3 JUMP JUMPDEST DUP5 ADD SWAP2 POP POP SWAP3 SWAP2 POP POP JUMP JUMPDEST PUSH1 0x0 PUSH1 0x20 DUP3 ADD SWAP1 POP DUP2 DUP2 SUB PUSH1 0x0 DUP4 ADD MSTORE PUSH2 0x1437 DUP2 DUP5 PUSH2 0x13E4 JUMP JUMPDEST SWAP1 POP SWAP3 SWAP2 POP POP JUMP JUMPDEST PUSH1 0x0 DUP1 REVERT JUMPDEST PUSH1 0x0 PUSH20 0xFFFFFFFFFFFFFFFFFFFFFFFFFFFFFFFFFFFFFFFF DUP3 AND SWAP1 POP SWAP2 SWAP1 POP JUMP JUMPDEST PUSH1 0x0 PUSH2 0x146F DUP3 PUSH2 0x1444 JUMP JUMPDEST SWAP1 POP SWAP2 SWAP1 POP JUMP JUMPDEST PUSH2 0x147F DUP2 PUSH2 0x1464 JUMP JUMPDEST DUP2 EQ PUSH2 0x148A JUMPI PUSH1 0x0 DUP1 REVERT JUMPDEST POP JUMP JUMPDEST PUSH1 0x0 DUP2 CALLDATALOAD SWAP1 POP PUSH2 0x149C DUP2 PUSH2 0x1476 JUMP JUMPDEST SWAP3 SWAP2 POP POP JUMP JUMPDEST PUSH1 0x0 DUP2 SWAP1 POP SWAP2 SWAP1 POP JUMP JUMPDEST PUSH2 0x14B5 DUP2 PUSH2 0x14A2 JUMP JUMPDEST DUP2 EQ PUSH2 0x14C0 JUMPI PUSH1 0x0 DUP1 REVERT JUMPDEST POP JUMP JUMPDEST PUSH1 0x0 DUP2 CALLDATALOAD SWAP1 POP PUSH2 0x14D2 DUP2 PUSH2 0x14AC JUMP JUMPDEST SWAP3 SWAP2 POP POP JUMP JUMPDEST PUSH1 0x0 DUP1 PUSH1 0x40 DUP4 DUP6 SUB SLT ISZERO PUSH2 0x14EF JUMPI PUSH2 0x14EE PUSH2 0x143F JUMP JUMPDEST JUMPDEST PUSH1 0x0 PUSH2 0x14FD DUP6 DUP3 DUP7 ADD PUSH2 0x148D JUMP JUMPDEST SWAP3 POP POP PUSH1 0x20 PUSH2 0x150E DUP6 DUP3 DUP7 ADD PUSH2 0x14C3 JUMP JUMPDEST SWAP2 POP POP SWAP3 POP SWAP3 SWAP1 POP JUMP JUMPDEST PUSH1 0x0 DUP2 ISZERO ISZERO SWAP1 POP SWAP2 SWAP1 POP JUMP JUMPDEST PUSH2 0x152D DUP2 PUSH2 0x1518 JUMP JUMPDEST DUP3 MSTORE POP POP JUMP JUMPDEST PUSH1 0x0 PUSH1 0x20 DUP3 ADD SWAP1 POP PUSH2 0x1548 PUSH1 0x0 DUP4 ADD DUP5 PUSH2 0x1524 JUMP JUMPDEST SWAP3 SWAP2 POP POP JUMP JUMPDEST PUSH2 0x1557 DUP2 PUSH2 0x14A2 JUMP JUMPDEST DUP3 MSTORE POP POP JUMP JUMPDEST PUSH1 0x0 PUSH1 0x20 DUP3 ADD SWAP1 POP PUSH2 0x1572 PUSH1 0x0 DUP4 ADD DUP5 PUSH2 0x154E JUMP JUMPDEST SWAP3 SWAP2 POP POP JUMP JUMPDEST PUSH1 0x0 DUP1 PUSH1 0x0 PUSH1 0x60 DUP5 DUP7 SUB SLT ISZERO PUSH2 0x1591 JUMPI PUSH2 0x1590 PUSH2 0x143F JUMP JUMPDEST JUMPDEST PUSH1 0x0 PUSH2 0x159F DUP7 DUP3 DUP8 ADD PUSH2 0x148D JUMP JUMPDEST SWAP4 POP POP PUSH1 0x20 PUSH2 0x15B0 DUP7 DUP3 DUP8 ADD PUSH2 0x148D JUMP JUMPDEST SWAP3 POP POP PUSH1 0x40 PUSH2 0x15C1 DUP7 DUP3 DUP8 ADD PUSH2 0x14C3 JUMP JUMPDEST SWAP2 POP POP SWAP3 POP SWAP3 POP SWAP3 JUMP JUMPDEST PUSH1 0x0 PUSH1 0xFF DUP3 AND SWAP1 POP SWAP2 SWAP1 POP JUMP JUMPDEST PUSH2 0x15E1 DUP2 PUSH2 0x15CB JUMP JUMPDEST DUP3 MSTORE POP POP JUMP JUMPDEST PUSH1 0x0 PUSH1 0x20 DUP3 ADD SWAP1 POP PUSH2 0x15FC PUSH1 0x0 DUP4 ADD DUP5 PUSH2 0x15D8 JUMP JUMPDEST SWAP3 SWAP2 POP POP JUMP JUMPDEST PUSH1 0x0 PUSH1 0x20 DUP3 DUP5 SUB SLT ISZERO PUSH2 0x1618 JUMPI PUSH2 0x1617 PUSH2 0x143F JUMP JUMPDEST JUMPDEST PUSH1 0x0 PUSH2 0x1626 DUP5 DUP3 DUP6 ADD PUSH2 0x14C3 JUMP JUMPDEST SWAP2 POP POP SWAP3 SWAP2 POP POP JUMP JUMPDEST PUSH1 0x0 PUSH1 0x20 DUP3 DUP5 SUB SLT ISZERO PUSH2 0x1645 JUMPI PUSH2 0x1644 PUSH2 0x143F JUMP JUMPDEST JUMPDEST PUSH1 0x0 PUSH2 0x1653 DUP5 DUP3 DUP6 ADD PUSH2 0x148D JUMP JUMPDEST SWAP2 POP POP SWAP3 SWAP2 POP POP JUMP JUMPDEST PUSH1 0x0 PUSH1 0x40 DUP3 ADD SWAP1 POP PUSH2 0x1671 PUSH1 0x0 DUP4 ADD DUP6 PUSH2 0x154E JUMP JUMPDEST PUSH2 0x167E PUSH1 0x20 DUP4 ADD DUP5 PUSH2 0x154E JUMP JUMPDEST SWAP4 SWAP3 POP POP POP JUMP JUMPDEST PUSH2 0x168E DUP2 PUSH2 0x1464 JUMP JUMPDEST DUP3 MSTORE POP POP JUMP JUMPDEST PUSH1 0x0 PUSH1 0x20 DUP3 ADD SWAP1 POP PUSH2 0x16A9 PUSH1 0x0 DUP4 ADD DUP5 PUSH2 0x1685 JUMP JUMPDEST SWAP3 SWAP2 POP POP JUMP JUMPDEST PUSH1 0x0 DUP1 PUSH1 0x40 DUP4 DUP6 SUB SLT ISZERO PUSH2 0x16C6 JUMPI PUSH2 0x16C5 PUSH2 0x143F JUMP JUMPDEST JUMPDEST PUSH1 0x0 PUSH2 0x16D4 DUP6 DUP3 DUP7 ADD PUSH2 0x148D JUMP JUMPDEST SWAP3 POP POP PUSH1 0x20 PUSH2 0x16E5 DUP6 DUP3 DUP7 ADD PUSH2 0x148D JUMP JUMPDEST SWAP2 POP POP SWAP3 POP SWAP3 SWAP1 POP JUMP JUMPDEST PUSH32 0x4E487B7100000000000000000000000000000000000000000000000000000000 PUSH1 0x0 MSTORE PUSH1 0x22 PUSH1 0x4 MSTORE PUSH1 0x24 PUSH1 0x0 REVERT JUMPDEST PUSH1 0x0 PUSH1 0x2 DUP3 DIV SWAP1 POP PUSH1 0x1 DUP3 AND DUP1 PUSH2 0x1736 JUMPI PUSH1 0x7F DUP3 AND SWAP2 POP JUMPDEST PUSH1 0x20 DUP3 LT DUP2 SUB PUSH2 0x1749 JUMPI PUSH2 0x1748 PUSH2 0x16EF JUMP JUMPDEST JUMPDEST POP SWAP2 SWAP1 POP JUMP JUMPDEST PUSH32 0x4E487B7100000000000000000000000000000000000000000000000000000000 PUSH1 0x0 MSTORE PUSH1 0x11 PUSH1 0x4 MSTORE PUSH1 0x24 PUSH1 0x0 REVERT JUMPDEST PUSH1 0x0 PUSH2 0x1789 DUP3 PUSH2 0x14A2 JUMP JUMPDEST SWAP2 POP PUSH2 0x1794 DUP4 PUSH2 0x14A2 JUMP JUMPDEST SWAP3 POP DUP3 DUP3 ADD SWAP1 POP DUP1 DUP3 GT ISZERO PUSH2 0x17AC JUMPI PUSH2 0x17AB PUSH2 0x174F JUMP JUMPDEST JUMPDEST SWAP3 SWAP2 POP POP JUMP JUMPDEST PUSH1 0x0 PUSH1 0x60 DUP3 ADD SWAP1 POP PUSH2 0x17C7 PUSH1 0x0 DUP4 ADD DUP7 PUSH2 0x1685 JUMP JUMPDEST PUSH2 0x17D4 PUSH1 0x20 DUP4 ADD DUP6 PUSH2 0x1685 JUMP JUMPDEST PUSH2 0x17E1 PUSH1 0x40 DUP4 ADD DUP5 PUSH2 0x154E JUMP JUMPDEST SWAP5 SWAP4 POP POP POP POP JUMP JUMPDEST PUSH2 0x17F2 DUP2 PUSH2 0x1518 JUMP JUMPDEST DUP2 EQ PUSH2 0x17FD JUMPI PUSH1 0x0 DUP1 REVERT JUMPDEST POP JUMP JUMPDEST PUSH1 0x0 DUP2 MLOAD SWAP1 POP PUSH2 0x180F DUP2 PUSH2 0x17E9 JUMP JUMPDEST SWAP3 SWAP2 POP POP JUMP JUMPDEST PUSH1 0x0 PUSH1 0x20 DUP3 DUP5 SUB SLT ISZERO PUSH2 0x182B JUMPI PUSH2 0x182A PUSH2 0x143F JUMP JUMPDEST JUMPDEST PUSH1 0x0 PUSH2 0x1839 DUP5 DUP3 DUP6 ADD PUSH2 0x1800 JUMP JUMPDEST SWAP2 POP POP SWAP3 SWAP2 POP POP JUMP JUMPDEST PUSH1 0x0 PUSH2 0x184D DUP3 PUSH2 0x14A2 JUMP JUMPDEST SWAP2 POP PUSH2 0x1858 DUP4 PUSH2 0x14A2 JUMP JUMPDEST SWAP3 POP DUP3 DUP3 SUB SWAP1 POP DUP2 DUP2 GT ISZERO PUSH2 0x1870 JUMPI PUSH2 0x186F PUSH2 0x174F JUMP JUMPDEST JUMPDEST SWAP3 SWAP2 POP POP JUMP JUMPDEST PUSH1 0x0 PUSH2 0x1881 DUP3 PUSH2 0x14A2 JUMP JUMPDEST SWAP2 POP PUSH2 0x188C DUP4 PUSH2 0x14A2 JUMP JUMPDEST SWAP3 POP DUP3 DUP3 MUL PUSH2 0x189A DUP2 PUSH2 0x14A2 JUMP JUMPDEST SWAP2 POP DUP3 DUP3 DIV DUP5 EQ DUP4 ISZERO OR PUSH2 0x18B1 JUMPI PUSH2 0x18B0 PUSH2 0x174F JUMP JUMPDEST JUMPDEST POP SWAP3 SWAP2 POP POP JUMP JUMPDEST PUSH32 0x4E487B7100000000000000000000000000000000000000000000000000000000 PUSH1 0x0 MSTORE PUSH1 0x12 PUSH1 0x4 MSTORE PUSH1 0x24 PUSH1 0x0 REVERT JUMPDEST PUSH1 0x0 PUSH2 0x18F2 DUP3 PUSH2 0x14A2 JUMP JUMPDEST SWAP2 POP PUSH2 0x18FD DUP4 PUSH2 0x14A2 JUMP JUMPDEST SWAP3 POP DUP3 PUSH2 0x190D JUMPI PUSH2 0x190C PUSH2 0x18B8 JUMP JUMPDEST JUMPDEST DUP3 DUP3 DIV SWAP1 POP SWAP3 SWAP2 POP POP JUMP JUMPDEST PUSH32 0x416D6F756E74206F6620746F6B656E73206973206C657373207468616E207468 PUSH1 0x0 DUP3 ADD MSTORE PUSH32 0x65206D696E696D756D2072657175697265642E00000000000000000000000000 PUSH1 0x20 DUP3 ADD MSTORE POP JUMP JUMPDEST PUSH1 0x0 PUSH2 0x1974 PUSH1 0x33 DUP4 PUSH2 0x1398 JUMP JUMPDEST SWAP2 POP PUSH2 0x197F DUP3 PUSH2 0x1918 JUMP JUMPDEST PUSH1 0x40 DUP3 ADD SWAP1 POP SWAP2 SWAP1 POP JUMP JUMPDEST PUSH1 0x0 PUSH1 0x20 DUP3 ADD SWAP1 POP DUP2 DUP2 SUB PUSH1 0x0 DUP4 ADD MSTORE PUSH2 0x19A3 DUP2 PUSH2 0x1967 JUMP JUMPDEST SWAP1 POP SWAP2 SWAP1 POP JUMP JUMPDEST PUSH1 0x0 DUP2 MLOAD SWAP1 POP PUSH2 0x19B9 DUP2 PUSH2 0x14AC JUMP JUMPDEST SWAP3 SWAP2 POP POP JUMP JUMPDEST PUSH1 0x0 PUSH1 0x20 DUP3 DUP5 SUB SLT ISZERO PUSH2 0x19D5 JUMPI PUSH2 0x19D4 PUSH2 0x143F JUMP JUMPDEST JUMPDEST PUSH1 0x0 PUSH2 0x19E3 DUP5 DUP3 DUP6 ADD PUSH2 0x19AA JUMP JUMPDEST SWAP2 POP POP SWAP3 SWAP2 POP POP JUMP JUMPDEST PUSH32 0x416D6F756E74206D75737420626520677265617465207468616E207A65726F2E PUSH1 0x0 DUP3 ADD MSTORE POP JUMP JUMPDEST PUSH1 0x0 PUSH2 0x1A22 PUSH1 0x20 DUP4 PUSH2 0x1398 JUMP JUMPDEST SWAP2 POP PUSH2 0x1A2D DUP3 PUSH2 0x19EC JUMP JUMPDEST PUSH1 0x20 DUP3 ADD SWAP1 POP SWAP2 SWAP1 POP JUMP JUMPDEST PUSH1 0x0 PUSH1 0x20 DUP3 ADD SWAP1 POP DUP2 DUP2 SUB PUSH1 0x0 DUP4 ADD MSTORE PUSH2 0x1A51 DUP2 PUSH2 0x1A15 JUMP JUMPDEST SWAP1 POP SWAP2 SWAP1 POP JUMP JUMPDEST PUSH1 0x0 PUSH1 0x40 DUP3 ADD SWAP1 POP PUSH2 0x1A6D PUSH1 0x0 DUP4 ADD DUP6 PUSH2 0x1685 JUMP JUMPDEST PUSH2 0x1A7A PUSH1 0x20 DUP4 ADD DUP5 PUSH2 0x154E JUMP JUMPDEST SWAP4 SWAP3 POP POP POP JUMP JUMPDEST PUSH32 0x45524332303A2064656372656173656420616C6C6F77616E63652062656C6F77 PUSH1 0x0 DUP3 ADD MSTORE PUSH32 0x207A65726F000000000000000000000000000000000000000000000000000000 PUSH1 0x20 DUP3 ADD MSTORE POP JUMP JUMPDEST PUSH1 0x0 PUSH2 0x1ADD PUSH1 0x25 DUP4 PUSH2 0x1398 JUMP JUMPDEST SWAP2 POP PUSH2 0x1AE8 DUP3 PUSH2 0x1A81 JUMP JUMPDEST PUSH1 0x40 DUP3 ADD SWAP1 POP SWAP2 SWAP1 POP JUMP JUMPDEST PUSH1 0x0 PUSH1 0x20 DUP3 ADD SWAP1 POP DUP2 DUP2 SUB PUSH1 0x0 DUP4 ADD MSTORE PUSH2 0x1B0C DUP2 PUSH2 0x1AD0 JUMP JUMPDEST SWAP1 POP SWAP2 SWAP1 POP JUMP JUMPDEST PUSH32 0x45524332303A20617070726F76652066726F6D20746865207A65726F20616464 PUSH1 0x0 DUP3 ADD MSTORE PUSH32 0x7265737300000000000000000000000000000000000000000000000000000000 PUSH1 0x20 DUP3 ADD MSTORE POP JUMP JUMPDEST PUSH1 0x0 PUSH2 0x1B6F PUSH1 0x24 DUP4 PUSH2 0x1398 JUMP JUMPDEST SWAP2 POP PUSH2 0x1B7A DUP3 PUSH2 0x1B13 JUMP JUMPDEST PUSH1 0x40 DUP3 ADD SWAP1 POP SWAP2 SWAP1 POP JUMP JUMPDEST PUSH1 0x0 PUSH1 0x20 DUP3 ADD SWAP1 POP DUP2 DUP2 SUB PUSH1 0x0 DUP4 ADD MSTORE PUSH2 0x1B9E DUP2 PUSH2 0x1B62 JUMP JUMPDEST SWAP1 POP SWAP2 SWAP1 POP JUMP JUMPDEST PUSH32 0x45524332303A20617070726F766520746F20746865207A65726F206164647265 PUSH1 0x0 DUP3 ADD MSTORE PUSH32 0x7373000000000000000000000000000000000000000000000000000000000000 PUSH1 0x20 DUP3 ADD MSTORE POP JUMP JUMPDEST PUSH1 0x0 PUSH2 0x1C01 PUSH1 0x22 DUP4 PUSH2 0x1398 JUMP JUMPDEST SWAP2 POP PUSH2 0x1C0C DUP3 PUSH2 0x1BA5 JUMP JUMPDEST PUSH1 0x40 DUP3 ADD SWAP1 POP SWAP2 SWAP1 POP JUMP JUMPDEST PUSH1 0x0 PUSH1 0x20 DUP3 ADD SWAP1 POP DUP2 DUP2 SUB PUSH1 0x0 DUP4 ADD MSTORE PUSH2 0x1C30 DUP2 PUSH2 0x1BF4 JUMP JUMPDEST SWAP1 POP SWAP2 SWAP1 POP JUMP JUMPDEST PUSH32 0x45524332303A20696E73756666696369656E7420616C6C6F77616E6365000000 PUSH1 0x0 DUP3 ADD MSTORE POP JUMP JUMPDEST PUSH1 0x0 PUSH2 0x1C6D PUSH1 0x1D DUP4 PUSH2 0x1398 JUMP JUMPDEST SWAP2 POP PUSH2 0x1C78 DUP3 PUSH2 0x1C37 JUMP JUMPDEST PUSH1 0x20 DUP3 ADD SWAP1 POP SWAP2 SWAP1 POP JUMP JUMPDEST PUSH1 0x0 PUSH1 0x20 DUP3 ADD SWAP1 POP DUP2 DUP2 SUB PUSH1 0x0 DUP4 ADD MSTORE PUSH2 0x1C9C DUP2 PUSH2 0x1C60 JUMP JUMPDEST SWAP1 POP SWAP2 SWAP1 POP JUMP JUMPDEST PUSH32 0x45524332303A207472616E736665722066726F6D20746865207A65726F206164 PUSH1 0x0 DUP3 ADD MSTORE PUSH32 0x6472657373000000000000000000000000000000000000000000000000000000 PUSH1 0x20 DUP3 ADD MSTORE POP JUMP JUMPDEST PUSH1 0x0 PUSH2 0x1CFF PUSH1 0x25 DUP4 PUSH2 0x1398 JUMP JUMPDEST SWAP2 POP PUSH2 0x1D0A DUP3 PUSH2 0x1CA3 JUMP JUMPDEST PUSH1 0x40 DUP3 ADD SWAP1 POP SWAP2 SWAP1 POP JUMP JUMPDEST PUSH1 0x0 PUSH1 0x20 DUP3 ADD SWAP1 POP DUP2 DUP2 SUB PUSH1 0x0 DUP4 ADD MSTORE PUSH2 0x1D2E DUP2 PUSH2 0x1CF2 JUMP JUMPDEST SWAP1 POP SWAP2 SWAP1 POP JUMP JUMPDEST PUSH32 0x45524332303A207472616E7366657220746F20746865207A65726F2061646472 PUSH1 0x0 DUP3 ADD MSTORE PUSH32 0x6573730000000000000000000000000000000000000000000000000000000000 PUSH1 0x20 DUP3 ADD MSTORE POP JUMP JUMPDEST PUSH1 0x0 PUSH2 0x1D91 PUSH1 0x23 DUP4 PUSH2 0x1398 JUMP JUMPDEST SWAP2 POP PUSH2 0x1D9C DUP3 PUSH2 0x1D35 JUMP JUMPDEST PUSH1 0x40 DUP3 ADD SWAP1 POP SWAP2 SWAP1 POP JUMP JUMPDEST PUSH1 0x0 PUSH1 0x20 DUP3 ADD SWAP1 POP DUP2 DUP2 SUB PUSH1 0x0 DUP4 ADD MSTORE PUSH2 0x1DC0 DUP2 PUSH2 0x1D84 JUMP JUMPDEST SWAP1 POP SWAP2 SWAP1 POP JUMP JUMPDEST PUSH32 0x45524332303A207472616E7366657220616D6F756E7420657863656564732062 PUSH1 0x0 DUP3 ADD MSTORE PUSH32 0x616C616E63650000000000000000000000000000000000000000000000000000 PUSH1 0x20 DUP3 ADD MSTORE POP JUMP JUMPDEST PUSH1 0x0 PUSH2 0x1E23 PUSH1 0x26 DUP4 PUSH2 0x1398 JUMP JUMPDEST SWAP2 POP PUSH2 0x1E2E DUP3 PUSH2 0x1DC7 JUMP JUMPDEST PUSH1 0x40 DUP3 ADD SWAP1 POP SWAP2 SWAP1 POP JUMP JUMPDEST PUSH1 0x0 PUSH1 0x20 DUP3 ADD SWAP1 POP DUP2 DUP2 SUB PUSH1 0x0 DUP4 ADD MSTORE PUSH2 0x1E52 DUP2 PUSH2 0x1E16 JUMP JUMPDEST SWAP1 POP SWAP2 SWAP1 POP JUMP JUMPDEST PUSH32 0x45524332303A206D696E7420746F20746865207A65726F206164647265737300 PUSH1 0x0 DUP3 ADD MSTORE POP JUMP JUMPDEST PUSH1 0x0 PUSH2 0x1E8F PUSH1 0x1F DUP4 PUSH2 0x1398 JUMP JUMPDEST SWAP2 POP PUSH2 0x1E9A DUP3 PUSH2 0x1E59 JUMP JUMPDEST PUSH1 0x20 DUP3 ADD SWAP1 POP SWAP2 SWAP1 POP JUMP JUMPDEST PUSH1 0x0 PUSH1 0x20 DUP3 ADD SWAP1 POP DUP2 DUP2 SUB PUSH1 0x0 DUP4 ADD MSTORE PUSH2 0x1EBE DUP2 PUSH2 0x1E82 JUMP JUMPDEST SWAP1 POP SWAP2 SWAP1 POP JUMP JUMPDEST PUSH32 0x45524332303A206275726E2066726F6D20746865207A65726F20616464726573 PUSH1 0x0 DUP3 ADD MSTORE PUSH32 0x7300000000000000000000000000000000000000000000000000000000000000 PUSH1 0x20 DUP3 ADD MSTORE POP JUMP JUMPDEST PUSH1 0x0 PUSH2 0x1F21 PUSH1 0x21 DUP4 PUSH2 0x1398 JUMP JUMPDEST SWAP2 POP PUSH2 0x1F2C DUP3 PUSH2 0x1EC5 JUMP JUMPDEST PUSH1 0x40 DUP3 ADD SWAP1 POP SWAP2 SWAP1 POP JUMP JUMPDEST PUSH1 0x0 PUSH1 0x20 DUP3 ADD SWAP1 POP DUP2 DUP2 SUB PUSH1 0x0 DUP4 ADD MSTORE PUSH2 0x1F50 DUP2 PUSH2 0x1F14 JUMP JUMPDEST SWAP1 POP SWAP2 SWAP1 POP JUMP JUMPDEST PUSH32 0x45524332303A206275726E20616D6F756E7420657863656564732062616C616E PUSH1 0x0 DUP3 ADD MSTORE PUSH32 0x6365000000000000000000000000000000000000000000000000000000000000 PUSH1 0x20 DUP3 ADD MSTORE POP JUMP JUMPDEST PUSH1 0x0 PUSH2 0x1FB3 PUSH1 0x22 DUP4 PUSH2 0x1398 JUMP JUMPDEST SWAP2 POP PUSH2 0x1FBE DUP3 PUSH2 0x1F57 JUMP JUMPDEST PUSH1 0x40 DUP3 ADD SWAP1 POP SWAP2 SWAP1 POP JUMP JUMPDEST PUSH1 0x0 PUSH1 0x20 DUP3 ADD SWAP1 POP DUP2 DUP2 SUB PUSH1 0x0 DUP4 ADD MSTORE PUSH2 0x1FE2 DUP2 PUSH2 0x1FA6 JUMP JUMPDEST SWAP1 POP SWAP2 SWAP1 POP JUMP INVALID LOG2 PUSH5 0x6970667358 0x22 SLT KECCAK256 EXTCODESIZE 0xD PUSH28 0x14C3F3EF1CB7092B68AE79203AD0574ADAA418375633FB6A6D6F61AB PUSH13 0x64736F6C634300081200330000 "},"methodIdentifiers":{"addLiquidity(uint256)":"51c6590a","allowance(address,address)":"dd62ed3e","approve(address,uint256)":"095ea7b3","balanceOf(address)":"70a08231","decimals()":"313ce567","decreaseAllowance(address,uint256)":"a457c2d7","getReserve()":"59bf5d39","increaseAllowance(address,uint256)":"39509351","name()":"06fdde03","removeLiquidity(uint256)":"9c8f9f23","symbol()":"95d89b41","tokenAddress()":"9d76ea58","totalSupply()":"18160ddd","transfer(address,uint256)":"a9059cbb","transferFrom(address,address,uint256)":"23b872dd"}}}}}