{
  "_format": "hh-sol-artifact-1",
  "contractName": "Lootbox",
  "sourceName": "contracts/Lootbox.sol",
  "abi": [
    {
      "inputs": [],
      "stateMutability": "nonpayable",
      "type": "constructor"
    },
    {
      "anonymous": false,
      "inputs": [
        {
          "indexed": true,
          "internalType": "address",
          "name": "owner",
          "type": "address"
        },
        {
          "indexed": true,
          "internalType": "address",
          "name": "approved",
          "type": "address"
        },
        {
          "indexed": true,
          "internalType": "uint256",
          "name": "tokenId",
          "type": "uint256"
        }
      ],
      "name": "Approval",
      "type": "event"
    },
    {
      "anonymous": false,
      "inputs": [
        {
          "indexed": true,
          "internalType": "address",
          "name": "owner",
          "type": "address"
        },
        {
          "indexed": true,
          "internalType": "address",
          "name": "operator",
          "type": "address"
        },
        {
          "indexed": false,
          "internalType": "bool",
          "name": "approved",
          "type": "bool"
        }
      ],
      "name": "ApprovalForAll",
      "type": "event"
    },
    {
      "anonymous": false,
      "inputs": [
        {
          "indexed": false,
          "internalType": "uint256",
          "name": "_fromTokenId",
          "type": "uint256"
        },
        {
          "indexed": false,
          "internalType": "uint256",
          "name": "_toTokenId",
          "type": "uint256"
        }
      ],
      "name": "BatchMetadataUpdate",
      "type": "event"
    },
    {
      "anonymous": false,
      "inputs": [
        {
          "indexed": false,
          "internalType": "uint256",
          "name": "_tokenId",
          "type": "uint256"
        }
      ],
      "name": "MetadataUpdate",
      "type": "event"
    },
    {
      "anonymous": false,
      "inputs": [
        {
          "indexed": true,
          "internalType": "address",
          "name": "from",
          "type": "address"
        },
        {
          "indexed": true,
          "internalType": "address",
          "name": "to",
          "type": "address"
        },
        {
          "indexed": true,
          "internalType": "uint256",
          "name": "tokenId",
          "type": "uint256"
        }
      ],
      "name": "Transfer",
      "type": "event"
    },
    {
      "inputs": [
        {
          "internalType": "address",
          "name": "to",
          "type": "address"
        },
        {
          "internalType": "uint256",
          "name": "tokenId",
          "type": "uint256"
        }
      ],
      "name": "approve",
      "outputs": [],
      "stateMutability": "nonpayable",
      "type": "function"
    },
    {
      "inputs": [
        {
          "internalType": "address",
          "name": "owner",
          "type": "address"
        }
      ],
      "name": "balanceOf",
      "outputs": [
        {
          "internalType": "uint256",
          "name": "",
          "type": "uint256"
        }
      ],
      "stateMutability": "view",
      "type": "function"
    },
    {
      "inputs": [],
      "name": "boxPrice",
      "outputs": [
        {
          "internalType": "uint256",
          "name": "",
          "type": "uint256"
        }
      ],
      "stateMutability": "view",
      "type": "function"
    },
    {
      "inputs": [
        {
          "internalType": "address",
          "name": "",
          "type": "address"
        }
      ],
      "name": "boxes",
      "outputs": [
        {
          "internalType": "uint256",
          "name": "",
          "type": "uint256"
        }
      ],
      "stateMutability": "view",
      "type": "function"
    },
    {
      "inputs": [],
      "name": "buyBox",
      "outputs": [],
      "stateMutability": "payable",
      "type": "function"
    },
    {
      "inputs": [
        {
          "internalType": "uint256",
          "name": "tokenId",
          "type": "uint256"
        }
      ],
      "name": "getApproved",
      "outputs": [
        {
          "internalType": "address",
          "name": "",
          "type": "address"
        }
      ],
      "stateMutability": "view",
      "type": "function"
    },
    {
      "inputs": [
        {
          "internalType": "address",
          "name": "owner",
          "type": "address"
        },
        {
          "internalType": "address",
          "name": "operator",
          "type": "address"
        }
      ],
      "name": "isApprovedForAll",
      "outputs": [
        {
          "internalType": "bool",
          "name": "",
          "type": "bool"
        }
      ],
      "stateMutability": "view",
      "type": "function"
    },
    {
      "inputs": [],
      "name": "maxItems",
      "outputs": [
        {
          "internalType": "uint256",
          "name": "",
          "type": "uint256"
        }
      ],
      "stateMutability": "view",
      "type": "function"
    },
    {
      "inputs": [],
      "name": "name",
      "outputs": [
        {
          "internalType": "string",
          "name": "",
          "type": "string"
        }
      ],
      "stateMutability": "view",
      "type": "function"
    },
    {
      "inputs": [],
      "name": "openBox",
      "outputs": [],
      "stateMutability": "nonpayable",
      "type": "function"
    },
    {
      "inputs": [
        {
          "internalType": "uint256",
          "name": "tokenId",
          "type": "uint256"
        }
      ],
      "name": "ownerOf",
      "outputs": [
        {
          "internalType": "address",
          "name": "",
          "type": "address"
        }
      ],
      "stateMutability": "view",
      "type": "function"
    },
    {
      "inputs": [
        {
          "internalType": "address",
          "name": "from",
          "type": "address"
        },
        {
          "internalType": "address",
          "name": "to",
          "type": "address"
        },
        {
          "internalType": "uint256",
          "name": "tokenId",
          "type": "uint256"
        }
      ],
      "name": "safeTransferFrom",
      "outputs": [],
      "stateMutability": "nonpayable",
      "type": "function"
    },
    {
      "inputs": [
        {
          "internalType": "address",
          "name": "from",
          "type": "address"
        },
        {
          "internalType": "address",
          "name": "to",
          "type": "address"
        },
        {
          "internalType": "uint256",
          "name": "tokenId",
          "type": "uint256"
        },
        {
          "internalType": "bytes",
          "name": "data",
          "type": "bytes"
        }
      ],
      "name": "safeTransferFrom",
      "outputs": [],
      "stateMutability": "nonpayable",
      "type": "function"
    },
    {
      "inputs": [
        {
          "internalType": "address",
          "name": "operator",
          "type": "address"
        },
        {
          "internalType": "bool",
          "name": "approved",
          "type": "bool"
        }
      ],
      "name": "setApprovalForAll",
      "outputs": [],
      "stateMutability": "nonpayable",
      "type": "function"
    },
    {
      "inputs": [
        {
          "internalType": "bytes4",
          "name": "interfaceId",
          "type": "bytes4"
        }
      ],
      "name": "supportsInterface",
      "outputs": [
        {
          "internalType": "bool",
          "name": "",
          "type": "bool"
        }
      ],
      "stateMutability": "view",
      "type": "function"
    },
    {
      "inputs": [],
      "name": "symbol",
      "outputs": [
        {
          "internalType": "string",
          "name": "",
          "type": "string"
        }
      ],
      "stateMutability": "view",
      "type": "function"
    },
    {
      "inputs": [
        {
          "internalType": "uint256",
          "name": "tokenId",
          "type": "uint256"
        }
      ],
      "name": "tokenURI",
      "outputs": [
        {
          "internalType": "string",
          "name": "",
          "type": "string"
        }
      ],
      "stateMutability": "view",
      "type": "function"
    },
    {
      "inputs": [
        {
          "internalType": "address",
          "name": "from",
          "type": "address"
        },
        {
          "internalType": "address",
          "name": "to",
          "type": "address"
        },
        {
          "internalType": "uint256",
          "name": "tokenId",
          "type": "uint256"
        }
      ],
      "name": "transferFrom",
      "outputs": [],
      "stateMutability": "nonpayable",
      "type": "function"
    }
  ],
  "bytecode": "0x608060405266038d7ea4c68000600755600f6008553480156200002157600080fd5b506040518060400160405280600781526020017f4c6f6f74626f78000000000000000000000000000000000000000000000000008152506040518060400160405280600381526020017f4c4247000000000000000000000000000000000000000000000000000000000081525081600090816200009f919062000334565b508060019081620000b1919062000334565b5050506200041b565b600081519050919050565b7f4e487b7100000000000000000000000000000000000000000000000000000000600052604160045260246000fd5b7f4e487b7100000000000000000000000000000000000000000000000000000000600052602260045260246000fd5b600060028204905060018216806200013c57607f821691505b602082108103620001525762000151620000f4565b5b50919050565b60008190508160005260206000209050919050565b60006020601f8301049050919050565b600082821b905092915050565b600060088302620001bc7fffffffffffffffffffffffffffffffffffffffffffffffffffffffffffffffff826200017d565b620001c886836200017d565b95508019841693508086168417925050509392505050565b6000819050919050565b6000819050919050565b6000620002156200020f6200020984620001e0565b620001ea565b620001e0565b9050919050565b6000819050919050565b6200023183620001f4565b6200024962000240826200021c565b8484546200018a565b825550505050565b600090565b6200026062000251565b6200026d81848462000226565b505050565b5b8181101562000295576200028960008262000256565b60018101905062000273565b5050565b601f821115620002e457620002ae8162000158565b620002b9846200016d565b81016020851015620002c9578190505b620002e1620002d8856200016d565b83018262000272565b50505b505050565b600082821c905092915050565b60006200030960001984600802620002e9565b1980831691505092915050565b6000620003248383620002f6565b9150826002028217905092915050565b6200033f82620000ba565b67ffffffffffffffff8111156200035b576200035a620000c5565b5b62000367825462000123565b6200037482828562000299565b600060209050601f831160018114620003ac576000841562000397578287015190505b620003a3858262000316565b86555062000413565b601f198416620003bc8662000158565b60005b82811015620003e657848901518255600182019150602085019450602081019050620003bf565b8683101562000406578489015162000402601f891682620002f6565b8355505b6001600288020188555050505b505050505050565b612eba806200042b6000396000f3fe6080604052600436106101095760003560e01c806370a0823111610095578063a648285811610064578063a64828581461036e578063b88d4fde14610399578063c2e952c7146103c2578063c87b56dd146103d9578063e985e9c51461041657610109565b806370a08231146102a057806395d89b41146102dd5780639aa3bb4514610308578063a22cb4651461034557610109565b806323b872dd116100dc57806323b872dd146101dc5780633c010a3e1461020557806342842e0e14610230578063479507bb146102595780636352211e1461026357610109565b806301ffc9a71461010e57806306fdde031461014b578063081812fc14610176578063095ea7b3146101b3575b600080fd5b34801561011a57600080fd5b5061013560048036038101906101309190611bb5565b610453565b6040516101429190611bfd565b60405180910390f35b34801561015757600080fd5b506101606104b4565b60405161016d9190611ca8565b60405180910390f35b34801561018257600080fd5b5061019d60048036038101906101989190611d00565b610546565b6040516101aa9190611d6e565b60405180910390f35b3480156101bf57600080fd5b506101da60048036038101906101d59190611db5565b61058c565b005b3480156101e857600080fd5b5061020360048036038101906101fe9190611df5565b6106a3565b005b34801561021157600080fd5b5061021a610703565b6040516102279190611e57565b60405180910390f35b34801561023c57600080fd5b5061025760048036038101906102529190611df5565b610709565b005b610261610729565b005b34801561026f57600080fd5b5061028a60048036038101906102859190611d00565b6107c4565b6040516102979190611d6e565b60405180910390f35b3480156102ac57600080fd5b506102c760048036038101906102c29190611e72565b61084a565b6040516102d49190611e57565b60405180910390f35b3480156102e957600080fd5b506102f2610901565b6040516102ff9190611ca8565b60405180910390f35b34801561031457600080fd5b5061032f600480360381019061032a9190611e72565b610993565b60405161033c9190611e57565b60405180910390f35b34801561035157600080fd5b5061036c60048036038101906103679190611ecb565b6109ab565b005b34801561037a57600080fd5b506103836109c1565b6040516103909190611e57565b60405180910390f35b3480156103a557600080fd5b506103c060048036038101906103bb9190612040565b6109c7565b005b3480156103ce57600080fd5b506103d7610a29565b005b3480156103e557600080fd5b5061040060048036038101906103fb9190611d00565b610b53565b60405161040d9190611ca8565b60405180910390f35b34801561042257600080fd5b5061043d600480360381019061043891906120c3565b610bb2565b60405161044a9190611bfd565b60405180910390f35b6000634906490660e01b7bffffffffffffffffffffffffffffffffffffffffffffffffffffffff1916827bffffffffffffffffffffffffffffffffffffffffffffffffffffffff191614806104ad57506104ac82610c46565b5b9050919050565b6060600080546104c390612132565b80601f01602080910402602001604051908101604052809291908181526020018280546104ef90612132565b801561053c5780601f106105115761010080835404028352916020019161053c565b820191906000526020600020905b81548152906001019060200180831161051f57829003601f168201915b5050505050905090565b600061055182610d28565b6004600083815260200190815260200160002060009054906101000a900473ffffffffffffffffffffffffffffffffffffffff169050919050565b6000610597826107c4565b90508073ffffffffffffffffffffffffffffffffffffffff168373ffffffffffffffffffffffffffffffffffffffff1603610607576040517f08c379a00000000000000000000000000000000000000000000000000000000081526004016105fe906121d5565b60405180910390fd5b8073ffffffffffffffffffffffffffffffffffffffff16610626610d73565b73ffffffffffffffffffffffffffffffffffffffff16148061065557506106548161064f610d73565b610bb2565b5b610694576040517f08c379a000000000000000000000000000000000000000000000000000000000815260040161068b90612267565b60405180910390fd5b61069e8383610d7b565b505050565b6106b46106ae610d73565b82610e34565b6106f3576040517f08c379a00000000000000000000000000000000000000000000000000000000081526004016106ea906122f9565b60405180910390fd5b6106fe838383610ec9565b505050565b60085481565b610724838383604051806020016040528060008152506109c7565b505050565b600754341461076d576040517f08c379a00000000000000000000000000000000000000000000000000000000081526004016107649061238b565b60405180910390fd5b600960003373ffffffffffffffffffffffffffffffffffffffff1673ffffffffffffffffffffffffffffffffffffffff16815260200190815260200160002060008154809291906107bd906123da565b9190505550565b6000806107d0836111c2565b9050600073ffffffffffffffffffffffffffffffffffffffff168173ffffffffffffffffffffffffffffffffffffffff1603610841576040517f08c379a00000000000000000000000000000000000000000000000000000000081526004016108389061246e565b60405180910390fd5b80915050919050565b60008073ffffffffffffffffffffffffffffffffffffffff168273ffffffffffffffffffffffffffffffffffffffff16036108ba576040517f08c379a00000000000000000000000000000000000000000000000000000000081526004016108b190612500565b60405180910390fd5b600360008373ffffffffffffffffffffffffffffffffffffffff1673ffffffffffffffffffffffffffffffffffffffff168152602001908152602001600020549050919050565b60606001805461091090612132565b80601f016020809104026020016040519081016040528092919081815260200182805461093c90612132565b80156109895780601f1061095e57610100808354040283529160200191610989565b820191906000526020600020905b81548152906001019060200180831161096c57829003601f168201915b5050505050905090565b60096020528060005260406000206000915090505481565b6109bd6109b6610d73565b83836111ff565b5050565b60075481565b6109d86109d2610d73565b83610e34565b610a17576040517f08c379a0000000000000000000000000000000000000000000000000000000008152600401610a0e906122f9565b60405180910390fd5b610a238484848461136b565b50505050565b6000600960003373ffffffffffffffffffffffffffffffffffffffff1673ffffffffffffffffffffffffffffffffffffffff1681526020019081526020016000205411610aab576040517f08c379a0000000000000000000000000000000000000000000000000000000008152600401610aa29061256c565b60405180910390fd5b600960003373ffffffffffffffffffffffffffffffffffffffff1673ffffffffffffffffffffffffffffffffffffffff1681526020019081526020016000206000815480929190610afb9061258c565b919050555060006008544233604051602001610b1892919061261e565b6040516020818303038152906040528051906020012060001c610b3b9190612679565b9050610b4f610b4982610b53565b826113c7565b5050565b60606000610b5f6113e6565b90506000815111610b7f5760405180602001604052806000815250610baa565b80610b8984611406565b604051602001610b9a929190612732565b6040516020818303038152906040525b915050919050565b6000600560008473ffffffffffffffffffffffffffffffffffffffff1673ffffffffffffffffffffffffffffffffffffffff16815260200190815260200160002060008373ffffffffffffffffffffffffffffffffffffffff1673ffffffffffffffffffffffffffffffffffffffff16815260200190815260200160002060009054906101000a900460ff16905092915050565b60007f80ac58cd000000000000000000000000000000000000000000000000000000007bffffffffffffffffffffffffffffffffffffffffffffffffffffffff1916827bffffffffffffffffffffffffffffffffffffffffffffffffffffffff19161480610d1157507f5b5e139f000000000000000000000000000000000000000000000000000000007bffffffffffffffffffffffffffffffffffffffffffffffffffffffff1916827bffffffffffffffffffffffffffffffffffffffffffffffffffffffff1916145b80610d215750610d20826114d4565b5b9050919050565b610d318161153e565b610d70576040517f08c379a0000000000000000000000000000000000000000000000000000000008152600401610d679061246e565b60405180910390fd5b50565b600033905090565b816004600083815260200190815260200160002060006101000a81548173ffffffffffffffffffffffffffffffffffffffff021916908373ffffffffffffffffffffffffffffffffffffffff160217905550808273ffffffffffffffffffffffffffffffffffffffff16610dee836107c4565b73ffffffffffffffffffffffffffffffffffffffff167f8c5be1e5ebec7d5bd14f71427d1e84f3dd0314c0f7b2291e5b200ac8c7c3b92560405160405180910390a45050565b600080610e40836107c4565b90508073ffffffffffffffffffffffffffffffffffffffff168473ffffffffffffffffffffffffffffffffffffffff161480610e825750610e818185610bb2565b5b80610ec057508373ffffffffffffffffffffffffffffffffffffffff16610ea884610546565b73ffffffffffffffffffffffffffffffffffffffff16145b91505092915050565b8273ffffffffffffffffffffffffffffffffffffffff16610ee9826107c4565b73ffffffffffffffffffffffffffffffffffffffff1614610f3f576040517f08c379a0000000000000000000000000000000000000000000000000000000008152600401610f36906127d3565b60405180910390fd5b600073ffffffffffffffffffffffffffffffffffffffff168273ffffffffffffffffffffffffffffffffffffffff1603610fae576040517f08c379a0000000000000000000000000000000000000000000000000000000008152600401610fa590612865565b60405180910390fd5b610fbb838383600161157f565b8273ffffffffffffffffffffffffffffffffffffffff16610fdb826107c4565b73ffffffffffffffffffffffffffffffffffffffff1614611031576040517f08c379a0000000000000000000000000000000000000000000000000000000008152600401611028906127d3565b60405180910390fd5b6004600082815260200190815260200160002060006101000a81549073ffffffffffffffffffffffffffffffffffffffff02191690556001600360008573ffffffffffffffffffffffffffffffffffffffff1673ffffffffffffffffffffffffffffffffffffffff168152602001908152602001600020600082825403925050819055506001600360008473ffffffffffffffffffffffffffffffffffffffff1673ffffffffffffffffffffffffffffffffffffffff16815260200190815260200160002060008282540192505081905550816002600083815260200190815260200160002060006101000a81548173ffffffffffffffffffffffffffffffffffffffff021916908373ffffffffffffffffffffffffffffffffffffffff160217905550808273ffffffffffffffffffffffffffffffffffffffff168473ffffffffffffffffffffffffffffffffffffffff167fddf252ad1be2c89b69c2b068fc378daa952ba7f163c4a11628f55a4df523b3ef60405160405180910390a46111bd8383836001611585565b505050565b60006002600083815260200190815260200160002060009054906101000a900473ffffffffffffffffffffffffffffffffffffffff169050919050565b8173ffffffffffffffffffffffffffffffffffffffff168373ffffffffffffffffffffffffffffffffffffffff160361126d576040517f08c379a0000000000000000000000000000000000000000000000000000000008152600401611264906128d1565b60405180910390fd5b80600560008573ffffffffffffffffffffffffffffffffffffffff1673ffffffffffffffffffffffffffffffffffffffff16815260200190815260200160002060008473ffffffffffffffffffffffffffffffffffffffff1673ffffffffffffffffffffffffffffffffffffffff16815260200190815260200160002060006101000a81548160ff0219169083151502179055508173ffffffffffffffffffffffffffffffffffffffff168373ffffffffffffffffffffffffffffffffffffffff167f17307eab39ab6107e8899845ad3d59bd9653f200f220920489ca2b5937696c318360405161135e9190611bfd565b60405180910390a3505050565b611376848484610ec9565b6113828484848461158b565b6113c1576040517f08c379a00000000000000000000000000000000000000000000000000000000081526004016113b890612963565b60405180910390fd5b50505050565b60006113d33383611712565b6113dd828461192f565b81905092915050565b6060604051806060016040528060368152602001612e4f60369139905090565b606060006001611415846119d3565b01905060008167ffffffffffffffff81111561143457611433611f15565b5b6040519080825280601f01601f1916602001820160405280156114665781602001600182028036833780820191505090505b509050600082602001820190505b6001156114c9578080600190039150507f3031323334353637383961626364656600000000000000000000000000000000600a86061a8153600a85816114bd576114bc61264a565b5b04945060008503611474575b819350505050919050565b60007f01ffc9a7000000000000000000000000000000000000000000000000000000007bffffffffffffffffffffffffffffffffffffffffffffffffffffffff1916827bffffffffffffffffffffffffffffffffffffffffffffffffffffffff1916149050919050565b60008073ffffffffffffffffffffffffffffffffffffffff16611560836111c2565b73ffffffffffffffffffffffffffffffffffffffff1614159050919050565b50505050565b50505050565b60006115ac8473ffffffffffffffffffffffffffffffffffffffff16611b26565b15611705578373ffffffffffffffffffffffffffffffffffffffff1663150b7a026115d5610d73565b8786866040518563ffffffff1660e01b81526004016115f794939291906129d8565b6020604051808303816000875af192505050801561163357506040513d601f19601f820116820180604052508101906116309190612a39565b60015b6116b5573d8060008114611663576040519150601f19603f3d011682016040523d82523d6000602084013e611668565b606091505b5060008151036116ad576040517f08c379a00000000000000000000000000000000000000000000000000000000081526004016116a490612963565b60405180910390fd5b805181602001fd5b63150b7a0260e01b7bffffffffffffffffffffffffffffffffffffffffffffffffffffffff1916817bffffffffffffffffffffffffffffffffffffffffffffffffffffffff19161491505061170a565b600190505b949350505050565b600073ffffffffffffffffffffffffffffffffffffffff168273ffffffffffffffffffffffffffffffffffffffff1603611781576040517f08c379a000000000000000000000000000000000000000000000000000000000815260040161177890612ab2565b60405180910390fd5b61178a8161153e565b156117ca576040517f08c379a00000000000000000000000000000000000000000000000000000000081526004016117c190612b1e565b60405180910390fd5b6117d860008383600161157f565b6117e18161153e565b15611821576040517f08c379a000000000000000000000000000000000000000000000000000000000815260040161181890612b1e565b60405180910390fd5b6001600360008473ffffffffffffffffffffffffffffffffffffffff1673ffffffffffffffffffffffffffffffffffffffff16815260200190815260200160002060008282540192505081905550816002600083815260200190815260200160002060006101000a81548173ffffffffffffffffffffffffffffffffffffffff021916908373ffffffffffffffffffffffffffffffffffffffff160217905550808273ffffffffffffffffffffffffffffffffffffffff16600073ffffffffffffffffffffffffffffffffffffffff167fddf252ad1be2c89b69c2b068fc378daa952ba7f163c4a11628f55a4df523b3ef60405160405180910390a461192b600083836001611585565b5050565b6119388261153e565b611977576040517f08c379a000000000000000000000000000000000000000000000000000000000815260040161196e90612bb0565b60405180910390fd5b806006600084815260200190815260200160002090816119979190612d7c565b507ff8e1a15aba9398e019f0b49df1a4fde98ee17ae345cb5f6b5e2c27f5033e8ce7826040516119c79190611e57565b60405180910390a15050565b600080600090507a184f03e93ff9f4daa797ed6e38ed64bf6a1f0100000000000000008310611a31577a184f03e93ff9f4daa797ed6e38ed64bf6a1f0100000000000000008381611a2757611a2661264a565b5b0492506040810190505b6d04ee2d6d415b85acef81000000008310611a6e576d04ee2d6d415b85acef81000000008381611a6457611a6361264a565b5b0492506020810190505b662386f26fc100008310611a9d57662386f26fc100008381611a9357611a9261264a565b5b0492506010810190505b6305f5e1008310611ac6576305f5e1008381611abc57611abb61264a565b5b0492506008810190505b6127108310611aeb576127108381611ae157611ae061264a565b5b0492506004810190505b60648310611b0e5760648381611b0457611b0361264a565b5b0492506002810190505b600a8310611b1d576001810190505b80915050919050565b6000808273ffffffffffffffffffffffffffffffffffffffff163b119050919050565b6000604051905090565b600080fd5b600080fd5b60007fffffffff0000000000000000000000000000000000000000000000000000000082169050919050565b611b9281611b5d565b8114611b9d57600080fd5b50565b600081359050611baf81611b89565b92915050565b600060208284031215611bcb57611bca611b53565b5b6000611bd984828501611ba0565b91505092915050565b60008115159050919050565b611bf781611be2565b82525050565b6000602082019050611c126000830184611bee565b92915050565b600081519050919050565b600082825260208201905092915050565b60005b83811015611c52578082015181840152602081019050611c37565b60008484015250505050565b6000601f19601f8301169050919050565b6000611c7a82611c18565b611c848185611c23565b9350611c94818560208601611c34565b611c9d81611c5e565b840191505092915050565b60006020820190508181036000830152611cc28184611c6f565b905092915050565b6000819050919050565b611cdd81611cca565b8114611ce857600080fd5b50565b600081359050611cfa81611cd4565b92915050565b600060208284031215611d1657611d15611b53565b5b6000611d2484828501611ceb565b91505092915050565b600073ffffffffffffffffffffffffffffffffffffffff82169050919050565b6000611d5882611d2d565b9050919050565b611d6881611d4d565b82525050565b6000602082019050611d836000830184611d5f565b92915050565b611d9281611d4d565b8114611d9d57600080fd5b50565b600081359050611daf81611d89565b92915050565b60008060408385031215611dcc57611dcb611b53565b5b6000611dda85828601611da0565b9250506020611deb85828601611ceb565b9150509250929050565b600080600060608486031215611e0e57611e0d611b53565b5b6000611e1c86828701611da0565b9350506020611e2d86828701611da0565b9250506040611e3e86828701611ceb565b9150509250925092565b611e5181611cca565b82525050565b6000602082019050611e6c6000830184611e48565b92915050565b600060208284031215611e8857611e87611b53565b5b6000611e9684828501611da0565b91505092915050565b611ea881611be2565b8114611eb357600080fd5b50565b600081359050611ec581611e9f565b92915050565b60008060408385031215611ee257611ee1611b53565b5b6000611ef085828601611da0565b9250506020611f0185828601611eb6565b9150509250929050565b600080fd5b600080fd5b7f4e487b7100000000000000000000000000000000000000000000000000000000600052604160045260246000fd5b611f4d82611c5e565b810181811067ffffffffffffffff82111715611f6c57611f6b611f15565b5b80604052505050565b6000611f7f611b49565b9050611f8b8282611f44565b919050565b600067ffffffffffffffff821115611fab57611faa611f15565b5b611fb482611c5e565b9050602081019050919050565b82818337600083830152505050565b6000611fe3611fde84611f90565b611f75565b905082815260208101848484011115611fff57611ffe611f10565b5b61200a848285611fc1565b509392505050565b600082601f83011261202757612026611f0b565b5b8135612037848260208601611fd0565b91505092915050565b6000806000806080858703121561205a57612059611b53565b5b600061206887828801611da0565b945050602061207987828801611da0565b935050604061208a87828801611ceb565b925050606085013567ffffffffffffffff8111156120ab576120aa611b58565b5b6120b787828801612012565b91505092959194509250565b600080604083850312156120da576120d9611b53565b5b60006120e885828601611da0565b92505060206120f985828601611da0565b9150509250929050565b7f4e487b7100000000000000000000000000000000000000000000000000000000600052602260045260246000fd5b6000600282049050600182168061214a57607f821691505b60208210810361215d5761215c612103565b5b50919050565b7f4552433732313a20617070726f76616c20746f2063757272656e74206f776e6560008201527f7200000000000000000000000000000000000000000000000000000000000000602082015250565b60006121bf602183611c23565b91506121ca82612163565b604082019050919050565b600060208201905081810360008301526121ee816121b2565b9050919050565b7f4552433732313a20617070726f76652063616c6c6572206973206e6f7420746f60008201527f6b656e206f776e6572206f7220617070726f76656420666f7220616c6c000000602082015250565b6000612251603d83611c23565b915061225c826121f5565b604082019050919050565b6000602082019050818103600083015261228081612244565b9050919050565b7f4552433732313a2063616c6c6572206973206e6f7420746f6b656e206f776e6560008201527f72206f7220617070726f76656400000000000000000000000000000000000000602082015250565b60006122e3602d83611c23565b91506122ee82612287565b604082019050919050565b60006020820190508181036000830152612312816122d6565b9050919050565b7f53656e642074686520636f727265637420616d6f756e7420746f20627579206160008201527f206c6f6f74626f78000000000000000000000000000000000000000000000000602082015250565b6000612375602883611c23565b915061238082612319565b604082019050919050565b600060208201905081810360008301526123a481612368565b9050919050565b7f4e487b7100000000000000000000000000000000000000000000000000000000600052601160045260246000fd5b60006123e582611cca565b91507fffffffffffffffffffffffffffffffffffffffffffffffffffffffffffffffff8203612417576124166123ab565b5b600182019050919050565b7f4552433732313a20696e76616c696420746f6b656e2049440000000000000000600082015250565b6000612458601883611c23565b915061246382612422565b602082019050919050565b600060208201905081810360008301526124878161244b565b9050919050565b7f4552433732313a2061646472657373207a65726f206973206e6f74206120766160008201527f6c6964206f776e65720000000000000000000000000000000000000000000000602082015250565b60006124ea602983611c23565b91506124f58261248e565b604082019050919050565b60006020820190508181036000830152612519816124dd565b9050919050565b7f596f75206d75737420686176652061206c6f6f74626f78000000000000000000600082015250565b6000612556601783611c23565b915061256182612520565b602082019050919050565b6000602082019050818103600083015261258581612549565b9050919050565b600061259782611cca565b9150600082036125aa576125a96123ab565b5b600182039050919050565b6000819050919050565b6125d06125cb82611cca565b6125b5565b82525050565b60008160601b9050919050565b60006125ee826125d6565b9050919050565b6000612600826125e3565b9050919050565b61261861261382611d4d565b6125f5565b82525050565b600061262a82856125bf565b60208201915061263a8284612607565b6014820191508190509392505050565b7f4e487b7100000000000000000000000000000000000000000000000000000000600052601260045260246000fd5b600061268482611cca565b915061268f83611cca565b92508261269f5761269e61264a565b5b828206905092915050565b600081905092915050565b60006126c082611c18565b6126ca81856126aa565b93506126da818560208601611c34565b80840191505092915050565b7f2e6a736f6e000000000000000000000000000000000000000000000000000000600082015250565b600061271c6005836126aa565b9150612727826126e6565b600582019050919050565b600061273e82856126b5565b915061274a82846126b5565b91506127558261270f565b91508190509392505050565b7f4552433732313a207472616e736665722066726f6d20696e636f72726563742060008201527f6f776e6572000000000000000000000000000000000000000000000000000000602082015250565b60006127bd602583611c23565b91506127c882612761565b604082019050919050565b600060208201905081810360008301526127ec816127b0565b9050919050565b7f4552433732313a207472616e7366657220746f20746865207a65726f2061646460008201527f7265737300000000000000000000000000000000000000000000000000000000602082015250565b600061284f602483611c23565b915061285a826127f3565b604082019050919050565b6000602082019050818103600083015261287e81612842565b9050919050565b7f4552433732313a20617070726f766520746f2063616c6c657200000000000000600082015250565b60006128bb601983611c23565b91506128c682612885565b602082019050919050565b600060208201905081810360008301526128ea816128ae565b9050919050565b7f4552433732313a207472616e7366657220746f206e6f6e20455243373231526560008201527f63656976657220696d706c656d656e7465720000000000000000000000000000602082015250565b600061294d603283611c23565b9150612958826128f1565b604082019050919050565b6000602082019050818103600083015261297c81612940565b9050919050565b600081519050919050565b600082825260208201905092915050565b60006129aa82612983565b6129b4818561298e565b93506129c4818560208601611c34565b6129cd81611c5e565b840191505092915050565b60006080820190506129ed6000830187611d5f565b6129fa6020830186611d5f565b612a076040830185611e48565b8181036060830152612a19818461299f565b905095945050505050565b600081519050612a3381611b89565b92915050565b600060208284031215612a4f57612a4e611b53565b5b6000612a5d84828501612a24565b91505092915050565b7f4552433732313a206d696e7420746f20746865207a65726f2061646472657373600082015250565b6000612a9c602083611c23565b9150612aa782612a66565b602082019050919050565b60006020820190508181036000830152612acb81612a8f565b9050919050565b7f4552433732313a20746f6b656e20616c7265616479206d696e74656400000000600082015250565b6000612b08601c83611c23565b9150612b1382612ad2565b602082019050919050565b60006020820190508181036000830152612b3781612afb565b9050919050565b7f45524337323155524953746f726167653a2055524920736574206f66206e6f6e60008201527f6578697374656e7420746f6b656e000000000000000000000000000000000000602082015250565b6000612b9a602e83611c23565b9150612ba582612b3e565b604082019050919050565b60006020820190508181036000830152612bc981612b8d565b9050919050565b60008190508160005260206000209050919050565b60006020601f8301049050919050565b600082821b905092915050565b600060088302612c327fffffffffffffffffffffffffffffffffffffffffffffffffffffffffffffffff82612bf5565b612c3c8683612bf5565b95508019841693508086168417925050509392505050565b6000819050919050565b6000612c79612c74612c6f84611cca565b612c54565b611cca565b9050919050565b6000819050919050565b612c9383612c5e565b612ca7612c9f82612c80565b848454612c02565b825550505050565b600090565b612cbc612caf565b612cc7818484612c8a565b505050565b5b81811015612ceb57612ce0600082612cb4565b600181019050612ccd565b5050565b601f821115612d3057612d0181612bd0565b612d0a84612be5565b81016020851015612d19578190505b612d2d612d2585612be5565b830182612ccc565b50505b505050565b600082821c905092915050565b6000612d5360001984600802612d35565b1980831691505092915050565b6000612d6c8383612d42565b9150826002028217905092915050565b612d8582611c18565b67ffffffffffffffff811115612d9e57612d9d611f15565b5b612da88254612132565b612db3828285612cef565b600060209050601f831160018114612de65760008415612dd4578287015190505b612dde8582612d60565b865550612e46565b601f198416612df486612bd0565b60005b82811015612e1c57848901518255600182019150602085019450602081019050612df7565b86831015612e395784890151612e35601f891682612d42565b8355505b6001600288020188555050505b50505050505056fe697066733a2f2f516d65367a7134394a795334547537694b6951375642754c6675794674367a4b524877415a794171623641456f592fa26469706673582212204d76268426f736150a8acc4adce3776291bce7663b8ea0bdffb7e5462900569b64736f6c63430008130033",
  "linkReferences": {},
  "deployedLinkReferences": {}
}