{
  "_format": "hh-sol-artifact-1",
  "contractName": "Exchange",
  "sourceName": "contracts/Exchange.sol",
  "abi": [
    {
      "inputs": [
        {
          "internalType": "address",
          "name": "_tokenAddress",
          "type": "address"
        }
      ],
      "stateMutability": "nonpayable",
      "type": "constructor"
    },
    {
      "anonymous": false,
      "inputs": [
        {
          "indexed": true,
          "internalType": "address",
          "name": "owner",
          "type": "address"
        },
        {
          "indexed": true,
          "internalType": "address",
          "name": "spender",
          "type": "address"
        },
        {
          "indexed": false,
          "internalType": "uint256",
          "name": "value",
          "type": "uint256"
        }
      ],
      "name": "Approval",
      "type": "event"
    },
    {
      "anonymous": false,
      "inputs": [
        {
          "indexed": true,
          "internalType": "address",
          "name": "from",
          "type": "address"
        },
        {
          "indexed": true,
          "internalType": "address",
          "name": "to",
          "type": "address"
        },
        {
          "indexed": false,
          "internalType": "uint256",
          "name": "value",
          "type": "uint256"
        }
      ],
      "name": "Transfer",
      "type": "event"
    },
    {
      "inputs": [
        {
          "internalType": "uint256",
          "name": "_amount",
          "type": "uint256"
        }
      ],
      "name": "addLiquidity",
      "outputs": [
        {
          "internalType": "uint256",
          "name": "",
          "type": "uint256"
        }
      ],
      "stateMutability": "payable",
      "type": "function"
    },
    {
      "inputs": [
        {
          "internalType": "address",
          "name": "owner",
          "type": "address"
        },
        {
          "internalType": "address",
          "name": "spender",
          "type": "address"
        }
      ],
      "name": "allowance",
      "outputs": [
        {
          "internalType": "uint256",
          "name": "",
          "type": "uint256"
        }
      ],
      "stateMutability": "view",
      "type": "function"
    },
    {
      "inputs": [
        {
          "internalType": "address",
          "name": "spender",
          "type": "address"
        },
        {
          "internalType": "uint256",
          "name": "amount",
          "type": "uint256"
        }
      ],
      "name": "approve",
      "outputs": [
        {
          "internalType": "bool",
          "name": "",
          "type": "bool"
        }
      ],
      "stateMutability": "nonpayable",
      "type": "function"
    },
    {
      "inputs": [
        {
          "internalType": "address",
          "name": "account",
          "type": "address"
        }
      ],
      "name": "balanceOf",
      "outputs": [
        {
          "internalType": "uint256",
          "name": "",
          "type": "uint256"
        }
      ],
      "stateMutability": "view",
      "type": "function"
    },
    {
      "inputs": [],
      "name": "decimals",
      "outputs": [
        {
          "internalType": "uint8",
          "name": "",
          "type": "uint8"
        }
      ],
      "stateMutability": "view",
      "type": "function"
    },
    {
      "inputs": [
        {
          "internalType": "address",
          "name": "spender",
          "type": "address"
        },
        {
          "internalType": "uint256",
          "name": "subtractedValue",
          "type": "uint256"
        }
      ],
      "name": "decreaseAllowance",
      "outputs": [
        {
          "internalType": "bool",
          "name": "",
          "type": "bool"
        }
      ],
      "stateMutability": "nonpayable",
      "type": "function"
    },
    {
      "inputs": [
        {
          "internalType": "uint256",
          "name": "_minTokens",
          "type": "uint256"
        }
      ],
      "name": "ethToMyToken",
      "outputs": [],
      "stateMutability": "payable",
      "type": "function"
    },
    {
      "inputs": [
        {
          "internalType": "uint256",
          "name": "inputAmount",
          "type": "uint256"
        },
        {
          "internalType": "uint256",
          "name": "inputReserve",
          "type": "uint256"
        },
        {
          "internalType": "uint256",
          "name": "outputReserve",
          "type": "uint256"
        }
      ],
      "name": "getAmountOfTokens",
      "outputs": [
        {
          "internalType": "uint256",
          "name": "",
          "type": "uint256"
        }
      ],
      "stateMutability": "pure",
      "type": "function"
    },
    {
      "inputs": [],
      "name": "getReserve",
      "outputs": [
        {
          "internalType": "uint256",
          "name": "",
          "type": "uint256"
        }
      ],
      "stateMutability": "view",
      "type": "function"
    },
    {
      "inputs": [
        {
          "internalType": "address",
          "name": "spender",
          "type": "address"
        },
        {
          "internalType": "uint256",
          "name": "addedValue",
          "type": "uint256"
        }
      ],
      "name": "increaseAllowance",
      "outputs": [
        {
          "internalType": "bool",
          "name": "",
          "type": "bool"
        }
      ],
      "stateMutability": "nonpayable",
      "type": "function"
    },
    {
      "inputs": [
        {
          "internalType": "uint256",
          "name": "_tokensSold",
          "type": "uint256"
        },
        {
          "internalType": "uint256",
          "name": "_minEth",
          "type": "uint256"
        }
      ],
      "name": "myTokenToEth",
      "outputs": [],
      "stateMutability": "payable",
      "type": "function"
    },
    {
      "inputs": [],
      "name": "name",
      "outputs": [
        {
          "internalType": "string",
          "name": "",
          "type": "string"
        }
      ],
      "stateMutability": "view",
      "type": "function"
    },
    {
      "inputs": [
        {
          "internalType": "uint256",
          "name": "_amount",
          "type": "uint256"
        }
      ],
      "name": "removeLiquidity",
      "outputs": [
        {
          "internalType": "uint256",
          "name": "",
          "type": "uint256"
        },
        {
          "internalType": "uint256",
          "name": "",
          "type": "uint256"
        }
      ],
      "stateMutability": "nonpayable",
      "type": "function"
    },
    {
      "inputs": [],
      "name": "symbol",
      "outputs": [
        {
          "internalType": "string",
          "name": "",
          "type": "string"
        }
      ],
      "stateMutability": "view",
      "type": "function"
    },
    {
      "inputs": [],
      "name": "tokenAddress",
      "outputs": [
        {
          "internalType": "address",
          "name": "",
          "type": "address"
        }
      ],
      "stateMutability": "view",
      "type": "function"
    },
    {
      "inputs": [],
      "name": "totalSupply",
      "outputs": [
        {
          "internalType": "uint256",
          "name": "",
          "type": "uint256"
        }
      ],
      "stateMutability": "view",
      "type": "function"
    },
    {
      "inputs": [
        {
          "internalType": "address",
          "name": "to",
          "type": "address"
        },
        {
          "internalType": "uint256",
          "name": "amount",
          "type": "uint256"
        }
      ],
      "name": "transfer",
      "outputs": [
        {
          "internalType": "bool",
          "name": "",
          "type": "bool"
        }
      ],
      "stateMutability": "nonpayable",
      "type": "function"
    },
    {
      "inputs": [
        {
          "internalType": "address",
          "name": "from",
          "type": "address"
        },
        {
          "internalType": "address",
          "name": "to",
          "type": "address"
        },
        {
          "internalType": "uint256",
          "name": "amount",
          "type": "uint256"
        }
      ],
      "name": "transferFrom",
      "outputs": [
        {
          "internalType": "bool",
          "name": "",
          "type": "bool"
        }
      ],
      "stateMutability": "nonpayable",
      "type": "function"
    }
  ],
  "bytecode": "0x60806040523480156200001157600080fd5b5060405162002b4038038062002b408339818101604052810190620000379190620001ed565b6040518060400160405280601681526020017f4f6e6520436f6d6d756e697479204c5020546f6b656e000000000000000000008152506040518060400160405280600481526020017f4f434c50000000000000000000000000000000000000000000000000000000008152508160039081620000b4919062000499565b508060049081620000c6919062000499565b505050600073ffffffffffffffffffffffffffffffffffffffff168173ffffffffffffffffffffffffffffffffffffffff16036200013b576040517f08c379a00000000000000000000000000000000000000000000000000000000081526004016200013290620005e1565b60405180910390fd5b80600560006101000a81548173ffffffffffffffffffffffffffffffffffffffff021916908373ffffffffffffffffffffffffffffffffffffffff1602179055505062000603565b600080fd5b600073ffffffffffffffffffffffffffffffffffffffff82169050919050565b6000620001b58262000188565b9050919050565b620001c781620001a8565b8114620001d357600080fd5b50565b600081519050620001e781620001bc565b92915050565b60006020828403121562000206576200020562000183565b5b60006200021684828501620001d6565b91505092915050565b600081519050919050565b7f4e487b7100000000000000000000000000000000000000000000000000000000600052604160045260246000fd5b7f4e487b7100000000000000000000000000000000000000000000000000000000600052602260045260246000fd5b60006002820490506001821680620002a157607f821691505b602082108103620002b757620002b662000259565b5b50919050565b60008190508160005260206000209050919050565b60006020601f8301049050919050565b600082821b905092915050565b600060088302620003217fffffffffffffffffffffffffffffffffffffffffffffffffffffffffffffffff82620002e2565b6200032d8683620002e2565b95508019841693508086168417925050509392505050565b6000819050919050565b6000819050919050565b60006200037a620003746200036e8462000345565b6200034f565b62000345565b9050919050565b6000819050919050565b620003968362000359565b620003ae620003a58262000381565b848454620002ef565b825550505050565b600090565b620003c5620003b6565b620003d28184846200038b565b505050565b5b81811015620003fa57620003ee600082620003bb565b600181019050620003d8565b5050565b601f82111562000449576200041381620002bd565b6200041e84620002d2565b810160208510156200042e578190505b620004466200043d85620002d2565b830182620003d7565b50505b505050565b600082821c905092915050565b60006200046e600019846008026200044e565b1980831691505092915050565b60006200048983836200045b565b9150826002028217905092915050565b620004a4826200021f565b67ffffffffffffffff811115620004c057620004bf6200022a565b5b620004cc825462000288565b620004d9828285620003fe565b600060209050601f831160018114620005115760008415620004fc578287015190505b6200050885826200047b565b86555062000578565b601f1984166200052186620002bd565b60005b828110156200054b5784890151825560018201915060208501945060208101905062000524565b868310156200056b578489015162000567601f8916826200045b565b8355505b6001600288020188555050505b505050505050565b600082825260208201905092915050565b7f43616e6e6f742062652061646472657373207a65726f2e000000000000000000600082015250565b6000620005c960178362000580565b9150620005d68262000591565b602082019050919050565b60006020820190508181036000830152620005fc81620005ba565b9050919050565b61252d80620006136000396000f3fe6080604052600436106101095760003560e01c806370a08231116100955780639d76ea58116100645780639d76ea58146103a0578063a457c2d7146103cb578063a9059cbb14610408578063c0b3e4fe14610445578063dd62ed3e1461046157610109565b806370a08231146102bd5780637386479e146102fa57806395d89b41146103375780639c8f9f231461036257610109565b806323b872dd116100dc57806323b872dd146101bd578063313ce567146101fa578063395093511461022557806351c6590a1461026257806359bf5d391461029257610109565b806306c052f91461010e57806306fdde031461012a578063095ea7b31461015557806318160ddd14610192575b600080fd5b6101286004803603810190610123919061176b565b61049e565b005b34801561013657600080fd5b5061013f6105f7565b60405161014c919061183b565b60405180910390f35b34801561016157600080fd5b5061017c600480360381019061017791906118bb565b610689565b6040516101899190611916565b60405180910390f35b34801561019e57600080fd5b506101a76106ac565b6040516101b49190611940565b60405180910390f35b3480156101c957600080fd5b506101e460048036038101906101df919061195b565b6106b6565b6040516101f19190611916565b60405180910390f35b34801561020657600080fd5b5061020f6106e5565b60405161021c91906119ca565b60405180910390f35b34801561023157600080fd5b5061024c600480360381019061024791906118bb565b6106ee565b6040516102599190611916565b60405180910390f35b61027c600480360381019061027791906119e5565b610725565b6040516102899190611940565b60405180910390f35b34801561029e57600080fd5b506102a7610923565b6040516102b49190611940565b60405180910390f35b3480156102c957600080fd5b506102e460048036038101906102df9190611a12565b6109c6565b6040516102f19190611940565b60405180910390f35b34801561030657600080fd5b50610321600480360381019061031c9190611a3f565b610a0e565b60405161032e9190611940565b60405180910390f35b34801561034357600080fd5b5061034c610ab3565b604051610359919061183b565b60405180910390f35b34801561036e57600080fd5b50610389600480360381019061038491906119e5565b610b45565b604051610397929190611a92565b60405180910390f35b3480156103ac57600080fd5b506103b5610cda565b6040516103c29190611aca565b60405180910390f35b3480156103d757600080fd5b506103f260048036038101906103ed91906118bb565b610d00565b6040516103ff9190611916565b60405180910390f35b34801561041457600080fd5b5061042f600480360381019061042a91906118bb565b610d77565b60405161043c9190611916565b60405180910390f35b61045f600480360381019061045a91906119e5565b610d9a565b005b34801561046d57600080fd5b5061048860048036038101906104839190611ae5565b610ea9565b6040516104959190611940565b60405180910390f35b60006104a8610923565b905060006104c2848334476104bd9190611b54565b610a0e565b905082811015610507576040517f08c379a00000000000000000000000000000000000000000000000000000000081526004016104fe90611bd4565b60405180910390fd5b600560009054906101000a900473ffffffffffffffffffffffffffffffffffffffff1673ffffffffffffffffffffffffffffffffffffffff166323b872dd3330876040518463ffffffff1660e01b815260040161056693929190611bf4565b6020604051808303816000875af1158015610585573d6000803e3d6000fd5b505050506040513d601f19601f820116820180604052508101906105a99190611c57565b503373ffffffffffffffffffffffffffffffffffffffff166108fc829081150290604051600060405180830381858888f193505050501580156105f0573d6000803e3d6000fd5b5050505050565b60606003805461060690611cb3565b80601f016020809104026020016040519081016040528092919081815260200182805461063290611cb3565b801561067f5780601f106106545761010080835404028352916020019161067f565b820191906000526020600020905b81548152906001019060200180831161066257829003601f168201915b5050505050905090565b600080610694610f30565b90506106a1818585610f38565b600191505092915050565b6000600254905090565b6000806106c1610f30565b90506106ce858285611101565b6106d985858561118d565b60019150509392505050565b60006012905090565b6000806106f9610f30565b905061071a81858561070b8589610ea9565b6107159190611ce4565b610f38565b600191505092915050565b60008060004790506000610737610923565b90506000600560009054906101000a900473ffffffffffffffffffffffffffffffffffffffff169050600082036107fb578073ffffffffffffffffffffffffffffffffffffffff166323b872dd3330896040518463ffffffff1660e01b81526004016107a593929190611bf4565b6020604051808303816000875af11580156107c4573d6000803e3d6000fd5b505050506040513d601f19601f820116820180604052508101906107e89190611c57565b508293506107f63385611403565b610917565b600034846108099190611b54565b9050600081843461081a9190611d18565b6108249190611d89565b905080881015610869576040517f08c379a000000000000000000000000000000000000000000000000000000000815260040161086090611e2c565b60405180910390fd5b8273ffffffffffffffffffffffffffffffffffffffff166323b872dd3330846040518463ffffffff1660e01b81526004016108a693929190611bf4565b6020604051808303816000875af11580156108c5573d6000803e3d6000fd5b505050506040513d601f19601f820116820180604052508101906108e99190611c57565b5081346108f46106ac565b6108fe9190611d18565b6109089190611d89565b95506109143387611403565b50505b83945050505050919050565b6000600560009054906101000a900473ffffffffffffffffffffffffffffffffffffffff1673ffffffffffffffffffffffffffffffffffffffff166370a08231306040518263ffffffff1660e01b81526004016109809190611aca565b602060405180830381865afa15801561099d573d6000803e3d6000fd5b505050506040513d601f19601f820116820180604052508101906109c19190611e61565b905090565b60008060008373ffffffffffffffffffffffffffffffffffffffff1673ffffffffffffffffffffffffffffffffffffffff168152602001908152602001600020549050919050565b60008083118015610a1f5750600082115b610a5e576040517f08c379a0000000000000000000000000000000000000000000000000000000008152600401610a5590611eda565b60405180910390fd5b6000606385610a6d9190611d18565b905060008382610a7d9190611d18565b9050600082606487610a8f9190611d18565b610a999190611ce4565b90508082610aa79190611d89565b93505050509392505050565b606060048054610ac290611cb3565b80601f0160208091040260200160405190810160405280929190818152602001828054610aee90611cb3565b8015610b3b5780601f10610b1057610100808354040283529160200191610b3b565b820191906000526020600020905b815481529060010190602001808311610b1e57829003601f168201915b5050505050905090565b60008060008311610b8b576040517f08c379a0000000000000000000000000000000000000000000000000000000008152600401610b8290611f46565b60405180910390fd5b60004790506000610b9a6106ac565b90506000818684610bab9190611d18565b610bb59190611d89565b905060008287610bc3610923565b610bcd9190611d18565b610bd79190611d89565b9050610be33388611559565b3373ffffffffffffffffffffffffffffffffffffffff166108fc839081150290604051600060405180830381858888f19350505050158015610c29573d6000803e3d6000fd5b50600560009054906101000a900473ffffffffffffffffffffffffffffffffffffffff1673ffffffffffffffffffffffffffffffffffffffff1663a9059cbb33836040518363ffffffff1660e01b8152600401610c87929190611f66565b6020604051808303816000875af1158015610ca6573d6000803e3d6000fd5b505050506040513d601f19601f82011682018060405250810190610cca9190611c57565b5081819550955050505050915091565b600560009054906101000a900473ffffffffffffffffffffffffffffffffffffffff1681565b600080610d0b610f30565b90506000610d198286610ea9565b905083811015610d5e576040517f08c379a0000000000000000000000000000000000000000000000000000000008152600401610d5590612001565b60405180910390fd5b610d6b8286868403610f38565b60019250505092915050565b600080610d82610f30565b9050610d8f81858561118d565b600191505092915050565b6000610da4610923565b90506000610dbe343447610db89190611b54565b84610a0e565b905082811015610e03576040517f08c379a0000000000000000000000000000000000000000000000000000000008152600401610dfa90611bd4565b60405180910390fd5b600560009054906101000a900473ffffffffffffffffffffffffffffffffffffffff1673ffffffffffffffffffffffffffffffffffffffff1663a9059cbb33836040518363ffffffff1660e01b8152600401610e60929190611f66565b6020604051808303816000875af1158015610e7f573d6000803e3d6000fd5b505050506040513d601f19601f82011682018060405250810190610ea39190611c57565b50505050565b6000600160008473ffffffffffffffffffffffffffffffffffffffff1673ffffffffffffffffffffffffffffffffffffffff16815260200190815260200160002060008373ffffffffffffffffffffffffffffffffffffffff1673ffffffffffffffffffffffffffffffffffffffff16815260200190815260200160002054905092915050565b600033905090565b600073ffffffffffffffffffffffffffffffffffffffff168373ffffffffffffffffffffffffffffffffffffffff1603610fa7576040517f08c379a0000000000000000000000000000000000000000000000000000000008152600401610f9e90612093565b60405180910390fd5b600073ffffffffffffffffffffffffffffffffffffffff168273ffffffffffffffffffffffffffffffffffffffff1603611016576040517f08c379a000000000000000000000000000000000000000000000000000000000815260040161100d90612125565b60405180910390fd5b80600160008573ffffffffffffffffffffffffffffffffffffffff1673ffffffffffffffffffffffffffffffffffffffff16815260200190815260200160002060008473ffffffffffffffffffffffffffffffffffffffff1673ffffffffffffffffffffffffffffffffffffffff168152602001908152602001600020819055508173ffffffffffffffffffffffffffffffffffffffff168373ffffffffffffffffffffffffffffffffffffffff167f8c5be1e5ebec7d5bd14f71427d1e84f3dd0314c0f7b2291e5b200ac8c7c3b925836040516110f49190611940565b60405180910390a3505050565b600061110d8484610ea9565b90507fffffffffffffffffffffffffffffffffffffffffffffffffffffffffffffffff81146111875781811015611179576040517f08c379a000000000000000000000000000000000000000000000000000000000815260040161117090612191565b60405180910390fd5b6111868484848403610f38565b5b50505050565b600073ffffffffffffffffffffffffffffffffffffffff168373ffffffffffffffffffffffffffffffffffffffff16036111fc576040517f08c379a00000000000000000000000000000000000000000000000000000000081526004016111f390612223565b60405180910390fd5b600073ffffffffffffffffffffffffffffffffffffffff168273ffffffffffffffffffffffffffffffffffffffff160361126b576040517f08c379a0000000000000000000000000000000000000000000000000000000008152600401611262906122b5565b60405180910390fd5b611276838383611726565b60008060008573ffffffffffffffffffffffffffffffffffffffff1673ffffffffffffffffffffffffffffffffffffffff168152602001908152602001600020549050818110156112fc576040517f08c379a00000000000000000000000000000000000000000000000000000000081526004016112f390612347565b60405180910390fd5b8181036000808673ffffffffffffffffffffffffffffffffffffffff1673ffffffffffffffffffffffffffffffffffffffff16815260200190815260200160002081905550816000808573ffffffffffffffffffffffffffffffffffffffff1673ffffffffffffffffffffffffffffffffffffffff168152602001908152602001600020600082825401925050819055508273ffffffffffffffffffffffffffffffffffffffff168473ffffffffffffffffffffffffffffffffffffffff167fddf252ad1be2c89b69c2b068fc378daa952ba7f163c4a11628f55a4df523b3ef846040516113ea9190611940565b60405180910390a36113fd84848461172b565b50505050565b600073ffffffffffffffffffffffffffffffffffffffff168273ffffffffffffffffffffffffffffffffffffffff1603611472576040517f08c379a0000000000000000000000000000000000000000000000000000000008152600401611469906123b3565b60405180910390fd5b61147e60008383611726565b80600260008282546114909190611ce4565b92505081905550806000808473ffffffffffffffffffffffffffffffffffffffff1673ffffffffffffffffffffffffffffffffffffffff168152602001908152602001600020600082825401925050819055508173ffffffffffffffffffffffffffffffffffffffff16600073ffffffffffffffffffffffffffffffffffffffff167fddf252ad1be2c89b69c2b068fc378daa952ba7f163c4a11628f55a4df523b3ef836040516115419190611940565b60405180910390a36115556000838361172b565b5050565b600073ffffffffffffffffffffffffffffffffffffffff168273ffffffffffffffffffffffffffffffffffffffff16036115c8576040517f08c379a00000000000000000000000000000000000000000000000000000000081526004016115bf90612445565b60405180910390fd5b6115d482600083611726565b60008060008473ffffffffffffffffffffffffffffffffffffffff1673ffffffffffffffffffffffffffffffffffffffff1681526020019081526020016000205490508181101561165a576040517f08c379a0000000000000000000000000000000000000000000000000000000008152600401611651906124d7565b60405180910390fd5b8181036000808573ffffffffffffffffffffffffffffffffffffffff1673ffffffffffffffffffffffffffffffffffffffff1681526020019081526020016000208190555081600260008282540392505081905550600073ffffffffffffffffffffffffffffffffffffffff168373ffffffffffffffffffffffffffffffffffffffff167fddf252ad1be2c89b69c2b068fc378daa952ba7f163c4a11628f55a4df523b3ef8460405161170d9190611940565b60405180910390a36117218360008461172b565b505050565b505050565b505050565b600080fd5b6000819050919050565b61174881611735565b811461175357600080fd5b50565b6000813590506117658161173f565b92915050565b6000806040838503121561178257611781611730565b5b600061179085828601611756565b92505060206117a185828601611756565b9150509250929050565b600081519050919050565b600082825260208201905092915050565b60005b838110156117e55780820151818401526020810190506117ca565b60008484015250505050565b6000601f19601f8301169050919050565b600061180d826117ab565b61181781856117b6565b93506118278185602086016117c7565b611830816117f1565b840191505092915050565b600060208201905081810360008301526118558184611802565b905092915050565b600073ffffffffffffffffffffffffffffffffffffffff82169050919050565b60006118888261185d565b9050919050565b6118988161187d565b81146118a357600080fd5b50565b6000813590506118b58161188f565b92915050565b600080604083850312156118d2576118d1611730565b5b60006118e0858286016118a6565b92505060206118f185828601611756565b9150509250929050565b60008115159050919050565b611910816118fb565b82525050565b600060208201905061192b6000830184611907565b92915050565b61193a81611735565b82525050565b60006020820190506119556000830184611931565b92915050565b60008060006060848603121561197457611973611730565b5b6000611982868287016118a6565b9350506020611993868287016118a6565b92505060406119a486828701611756565b9150509250925092565b600060ff82169050919050565b6119c4816119ae565b82525050565b60006020820190506119df60008301846119bb565b92915050565b6000602082840312156119fb576119fa611730565b5b6000611a0984828501611756565b91505092915050565b600060208284031215611a2857611a27611730565b5b6000611a36848285016118a6565b91505092915050565b600080600060608486031215611a5857611a57611730565b5b6000611a6686828701611756565b9350506020611a7786828701611756565b9250506040611a8886828701611756565b9150509250925092565b6000604082019050611aa76000830185611931565b611ab46020830184611931565b9392505050565b611ac48161187d565b82525050565b6000602082019050611adf6000830184611abb565b92915050565b60008060408385031215611afc57611afb611730565b5b6000611b0a858286016118a6565b9250506020611b1b858286016118a6565b9150509250929050565b7f4e487b7100000000000000000000000000000000000000000000000000000000600052601160045260246000fd5b6000611b5f82611735565b9150611b6a83611735565b9250828203905081811115611b8257611b81611b25565b5b92915050565b7f496e73756666696369656e74206f757470757420616d6f756e742e0000000000600082015250565b6000611bbe601b836117b6565b9150611bc982611b88565b602082019050919050565b60006020820190508181036000830152611bed81611bb1565b9050919050565b6000606082019050611c096000830186611abb565b611c166020830185611abb565b611c236040830184611931565b949350505050565b611c34816118fb565b8114611c3f57600080fd5b50565b600081519050611c5181611c2b565b92915050565b600060208284031215611c6d57611c6c611730565b5b6000611c7b84828501611c42565b91505092915050565b7f4e487b7100000000000000000000000000000000000000000000000000000000600052602260045260246000fd5b60006002820490506001821680611ccb57607f821691505b602082108103611cde57611cdd611c84565b5b50919050565b6000611cef82611735565b9150611cfa83611735565b9250828201905080821115611d1257611d11611b25565b5b92915050565b6000611d2382611735565b9150611d2e83611735565b9250828202611d3c81611735565b91508282048414831517611d5357611d52611b25565b5b5092915050565b7f4e487b7100000000000000000000000000000000000000000000000000000000600052601260045260246000fd5b6000611d9482611735565b9150611d9f83611735565b925082611daf57611dae611d5a565b5b828204905092915050565b7f416d6f756e74206f6620746f6b656e73206973206c657373207468616e20746860008201527f65206d696e696d756d2072657175697265642e00000000000000000000000000602082015250565b6000611e166033836117b6565b9150611e2182611dba565b604082019050919050565b60006020820190508181036000830152611e4581611e09565b9050919050565b600081519050611e5b8161173f565b92915050565b600060208284031215611e7757611e76611730565b5b6000611e8584828501611e4c565b91505092915050565b7f496e76616c696420726573657276652e00000000000000000000000000000000600082015250565b6000611ec46010836117b6565b9150611ecf82611e8e565b602082019050919050565b60006020820190508181036000830152611ef381611eb7565b9050919050565b7f416d6f756e74206d75737420626520677265617465207468616e207a65726f2e600082015250565b6000611f306020836117b6565b9150611f3b82611efa565b602082019050919050565b60006020820190508181036000830152611f5f81611f23565b9050919050565b6000604082019050611f7b6000830185611abb565b611f886020830184611931565b9392505050565b7f45524332303a2064656372656173656420616c6c6f77616e63652062656c6f7760008201527f207a65726f000000000000000000000000000000000000000000000000000000602082015250565b6000611feb6025836117b6565b9150611ff682611f8f565b604082019050919050565b6000602082019050818103600083015261201a81611fde565b9050919050565b7f45524332303a20617070726f76652066726f6d20746865207a65726f2061646460008201527f7265737300000000000000000000000000000000000000000000000000000000602082015250565b600061207d6024836117b6565b915061208882612021565b604082019050919050565b600060208201905081810360008301526120ac81612070565b9050919050565b7f45524332303a20617070726f766520746f20746865207a65726f20616464726560008201527f7373000000000000000000000000000000000000000000000000000000000000602082015250565b600061210f6022836117b6565b915061211a826120b3565b604082019050919050565b6000602082019050818103600083015261213e81612102565b9050919050565b7f45524332303a20696e73756666696369656e7420616c6c6f77616e6365000000600082015250565b600061217b601d836117b6565b915061218682612145565b602082019050919050565b600060208201905081810360008301526121aa8161216e565b9050919050565b7f45524332303a207472616e736665722066726f6d20746865207a65726f20616460008201527f6472657373000000000000000000000000000000000000000000000000000000602082015250565b600061220d6025836117b6565b9150612218826121b1565b604082019050919050565b6000602082019050818103600083015261223c81612200565b9050919050565b7f45524332303a207472616e7366657220746f20746865207a65726f206164647260008201527f6573730000000000000000000000000000000000000000000000000000000000602082015250565b600061229f6023836117b6565b91506122aa82612243565b604082019050919050565b600060208201905081810360008301526122ce81612292565b9050919050565b7f45524332303a207472616e7366657220616d6f756e742065786365656473206260008201527f616c616e63650000000000000000000000000000000000000000000000000000602082015250565b60006123316026836117b6565b915061233c826122d5565b604082019050919050565b6000602082019050818103600083015261236081612324565b9050919050565b7f45524332303a206d696e7420746f20746865207a65726f206164647265737300600082015250565b600061239d601f836117b6565b91506123a882612367565b602082019050919050565b600060208201905081810360008301526123cc81612390565b9050919050565b7f45524332303a206275726e2066726f6d20746865207a65726f2061646472657360008201527f7300000000000000000000000000000000000000000000000000000000000000602082015250565b600061242f6021836117b6565b915061243a826123d3565b604082019050919050565b6000602082019050818103600083015261245e81612422565b9050919050565b7f45524332303a206275726e20616d6f756e7420657863656564732062616c616e60008201527f6365000000000000000000000000000000000000000000000000000000000000602082015250565b60006124c16022836117b6565b91506124cc82612465565b604082019050919050565b600060208201905081810360008301526124f0816124b4565b905091905056fea264697066735822122045728aa6725b34f194b08e9d1d915bfad2b5d566722e0dc2c637b4792a63b1dd64736f6c63430008120033",
  "linkReferences": {},
  "deployedLinkReferences": {}
}